{
  "_format": "hh-sol-artifact-1",
  "contractName": "FakeHegicETHOptions",
  "sourceName": "contracts/Mocks/HegicETHOptions.sol",
  "abi": [
    {
      "inputs": [],
      "stateMutability": "nonpayable",
      "type": "constructor"
    },
    {
      "anonymous": false,
      "inputs": [
        {
          "indexed": true,
          "internalType": "uint256",
          "name": "id",
          "type": "uint256"
        },
        {
          "indexed": true,
          "internalType": "address",
          "name": "account",
          "type": "address"
        },
        {
          "indexed": false,
          "internalType": "uint256",
          "name": "settlementFee",
          "type": "uint256"
        },
        {
          "indexed": false,
          "internalType": "uint256",
          "name": "totalFee",
          "type": "uint256"
        }
      ],
      "name": "Create",
      "type": "event"
    },
    {
      "anonymous": false,
      "inputs": [
        {
          "indexed": true,
          "internalType": "uint256",
          "name": "id",
          "type": "uint256"
        },
        {
          "indexed": false,
          "internalType": "uint256",
          "name": "profit",
          "type": "uint256"
        }
      ],
      "name": "Exercise",
      "type": "event"
    },
    {
      "anonymous": false,
      "inputs": [
        {
          "indexed": true,
          "internalType": "uint256",
          "name": "id",
          "type": "uint256"
        },
        {
          "indexed": false,
          "internalType": "uint256",
          "name": "premium",
          "type": "uint256"
        }
      ],
      "name": "Expire",
      "type": "event"
    },
    {
      "anonymous": false,
      "inputs": [
        {
          "indexed": true,
          "internalType": "address",
          "name": "previousOwner",
          "type": "address"
        },
        {
          "indexed": true,
          "internalType": "address",
          "name": "newOwner",
          "type": "address"
        }
      ],
      "name": "OwnershipTransferred",
      "type": "event"
    },
    {
      "inputs": [
        {
          "internalType": "uint256",
          "name": "period",
          "type": "uint256"
        },
        {
          "internalType": "uint256",
          "name": "amount",
          "type": "uint256"
        },
        {
          "internalType": "uint256",
          "name": "strike",
          "type": "uint256"
        },
        {
          "internalType": "enum IHegicOptions.OptionType",
          "name": "optionType",
          "type": "uint8"
        }
      ],
      "name": "create",
      "outputs": [
        {
          "internalType": "uint256",
          "name": "optionID",
          "type": "uint256"
        }
      ],
      "stateMutability": "payable",
      "type": "function"
    },
    {
      "inputs": [
        {
          "internalType": "uint256",
          "name": "optionID",
          "type": "uint256"
        }
      ],
      "name": "exercise",
      "outputs": [],
      "stateMutability": "nonpayable",
      "type": "function"
    },
    {
      "inputs": [
        {
          "internalType": "uint256",
          "name": "period",
          "type": "uint256"
        },
        {
          "internalType": "uint256",
          "name": "amount",
          "type": "uint256"
        },
        {
          "internalType": "uint256",
          "name": "strike",
          "type": "uint256"
        },
        {
          "internalType": "enum IHegicOptions.OptionType",
          "name": "optionType",
          "type": "uint8"
        }
      ],
      "name": "fees",
      "outputs": [
        {
          "internalType": "uint256",
          "name": "total",
          "type": "uint256"
        },
        {
          "internalType": "uint256",
          "name": "settlementFee",
          "type": "uint256"
        },
        {
          "internalType": "uint256",
          "name": "strikeFee",
          "type": "uint256"
        },
        {
          "internalType": "uint256",
          "name": "periodFee",
          "type": "uint256"
        }
      ],
      "stateMutability": "view",
      "type": "function"
    },
    {
      "inputs": [],
      "name": "impliedVolRate",
      "outputs": [
        {
          "internalType": "uint256",
          "name": "",
          "type": "uint256"
        }
      ],
      "stateMutability": "view",
      "type": "function"
    },
    {
      "inputs": [],
      "name": "latestPrice",
      "outputs": [
        {
          "internalType": "uint256",
          "name": "",
          "type": "uint256"
        }
      ],
      "stateMutability": "view",
      "type": "function"
    },
    {
      "inputs": [],
      "name": "optionCollateralizationRatio",
      "outputs": [
        {
          "internalType": "uint256",
          "name": "",
          "type": "uint256"
        }
      ],
      "stateMutability": "view",
      "type": "function"
    },
    {
      "inputs": [
        {
          "internalType": "uint256",
          "name": "",
          "type": "uint256"
        }
      ],
      "name": "options",
      "outputs": [
        {
          "internalType": "enum IHegicOptions.State",
          "name": "state",
          "type": "uint8"
        },
        {
          "internalType": "address payable",
          "name": "holder",
          "type": "address"
        },
        {
          "internalType": "uint256",
          "name": "strike",
          "type": "uint256"
        },
        {
          "internalType": "uint256",
          "name": "amount",
          "type": "uint256"
        },
        {
          "internalType": "uint256",
          "name": "lockedAmount",
          "type": "uint256"
        },
        {
          "internalType": "uint256",
          "name": "premium",
          "type": "uint256"
        },
        {
          "internalType": "uint256",
          "name": "expiration",
          "type": "uint256"
        },
        {
          "internalType": "enum IHegicOptions.OptionType",
          "name": "optionType",
          "type": "uint8"
        }
      ],
      "stateMutability": "view",
      "type": "function"
    },
    {
      "inputs": [],
      "name": "owner",
      "outputs": [
        {
          "internalType": "address",
          "name": "",
          "type": "address"
        }
      ],
      "stateMutability": "view",
      "type": "function"
    },
    {
      "inputs": [],
      "name": "renounceOwnership",
      "outputs": [],
      "stateMutability": "nonpayable",
      "type": "function"
    },
    {
      "inputs": [
        {
          "internalType": "uint256",
          "name": "value",
          "type": "uint256"
        }
      ],
      "name": "setImpliedVolRate",
      "outputs": [],
      "stateMutability": "nonpayable",
      "type": "function"
    },
    {
      "inputs": [
        {
          "internalType": "uint256",
          "name": "_newPrice",
          "type": "uint256"
        }
      ],
      "name": "setLatestPrice",
      "outputs": [],
      "stateMutability": "nonpayable",
      "type": "function"
    },
    {
      "inputs": [
        {
          "internalType": "uint256",
          "name": "value",
          "type": "uint256"
        }
      ],
      "name": "setOptionCollaterizationRatio",
      "outputs": [],
      "stateMutability": "nonpayable",
      "type": "function"
    },
    {
      "inputs": [
        {
          "internalType": "uint256",
          "name": "optionID",
          "type": "uint256"
        },
        {
          "internalType": "address payable",
          "name": "newHolder",
          "type": "address"
        }
      ],
      "name": "transfer",
      "outputs": [],
      "stateMutability": "nonpayable",
      "type": "function"
    },
    {
      "inputs": [
        {
          "internalType": "address",
          "name": "newOwner",
          "type": "address"
        }
      ],
      "name": "transferOwnership",
      "outputs": [],
      "stateMutability": "nonpayable",
      "type": "function"
    },
    {
      "inputs": [
        {
          "internalType": "uint256",
          "name": "optionID",
          "type": "uint256"
        }
      ],
      "name": "unlock",
      "outputs": [],
      "stateMutability": "nonpayable",
      "type": "function"
    },
    {
      "inputs": [
        {
          "internalType": "uint256[]",
          "name": "optionIDs",
          "type": "uint256[]"
        }
      ],
      "name": "unlockAll",
      "outputs": [],
      "stateMutability": "nonpayable",
      "type": "function"
    }
  ],
  "bytecode": "0x60806040526064600355640a7a35820060055534801561001e57600080fd5b506000610029610082565b600080546001600160a01b0319166001600160a01b0383169081178255604051929350917f8be0079c531659141344cd1fd0a4f28419497f9722a3daafe3b4186f6b6457e0908290a35061157c60025542600455610086565b3390565b6116c7806100956000396000f3fe6080604052600436106100f35760003560e01c8063b07f0a411161008a578063e2bef75411610059578063e2bef7541461036f578063e342b59814610399578063f2fde38b14610416578063fc9bb7fe14610449576100f3565b8063b07f0a411461027d578063b7760c8f146102a7578063c7c3b53f146102e0578063ceaeeba914610345576100f3565b8063715018a6116100c6578063715018a6146101f057806380478ad1146102055780638da5cb5b14610237578063a3e6ba9414610268576100f3565b806318f88e5b146100f8578063302ce6511461011f578063409e2205146101345780636198e339146101c4575b600080fd5b34801561010457600080fd5b5061010d610473565b60408051918252519081900360200190f35b34801561012b57600080fd5b5061010d610479565b34801561014057600080fd5b5061015e6004803603602081101561015757600080fd5b503561047f565b6040518089600381111561016e57fe5b8152602001886001600160a01b031681526020018781526020018681526020018581526020018481526020018381526020018260028111156101ac57fe5b81526020019850505050505050505060405180910390f35b3480156101d057600080fd5b506101ee600480360360208110156101e757600080fd5b50356104e1565b005b3480156101fc57600080fd5b506101ee6105fe565b61010d6004803603608081101561021b57600080fd5b508035906020810135906040810135906060013560ff166106a0565b34801561024357600080fd5b5061024c6109ed565b604080516001600160a01b039092168252519081900360200190f35b34801561027457600080fd5b5061010d6109fc565b34801561028957600080fd5b506101ee600480360360208110156102a057600080fd5b5035610a02565b3480156102b357600080fd5b506101ee600480360360408110156102ca57600080fd5b50803590602001356001600160a01b0316610b69565b3480156102ec57600080fd5b5061031f6004803603608081101561030357600080fd5b508035906020810135906040810135906060013560ff16610d09565b604080519485526020850193909352838301919091526060830152519081900360800190f35b34801561035157600080fd5b506101ee6004803603602081101561036857600080fd5b5035610d5a565b34801561037b57600080fd5b506101ee6004803603602081101561039257600080fd5b5035610df8565b3480156103a557600080fd5b506101ee600480360360208110156103bc57600080fd5b8101906020810181356401000000008111156103d757600080fd5b8201836020820111156103e957600080fd5b8035906020019184602083028401116401000000008311171561040b57600080fd5b509092509050610ea6565b34801561042257600080fd5b506101ee6004803603602081101561043957600080fd5b50356001600160a01b0316610edb565b34801561045557600080fd5b506101ee6004803603602081101561046c57600080fd5b5035610fd3565b60025481565b60035481565b6001818154811061048c57fe5b6000918252602090912060079091020180546001820154600283015460038401546004850154600586015460069096015460ff80871698506101009096046001600160a01b0316969495939492939192911688565b6000600182815481106104f057fe5b9060005260206000209060070201905042816005015410610558576040805162461bcd60e51b815260206004820152601a60248201527f4f7074696f6e20686173206e6f74206578706972656420796574000000000000604482015290519081900360640190fd5b6001815460ff16600381111561056a57fe5b146105b3576040805162461bcd60e51b81526020600482015260146024820152734f7074696f6e206973206e6f742061637469766560601b604482015290519081900360640190fd5b8054600360ff199091161781556004810154604080519182525183917f5f36a4a575e512eb69d6d28c3b0ff98cca7ba50ad5bf04e14094ad1d425e0d31919081900360200190a25050565b610606610fd8565b6000546001600160a01b03908116911614610656576040805162461bcd60e51b81526020600482018190526024820152600080516020611651833981519152604482015290519081900360640190fd5b600080546040516001600160a01b03909116907f8be0079c531659141344cd1fd0a4f28419497f9722a3daafe3b4186f6b6457e0908390a3600080546001600160a01b0319169055565b6000806000806106b288888888610d09565b5092509250925062015180881015610707576040805162461bcd60e51b815260206004820152601360248201527214195c9a5bd9081a5cc81d1bdbc81cda1bdc9d606a1b604482015290519081900360640190fd5b6224ea00881115610754576040805162461bcd60e51b8152602060048201526012602482015271506572696f6420697320746f6f206c6f6e6760701b604482015290519081900360640190fd5b8087116107a8576040805162461bcd60e51b815260206004820152601d60248201527f507269636520646966666572656e636520697320746f6f206c61726765000000604482015290519081900360640190fd5b823410156107eb576040805162461bcd60e51b815260206004820152600b60248201526a57726f6e672076616c756560a81b604482015290519081900360640190fd5b823411156108245760405133903485900380156108fc02916000818181858888f19350505050158015610822573d6000803e3d6000fd5b505b60006108308883610fdc565b6001549550905061083f611588565b6040805161010081019091528060018152602001336001600160a01b031681526020018981526020018a815260200161089885610892606461088c6003548961102790919063ffffffff16565b90611080565b906110c2565b81526020016108a78787610fdc565b81526020018b420181526020018860028111156108c057fe5b90526001805480820182556000829052825160079091027fb10e2d527612073b26eecdfd717e6a320cf44b4afac2b0732d9fcbe2b7fa0cf601805493945084939092839160ff19169083600381111561091557fe5b021790555060208201518160000160016101000a8154816001600160a01b0302191690836001600160a01b0316021790555060408201518160010155606082015181600201556080820151816003015560a0820151816004015560c0820151816005015560e08201518160060160006101000a81548160ff0219169083600281111561099d57fe5b0217905550506040805186815260208101889052815133935089927f9acccf962da4ed9c3db3a1beedb70b0d4c3f6a69c170baca7198a74548b5ef4e928290030190a35050505050949350505050565b6000546001600160a01b031690565b60055481565b600060018281548110610a1157fe5b906000526020600020906007020190504281600501541015610a6f576040805162461bcd60e51b815260206004820152601260248201527113dc1d1a5bdb881a185cc8195e1c1a5c995960721b604482015290519081900360640190fd5b805461010090046001600160a01b03163314610ac5576040805162461bcd60e51b815260206004820152601060248201526f2bb937b7339036b9b39739b2b73232b960811b604482015290519081900360640190fd5b6001815460ff166003811115610ad757fe5b14610b17576040805162461bcd60e51b815260206004820152600b60248201526a57726f6e6720737461746560a81b604482015290519081900360640190fd5b805460ff191660021781556000610b2d8361111c565b60408051828152905191925084917e84fe51c7cb34b132b7b6eb5d5a87a489f8d6d284758d00a0402c1bad9a0def9181900360200190a2505050565b600060018381548110610b7857fe5b9060005260206000209060070201905060006001600160a01b0316826001600160a01b03161415610bf0576040805162461bcd60e51b815260206004820152601a60248201527f6e657720686f6c6465722061646472657373206973207a65726f000000000000604482015290519081900360640190fd5b4281600501541015610c3e576040805162461bcd60e51b815260206004820152601260248201527113dc1d1a5bdb881a185cc8195e1c1a5c995960721b604482015290519081900360640190fd5b805461010090046001600160a01b03163314610c94576040805162461bcd60e51b815260206004820152601060248201526f2bb937b7339036b9b39739b2b73232b960811b604482015290519081900360640190fd5b6001815460ff166003811115610ca657fe5b14610ce25760405162461bcd60e51b81526004018080602001828103825260288152602001806115e26028913960400191505060405180910390fd5b80546001600160a01b0390921661010002610100600160a81b031990921691909117905550565b60008060008060006005549050610d1f8861135b565b9350610d2e888a89848a611362565b9150610d3c888883896113d3565b9250610d4c8461089284866110c2565b945050945094509450949050565b610d62610fd8565b6000546001600160a01b03908116911614610db2576040805162461bcd60e51b81526020600482018190526024820152600080516020611651833981519152604482015290519081900360640190fd5b6103e8811015610df35760405162461bcd60e51b81526004018080602001828103825260218152602001806116716021913960400191505060405180910390fd5b600255565b610e00610fd8565b6000546001600160a01b03908116911614610e50576040805162461bcd60e51b81526020600482018190526024820152600080516020611651833981519152604482015290519081900360640190fd5b80603211158015610e62575060648111155b610ea1576040805162461bcd60e51b815260206004820152600b60248201526a77726f6e672076616c756560a81b604482015290519081900360640190fd5b600355565b8060005b81811015610ed557610ecd848483818110610ec157fe5b905060200201356104e1565b600101610eaa565b50505050565b610ee3610fd8565b6000546001600160a01b03908116911614610f33576040805162461bcd60e51b81526020600482018190526024820152600080516020611651833981519152604482015290519081900360640190fd5b6001600160a01b038116610f785760405162461bcd60e51b815260040180806020018281038252602681526020018061160a6026913960400191505060405180910390fd5b600080546040516001600160a01b03808516939216917f8be0079c531659141344cd1fd0a4f28419497f9722a3daafe3b4186f6b6457e091a3600080546001600160a01b0319166001600160a01b0392909216919091179055565b600555565b3390565b600061101e83836040518060400160405280601e81526020017f536166654d6174683a207375627472616374696f6e206f766572666c6f77000081525061144a565b90505b92915050565b60008261103657506000611021565b8282028284828161104357fe5b041461101e5760405162461bcd60e51b81526004018080602001828103825260218152602001806116306021913960400191505060405180910390fd5b600061101e83836040518060400160405280601a81526020017f536166654d6174683a206469766973696f6e206279207a65726f0000000000008152506114e1565b60008282018381101561101e576040805162461bcd60e51b815260206004820152601b60248201527f536166654d6174683a206164646974696f6e206f766572666c6f770000000000604482015290519081900360640190fd5b6000611126611588565b6001838154811061113357fe5b600091825260209091206040805161010081019091526007909202018054829060ff16600381111561116157fe5b600381111561116c57fe5b8152815461010090046001600160a01b0316602082015260018201546040820152600280830154606083015260038301546080830152600483015460a0830152600583015460c0830152600683015460e09092019160ff16908111156111ce57fe5b60028111156111d957fe5b90525060055490915060028260e0015160028111156111f457fe5b1415611283578082604001511115611253576040805162461bcd60e51b815260206004820152601860248201527f43757272656e7420707269636520697320746f6f206c6f770000000000000000604482015290519081900360640190fd5b61127c8161088c8460600151611276866040015186610fdc90919063ffffffff16565b90611027565b9250611302565b80826040015110156112dc576040805162461bcd60e51b815260206004820152601960248201527f43757272656e7420707269636520697320746f6f206869676800000000000000604482015290519081900360640190fd5b6112ff8161088c8460600151611276858760400151610fdc90919063ffffffff16565b92505b816080015183111561131657816080015192505b81602001516001600160a01b03166108fc849081150290604051600060405180830381858888f19350505050158015611353573d6000803e3d6000fd5b505050919050565b6064900490565b6000600182600281111561137257fe5b14156113a8576113a16305f5e10061088c8561088c8861127660025461127661139a8e611546565b8f90611027565b90506113ca565b6113a16305f5e10061088c8661088c8761127660025461127661139a8e611546565b95945050505050565b600082841180156113ef575060018260028111156113ed57fe5b145b1561140d576114068361088c876112768884610fdc565b9050611442565b82841080156114275750600282600281111561142557fe5b145b1561143e576114068361088c876112768389610fdc565b5060005b949350505050565b600081848411156114d95760405162461bcd60e51b81526004018080602001828103825283818151815260200191508051906020019080838360005b8381101561149e578181015183820152602001611486565b50505050905090810190601f1680156114cb5780820380516001836020036101000a031916815260200191505b509250505060405180910390fd5b505050900390565b600081836115305760405162461bcd60e51b815260206004820181815283516024840152835190928392604490910191908501908083836000831561149e578181015183820152602001611486565b50600083858161153c57fe5b0495945050505050565b8060006115596001610892846002611080565b90505b818110156115825780611578600261088c836108928882611080565b909250905061155c565b50919050565b604080516101008101909152806000815260200160006001600160a01b031681526020016000815260200160008152602001600081526020016000815260200160008152602001600060028111156115dc57fe5b90529056fe4f6e6c7920616374697665206f7074696f6e7320636f756c64206265207472616e736665727265644f776e61626c653a206e6577206f776e657220697320746865207a65726f2061646472657373536166654d6174683a206d756c7469706c69636174696f6e206f766572666c6f774f776e61626c653a2063616c6c6572206973206e6f7420746865206f776e6572496d706c696564566f6c52617465206c696d697420697320746f6f20736d616c6ca2646970667358221220aad316dc28b83f744a96211ef4c7c16c9c92f20303fdabbe404a587074d1207064736f6c634300060c0033",
  "linkReferences": {},
  "deployedLinkReferences": {}
}