{
  "_format": "hh-sol-artifact-1",
  "contractName": "FakeHegicWBTCOptions",
  "sourceName": "contracts/Mocks/HegicWBTCOptions.sol",
  "abi": [
    {
      "inputs": [
        {
          "internalType": "contract IERC20",
          "name": "token",
          "type": "address"
        }
      ],
      "stateMutability": "nonpayable",
      "type": "constructor"
    },
    {
      "anonymous": false,
      "inputs": [
        {
          "indexed": true,
          "internalType": "uint256",
          "name": "id",
          "type": "uint256"
        },
        {
          "indexed": true,
          "internalType": "address",
          "name": "account",
          "type": "address"
        },
        {
          "indexed": false,
          "internalType": "uint256",
          "name": "settlementFee",
          "type": "uint256"
        },
        {
          "indexed": false,
          "internalType": "uint256",
          "name": "totalFee",
          "type": "uint256"
        }
      ],
      "name": "Create",
      "type": "event"
    },
    {
      "anonymous": false,
      "inputs": [
        {
          "indexed": true,
          "internalType": "uint256",
          "name": "id",
          "type": "uint256"
        },
        {
          "indexed": false,
          "internalType": "uint256",
          "name": "profit",
          "type": "uint256"
        }
      ],
      "name": "Exercise",
      "type": "event"
    },
    {
      "anonymous": false,
      "inputs": [
        {
          "indexed": true,
          "internalType": "uint256",
          "name": "id",
          "type": "uint256"
        },
        {
          "indexed": false,
          "internalType": "uint256",
          "name": "premium",
          "type": "uint256"
        }
      ],
      "name": "Expire",
      "type": "event"
    },
    {
      "anonymous": false,
      "inputs": [
        {
          "indexed": true,
          "internalType": "address",
          "name": "previousOwner",
          "type": "address"
        },
        {
          "indexed": true,
          "internalType": "address",
          "name": "newOwner",
          "type": "address"
        }
      ],
      "name": "OwnershipTransferred",
      "type": "event"
    },
    {
      "inputs": [
        {
          "internalType": "uint256",
          "name": "period",
          "type": "uint256"
        },
        {
          "internalType": "uint256",
          "name": "amount",
          "type": "uint256"
        },
        {
          "internalType": "uint256",
          "name": "strike",
          "type": "uint256"
        },
        {
          "internalType": "enum IHegicOptions.OptionType",
          "name": "optionType",
          "type": "uint8"
        }
      ],
      "name": "create",
      "outputs": [
        {
          "internalType": "uint256",
          "name": "optionID",
          "type": "uint256"
        }
      ],
      "stateMutability": "payable",
      "type": "function"
    },
    {
      "inputs": [
        {
          "internalType": "uint256",
          "name": "optionID",
          "type": "uint256"
        }
      ],
      "name": "exercise",
      "outputs": [],
      "stateMutability": "nonpayable",
      "type": "function"
    },
    {
      "inputs": [
        {
          "internalType": "uint256",
          "name": "period",
          "type": "uint256"
        },
        {
          "internalType": "uint256",
          "name": "amount",
          "type": "uint256"
        },
        {
          "internalType": "uint256",
          "name": "strike",
          "type": "uint256"
        },
        {
          "internalType": "enum IHegicOptions.OptionType",
          "name": "optionType",
          "type": "uint8"
        }
      ],
      "name": "fees",
      "outputs": [
        {
          "internalType": "uint256",
          "name": "total",
          "type": "uint256"
        },
        {
          "internalType": "uint256",
          "name": "totalETH",
          "type": "uint256"
        },
        {
          "internalType": "uint256",
          "name": "settlementFee",
          "type": "uint256"
        },
        {
          "internalType": "uint256",
          "name": "strikeFee",
          "type": "uint256"
        },
        {
          "internalType": "uint256",
          "name": "periodFee",
          "type": "uint256"
        }
      ],
      "stateMutability": "view",
      "type": "function"
    },
    {
      "inputs": [],
      "name": "impliedVolRate",
      "outputs": [
        {
          "internalType": "uint256",
          "name": "",
          "type": "uint256"
        }
      ],
      "stateMutability": "view",
      "type": "function"
    },
    {
      "inputs": [],
      "name": "latestPrice",
      "outputs": [
        {
          "internalType": "uint256",
          "name": "",
          "type": "uint256"
        }
      ],
      "stateMutability": "view",
      "type": "function"
    },
    {
      "inputs": [],
      "name": "optionCollateralizationRatio",
      "outputs": [
        {
          "internalType": "uint256",
          "name": "",
          "type": "uint256"
        }
      ],
      "stateMutability": "view",
      "type": "function"
    },
    {
      "inputs": [
        {
          "internalType": "uint256",
          "name": "",
          "type": "uint256"
        }
      ],
      "name": "options",
      "outputs": [
        {
          "internalType": "enum IHegicOptions.State",
          "name": "state",
          "type": "uint8"
        },
        {
          "internalType": "address payable",
          "name": "holder",
          "type": "address"
        },
        {
          "internalType": "uint256",
          "name": "strike",
          "type": "uint256"
        },
        {
          "internalType": "uint256",
          "name": "amount",
          "type": "uint256"
        },
        {
          "internalType": "uint256",
          "name": "lockedAmount",
          "type": "uint256"
        },
        {
          "internalType": "uint256",
          "name": "premium",
          "type": "uint256"
        },
        {
          "internalType": "uint256",
          "name": "expiration",
          "type": "uint256"
        },
        {
          "internalType": "enum IHegicOptions.OptionType",
          "name": "optionType",
          "type": "uint8"
        }
      ],
      "stateMutability": "view",
      "type": "function"
    },
    {
      "inputs": [],
      "name": "owner",
      "outputs": [
        {
          "internalType": "address",
          "name": "",
          "type": "address"
        }
      ],
      "stateMutability": "view",
      "type": "function"
    },
    {
      "inputs": [],
      "name": "renounceOwnership",
      "outputs": [],
      "stateMutability": "nonpayable",
      "type": "function"
    },
    {
      "inputs": [
        {
          "internalType": "uint256",
          "name": "value",
          "type": "uint256"
        }
      ],
      "name": "setImpliedVolRate",
      "outputs": [],
      "stateMutability": "nonpayable",
      "type": "function"
    },
    {
      "inputs": [
        {
          "internalType": "uint256",
          "name": "_newPrice",
          "type": "uint256"
        }
      ],
      "name": "setLatestPrice",
      "outputs": [],
      "stateMutability": "nonpayable",
      "type": "function"
    },
    {
      "inputs": [
        {
          "internalType": "uint256",
          "name": "value",
          "type": "uint256"
        }
      ],
      "name": "setOptionCollaterizationRatio",
      "outputs": [],
      "stateMutability": "nonpayable",
      "type": "function"
    },
    {
      "inputs": [
        {
          "internalType": "uint256",
          "name": "optionID",
          "type": "uint256"
        },
        {
          "internalType": "address payable",
          "name": "newHolder",
          "type": "address"
        }
      ],
      "name": "transfer",
      "outputs": [],
      "stateMutability": "nonpayable",
      "type": "function"
    },
    {
      "inputs": [
        {
          "internalType": "address",
          "name": "newOwner",
          "type": "address"
        }
      ],
      "name": "transferOwnership",
      "outputs": [],
      "stateMutability": "nonpayable",
      "type": "function"
    },
    {
      "inputs": [
        {
          "internalType": "uint256",
          "name": "optionID",
          "type": "uint256"
        }
      ],
      "name": "unlock",
      "outputs": [],
      "stateMutability": "nonpayable",
      "type": "function"
    },
    {
      "inputs": [
        {
          "internalType": "uint256[]",
          "name": "optionIDs",
          "type": "uint256[]"
        }
      ],
      "name": "unlockAll",
      "outputs": [],
      "stateMutability": "nonpayable",
      "type": "function"
    },
    {
      "inputs": [],
      "name": "wbtc",
      "outputs": [
        {
          "internalType": "contract IERC20",
          "name": "",
          "type": "address"
        }
      ],
      "stateMutability": "view",
      "type": "function"
    }
  ],
  "bytecode": "0x6080604052644f29944800600155606460045565015d3ef7980060075534801561002857600080fd5b50604051611aca380380611aca8339818101604052602081101561004b57600080fd5b505160006100576100d0565b600080546001600160a01b0319166001600160a01b0383169081178255604051929350917f8be0079c531659141344cd1fd0a4f28419497f9722a3daafe3b4186f6b6457e0908290a350600680546001600160a01b0319166001600160a01b039290921691909117905561157c600355426005556100d4565b3390565b6119e7806100e36000396000f3fe6080604052600436106100fe5760003560e01c8063a3e6ba9411610095578063ceaeeba911610064578063ceaeeba91461036a578063e2bef75414610394578063e342b598146103be578063f2fde38b1461043b578063fc9bb7fe1461046e576100fe565b8063a3e6ba9414610288578063b07f0a411461029d578063b7760c8f146102c7578063c7c3b53f14610300576100fe565b80636198e339116100d15780636198e33914610200578063715018a61461022c57806380478ad1146102415780638da5cb5b14610273576100fe565b806318f88e5b14610103578063302ce6511461012a5780633cdc53891461013f578063409e220514610170575b600080fd5b34801561010f57600080fd5b50610118610498565b60408051918252519081900360200190f35b34801561013657600080fd5b5061011861049e565b34801561014b57600080fd5b506101546104a4565b604080516001600160a01b039092168252519081900360200190f35b34801561017c57600080fd5b5061019a6004803603602081101561019357600080fd5b50356104b3565b604051808960038111156101aa57fe5b8152602001886001600160a01b031681526020018781526020018681526020018581526020018481526020018381526020018260028111156101e857fe5b81526020019850505050505050505060405180910390f35b34801561020c57600080fd5b5061022a6004803603602081101561022357600080fd5b5035610515565b005b34801561023857600080fd5b5061022a610632565b6101186004803603608081101561025757600080fd5b508035906020810135906040810135906060013560ff166106d4565b34801561027f57600080fd5b50610154610a6e565b34801561029457600080fd5b50610118610a7d565b3480156102a957600080fd5b5061022a600480360360208110156102c057600080fd5b5035610a83565b3480156102d357600080fd5b5061022a600480360360408110156102ea57600080fd5b50803590602001356001600160a01b0316610bea565b34801561030c57600080fd5b5061033f6004803603608081101561032357600080fd5b508035906020810135906040810135906060013560ff16610d8a565b6040805195865260208601949094528484019290925260608401526080830152519081900360a00190f35b34801561037657600080fd5b5061022a6004803603602081101561038d57600080fd5b5035610de3565b3480156103a057600080fd5b5061022a600480360360208110156103b757600080fd5b5035610e81565b3480156103ca57600080fd5b5061022a600480360360208110156103e157600080fd5b8101906020810181356401000000008111156103fc57600080fd5b82018360208201111561040e57600080fd5b8035906020019184602083028401116401000000008311171561043057600080fd5b509092509050610f2f565b34801561044757600080fd5b5061022a6004803603602081101561045e57600080fd5b50356001600160a01b0316610f64565b34801561047a57600080fd5b5061022a6004803603602081101561049157600080fd5b503561105c565b60035481565b60045481565b6006546001600160a01b031681565b600281815481106104c057fe5b6000918252602090912060079091020180546001820154600283015460038401546004850154600586015460069096015460ff80871698506101009096046001600160a01b0316969495939492939192911688565b60006002828154811061052457fe5b906000526020600020906007020190504281600501541061058c576040805162461bcd60e51b815260206004820152601a60248201527f4f7074696f6e20686173206e6f74206578706972656420796574000000000000604482015290519081900360640190fd5b6001815460ff16600381111561059e57fe5b146105e7576040805162461bcd60e51b81526020600482015260146024820152734f7074696f6e206973206e6f742061637469766560601b604482015290519081900360640190fd5b8054600360ff199091161781556004810154604080519182525183917f5f36a4a575e512eb69d6d28c3b0ff98cca7ba50ad5bf04e14094ad1d425e0d31919081900360200190a25050565b61063a611061565b6000546001600160a01b0390811691161461068a576040805162461bcd60e51b81526020600482018190526024820152600080516020611920833981519152604482015290519081900360640190fd5b600080546040516001600160a01b03909116907f8be0079c531659141344cd1fd0a4f28419497f9722a3daafe3b4186f6b6457e0908390a3600080546001600160a01b0319169055565b60008060008060006106e889898989610d8a565b5092965090945092509050600286600281111561070157fe5b14806107185750600186600281111561071657fe5b145b61075d576040805162461bcd60e51b815260206004820152601160248201527057726f6e67206f7074696f6e207479706560781b604482015290519081900360640190fd5b620151808910156107ab576040805162461bcd60e51b815260206004820152601360248201527214195c9a5bd9081a5cc81d1bdbc81cda1bdc9d606a1b604482015290519081900360640190fd5b6224ea008911156107f8576040805162461bcd60e51b8152602060048201526012602482015271506572696f6420697320746f6f206c6f6e6760701b604482015290519081900360640190fd5b80881161084c576040805162461bcd60e51b815260206004820152601d60248201527f707269636520646966666572656e636520697320746f6f206c61726765000000604482015290519081900360640190fd5b60006108588983611065565b905060006108668685611065565b6002549750905061087561187f565b6040805161010081019091528060018152602001336001600160a01b031681526020018b81526020018c81526020016108ce866108c860646108c26004548a6110b090919063ffffffff16565b90611109565b9061114b565b81526020018381526020018d420181526020018a60028111156108ed57fe5b9052905060006108fd87896111a5565b90503481101561093f57336108fc6109153484611065565b6040518115909202916000818181858888f1935050505015801561093d573d6000803e3d6000fd5b505b6002805460018181018355600092909252835160079091027f405787fa12a823e0f2b7631cc41b3ba8828b3321ca811111fa75cd3aa3bb5ace0180548593919291839160ff19169083600381111561099357fe5b021790555060208201518160000160016101000a8154816001600160a01b0302191690836001600160a01b0316021790555060408201518160010155606082015181600201556080820151816003015560a0820151816004015560c0820151816005015560e08201518160060160006101000a81548160ff02191690836002811115610a1b57fe5b02179055505060408051888152602081018b905281513393508c927f9acccf962da4ed9c3db3a1beedb70b0d4c3f6a69c170baca7198a74548b5ef4e928290030190a35050505050505050949350505050565b6000546001600160a01b031690565b60075481565b600060028281548110610a9257fe5b906000526020600020906007020190504281600501541015610af0576040805162461bcd60e51b815260206004820152601260248201527113dc1d1a5bdb881a185cc8195e1c1a5c995960721b604482015290519081900360640190fd5b805461010090046001600160a01b03163314610b46576040805162461bcd60e51b815260206004820152601060248201526f2bb937b7339036b9b39739b2b73232b960811b604482015290519081900360640190fd5b6001815460ff166003811115610b5857fe5b14610b98576040805162461bcd60e51b815260206004820152600b60248201526a57726f6e6720737461746560a81b604482015290519081900360640190fd5b805460ff191660021781556000610bae836111ae565b60408051828152905191925084917e84fe51c7cb34b132b7b6eb5d5a87a489f8d6d284758d00a0402c1bad9a0def9181900360200190a2505050565b600060028381548110610bf957fe5b9060005260206000209060070201905060006001600160a01b0316826001600160a01b03161415610c71576040805162461bcd60e51b815260206004820152601a60248201527f6e657720686f6c6465722061646472657373206973207a65726f000000000000604482015290519081900360640190fd5b4281600501541015610cbf576040805162461bcd60e51b815260206004820152601260248201527113dc1d1a5bdb881a185cc8195e1c1a5c995960721b604482015290519081900360640190fd5b805461010090046001600160a01b03163314610d15576040805162461bcd60e51b815260206004820152601060248201526f2bb937b7339036b9b39739b2b73232b960811b604482015290519081900360640190fd5b6001815460ff166003811115610d2757fe5b14610d635760405162461bcd60e51b815260040180806020018281038252602781526020018061198b6027913960400191505060405180910390fd5b80546001600160a01b0390921661010002610100600160a81b031990921691909117905550565b6000806000806000806007549050610da1896113cd565b9350610db0898b8a848b6113d4565b9150610dbe8989838a611445565b9250610dce846108c8848661114b565b95506001548602945050945094509450945094565b610deb611061565b6000546001600160a01b03908116911614610e3b576040805162461bcd60e51b81526020600482018190526024820152600080516020611920833981519152604482015290519081900360640190fd5b6103e8811015610e7c5760405162461bcd60e51b815260040180806020018281038252602181526020018061196a6021913960400191505060405180910390fd5b600355565b610e89611061565b6000546001600160a01b03908116911614610ed9576040805162461bcd60e51b81526020600482018190526024820152600080516020611920833981519152604482015290519081900360640190fd5b80603211158015610eeb575060648111155b610f2a576040805162461bcd60e51b815260206004820152600b60248201526a77726f6e672076616c756560a81b604482015290519081900360640190fd5b600455565b8060005b81811015610f5e57610f56848483818110610f4a57fe5b90506020020135610515565b600101610f33565b50505050565b610f6c611061565b6000546001600160a01b03908116911614610fbc576040805162461bcd60e51b81526020600482018190526024820152600080516020611920833981519152604482015290519081900360640190fd5b6001600160a01b0381166110015760405162461bcd60e51b81526004018080602001828103825260268152602001806118d96026913960400191505060405180910390fd5b600080546040516001600160a01b03808516939216917f8be0079c531659141344cd1fd0a4f28419497f9722a3daafe3b4186f6b6457e091a3600080546001600160a01b0319166001600160a01b0392909216919091179055565b600755565b3390565b60006110a783836040518060400160405280601e81526020017f536166654d6174683a207375627472616374696f6e206f766572666c6f7700008152506114bc565b90505b92915050565b6000826110bf575060006110aa565b828202828482816110cc57fe5b04146110a75760405162461bcd60e51b81526004018080602001828103825260218152602001806118ff6021913960400191505060405180910390fd5b60006110a783836040518060400160405280601a81526020017f536166654d6174683a206469766973696f6e206279207a65726f000000000000815250611553565b6000828201838110156110a7576040805162461bcd60e51b815260206004820152601b60248201527f536166654d6174683a206164646974696f6e206f766572666c6f770000000000604482015290519081900360640190fd5b60015402919050565b60006111b861187f565b600283815481106111c557fe5b600091825260209091206040805161010081019091526007909202018054829060ff1660038111156111f357fe5b60038111156111fe57fe5b8152815461010090046001600160a01b0316602082015260018201546040820152600280830154606083015260038301546080830152600483015460a0830152600583015460c0830152600683015460e09092019160ff169081111561126057fe5b600281111561126b57fe5b90525060075490915060028260e00151600281111561128657fe5b14156113155780826040015111156112e5576040805162461bcd60e51b815260206004820152601860248201527f43757272656e7420707269636520697320746f6f206c6f770000000000000000604482015290519081900360640190fd5b61130e816108c2846060015161130886604001518661106590919063ffffffff16565b906110b0565b9250611394565b808260400151101561136e576040805162461bcd60e51b815260206004820152601960248201527f43757272656e7420707269636520697320746f6f206869676800000000000000604482015290519081900360640190fd5b611391816108c2846060015161130885876040015161106590919063ffffffff16565b92505b81608001518311156113a857816080015192505b60208201516006546113c6916001600160a01b0390911690856115b8565b5050919050565b6064900490565b600060018260028111156113e457fe5b141561141a576114136305f5e1006108c2856108c28861130860035461130861140c8e61160f565b8f906110b0565b905061143c565b6114136305f5e1006108c2866108c28761130860035461130861140c8e61160f565b95945050505050565b600082841180156114615750600182600281111561145f57fe5b145b1561147f57611478836108c2876113088884611065565b90506114b4565b82841080156114995750600282600281111561149757fe5b145b156114b057611478836108c2876113088389611065565b5060005b949350505050565b6000818484111561154b5760405162461bcd60e51b81526004018080602001828103825283818151815260200191508051906020019080838360005b838110156115105781810151838201526020016114f8565b50505050905090810190601f16801561153d5780820380516001836020036101000a031916815260200191505b509250505060405180910390fd5b505050900390565b600081836115a25760405162461bcd60e51b81526020600482018181528351602484015283519092839260449091019190850190808383600083156115105781810151838201526020016114f8565b5060008385816115ae57fe5b0495945050505050565b604080516001600160a01b038416602482015260448082018490528251808303909101815260649091019091526020810180516001600160e01b031663a9059cbb60e01b17905261160a908490611651565b505050565b80600061162260016108c8846002611109565b90505b8181101561164b578061164160026108c2836108c88882611109565b9092509050611625565b50919050565b60606116a6826040518060400160405280602081526020017f5361666545524332303a206c6f772d6c6576656c2063616c6c206661696c6564815250856001600160a01b03166117029092919063ffffffff16565b80519091501561160a578080602001905160208110156116c557600080fd5b505161160a5760405162461bcd60e51b815260040180806020018281038252602a815260200180611940602a913960400191505060405180910390fd5b60606114b48484600085606061171785611879565b611768576040805162461bcd60e51b815260206004820152601d60248201527f416464726573733a2063616c6c20746f206e6f6e2d636f6e7472616374000000604482015290519081900360640190fd5b60006060866001600160a01b031685876040518082805190602001908083835b602083106117a75780518252601f199092019160209182019101611788565b6001836020036101000a03801982511681845116808217855250505050505090500191505060006040518083038185875af1925050503d8060008114611809576040519150601f19603f3d011682016040523d82523d6000602084013e61180e565b606091505b509150915081156118225791506114b49050565b8051156118325780518082602001fd5b60405162461bcd60e51b81526020600482018181528651602484015286518793919283926044019190850190808383600083156115105781810151838201526020016114f8565b3b151590565b604080516101008101909152806000815260200160006001600160a01b031681526020016000815260200160008152602001600081526020016000815260200160008152602001600060028111156118d357fe5b90529056fe4f776e61626c653a206e6577206f776e657220697320746865207a65726f2061646472657373536166654d6174683a206d756c7469706c69636174696f6e206f766572666c6f774f776e61626c653a2063616c6c6572206973206e6f7420746865206f776e65725361666545524332303a204552433230206f7065726174696f6e20646964206e6f742073756363656564496d706c696564566f6c52617465206c696d697420697320746f6f20736d616c6c4f6e6c7920616374697665206f7074696f6e20636f756c64206265207472616e73666572726564a2646970667358221220752bddfd3780efa10eb57b8ef09e74500c4d569d332a2436507f190bb6adcc9d64736f6c634300060c0033",
  "linkReferences": {},
  "deployedLinkReferences": {}
}