{
  "_format": "hh-sol-artifact-1",
  "contractName": "HegicERC20OptionsNFT",
  "sourceName": "contracts/HegicERC20Options_NFT.sol",
  "abi": [
    {
      "inputs": [
        {
          "internalType": "contract IHegicOptions",
          "name": "_optionsProvider",
          "type": "address"
        },
        {
          "internalType": "contract IERC20",
          "name": "_underlyingToken",
          "type": "address"
        },
        {
          "internalType": "string",
          "name": "_name",
          "type": "string"
        },
        {
          "internalType": "string",
          "name": "_symbol",
          "type": "string"
        }
      ],
      "stateMutability": "nonpayable",
      "type": "constructor"
    },
    {
      "anonymous": false,
      "inputs": [
        {
          "indexed": true,
          "internalType": "address",
          "name": "owner",
          "type": "address"
        },
        {
          "indexed": true,
          "internalType": "address",
          "name": "approved",
          "type": "address"
        },
        {
          "indexed": true,
          "internalType": "uint256",
          "name": "tokenId",
          "type": "uint256"
        }
      ],
      "name": "Approval",
      "type": "event"
    },
    {
      "anonymous": false,
      "inputs": [
        {
          "indexed": true,
          "internalType": "address",
          "name": "owner",
          "type": "address"
        },
        {
          "indexed": true,
          "internalType": "address",
          "name": "operator",
          "type": "address"
        },
        {
          "indexed": false,
          "internalType": "bool",
          "name": "approved",
          "type": "bool"
        }
      ],
      "name": "ApprovalForAll",
      "type": "event"
    },
    {
      "anonymous": false,
      "inputs": [
        {
          "indexed": true,
          "internalType": "address",
          "name": "account",
          "type": "address"
        },
        {
          "indexed": true,
          "internalType": "uint256",
          "name": "tokenId",
          "type": "uint256"
        },
        {
          "indexed": false,
          "internalType": "bool",
          "name": "burned",
          "type": "bool"
        }
      ],
      "name": "Detokenized",
      "type": "event"
    },
    {
      "anonymous": false,
      "inputs": [
        {
          "indexed": true,
          "internalType": "address",
          "name": "account",
          "type": "address"
        },
        {
          "indexed": true,
          "internalType": "uint256",
          "name": "tokenId",
          "type": "uint256"
        },
        {
          "indexed": false,
          "internalType": "uint256",
          "name": "profit",
          "type": "uint256"
        }
      ],
      "name": "Exercised",
      "type": "event"
    },
    {
      "anonymous": false,
      "inputs": [
        {
          "indexed": true,
          "internalType": "address",
          "name": "previousOwner",
          "type": "address"
        },
        {
          "indexed": true,
          "internalType": "address",
          "name": "newOwner",
          "type": "address"
        }
      ],
      "name": "OwnershipTransferred",
      "type": "event"
    },
    {
      "anonymous": false,
      "inputs": [
        {
          "indexed": true,
          "internalType": "address",
          "name": "account",
          "type": "address"
        },
        {
          "indexed": true,
          "internalType": "uint256",
          "name": "optionId",
          "type": "uint256"
        }
      ],
      "name": "Tokenized",
      "type": "event"
    },
    {
      "anonymous": false,
      "inputs": [
        {
          "indexed": true,
          "internalType": "address",
          "name": "from",
          "type": "address"
        },
        {
          "indexed": true,
          "internalType": "address",
          "name": "to",
          "type": "address"
        },
        {
          "indexed": true,
          "internalType": "uint256",
          "name": "tokenId",
          "type": "uint256"
        }
      ],
      "name": "Transfer",
      "type": "event"
    },
    {
      "inputs": [
        {
          "internalType": "address",
          "name": "to",
          "type": "address"
        },
        {
          "internalType": "uint256",
          "name": "tokenId",
          "type": "uint256"
        }
      ],
      "name": "approve",
      "outputs": [],
      "stateMutability": "nonpayable",
      "type": "function"
    },
    {
      "inputs": [
        {
          "internalType": "address",
          "name": "owner",
          "type": "address"
        }
      ],
      "name": "balanceOf",
      "outputs": [
        {
          "internalType": "uint256",
          "name": "",
          "type": "uint256"
        }
      ],
      "stateMutability": "view",
      "type": "function"
    },
    {
      "inputs": [],
      "name": "baseURI",
      "outputs": [
        {
          "internalType": "string",
          "name": "",
          "type": "string"
        }
      ],
      "stateMutability": "view",
      "type": "function"
    },
    {
      "inputs": [
        {
          "internalType": "uint256",
          "name": "_tokenId",
          "type": "uint256"
        }
      ],
      "name": "burnToken",
      "outputs": [],
      "stateMutability": "nonpayable",
      "type": "function"
    },
    {
      "inputs": [
        {
          "internalType": "uint256",
          "name": "_period",
          "type": "uint256"
        },
        {
          "internalType": "uint256",
          "name": "_amount",
          "type": "uint256"
        },
        {
          "internalType": "uint256",
          "name": "_strike",
          "type": "uint256"
        },
        {
          "internalType": "enum IHegicOptions.OptionType",
          "name": "_optionType",
          "type": "uint8"
        },
        {
          "internalType": "address",
          "name": "_to",
          "type": "address"
        }
      ],
      "name": "createOption",
      "outputs": [
        {
          "internalType": "uint256",
          "name": "newTokenId",
          "type": "uint256"
        }
      ],
      "stateMutability": "payable",
      "type": "function"
    },
    {
      "inputs": [
        {
          "internalType": "uint256",
          "name": "_tokenId",
          "type": "uint256"
        },
        {
          "internalType": "bool",
          "name": "_burnToken",
          "type": "bool"
        }
      ],
      "name": "detokenizeOption",
      "outputs": [],
      "stateMutability": "nonpayable",
      "type": "function"
    },
    {
      "inputs": [
        {
          "internalType": "uint256",
          "name": "_tokenId",
          "type": "uint256"
        }
      ],
      "name": "exerciseOption",
      "outputs": [
        {
          "internalType": "uint256",
          "name": "profit",
          "type": "uint256"
        }
      ],
      "stateMutability": "nonpayable",
      "type": "function"
    },
    {
      "inputs": [
        {
          "internalType": "uint256",
          "name": "tokenId",
          "type": "uint256"
        }
      ],
      "name": "getApproved",
      "outputs": [
        {
          "internalType": "address",
          "name": "",
          "type": "address"
        }
      ],
      "stateMutability": "view",
      "type": "function"
    },
    {
      "inputs": [
        {
          "internalType": "uint256",
          "name": "_period",
          "type": "uint256"
        },
        {
          "internalType": "uint256",
          "name": "_amount",
          "type": "uint256"
        },
        {
          "internalType": "uint256",
          "name": "_strike",
          "type": "uint256"
        },
        {
          "internalType": "enum IHegicOptions.OptionType",
          "name": "_optionType",
          "type": "uint8"
        }
      ],
      "name": "getOptionCostETH",
      "outputs": [
        {
          "internalType": "uint256",
          "name": "ethCost",
          "type": "uint256"
        }
      ],
      "stateMutability": "view",
      "type": "function"
    },
    {
      "inputs": [
        {
          "internalType": "uint256",
          "name": "_tokenId",
          "type": "uint256"
        }
      ],
      "name": "getUnderlyingOptionId",
      "outputs": [
        {
          "internalType": "uint256",
          "name": "",
          "type": "uint256"
        }
      ],
      "stateMutability": "view",
      "type": "function"
    },
    {
      "inputs": [
        {
          "internalType": "uint256",
          "name": "_tokenId",
          "type": "uint256"
        }
      ],
      "name": "getUnderlyingOptionParams",
      "outputs": [
        {
          "internalType": "enum IHegicOptions.State",
          "name": "state",
          "type": "uint8"
        },
        {
          "internalType": "address payable",
          "name": "holder",
          "type": "address"
        },
        {
          "internalType": "uint256",
          "name": "strike",
          "type": "uint256"
        },
        {
          "internalType": "uint256",
          "name": "amount",
          "type": "uint256"
        },
        {
          "internalType": "uint256",
          "name": "lockedAmount",
          "type": "uint256"
        },
        {
          "internalType": "uint256",
          "name": "premium",
          "type": "uint256"
        },
        {
          "internalType": "uint256",
          "name": "expiration",
          "type": "uint256"
        },
        {
          "internalType": "enum IHegicOptions.OptionType",
          "name": "optionType",
          "type": "uint8"
        }
      ],
      "stateMutability": "view",
      "type": "function"
    },
    {
      "inputs": [
        {
          "internalType": "uint256",
          "name": "",
          "type": "uint256"
        }
      ],
      "name": "holdingToken",
      "outputs": [
        {
          "internalType": "uint256",
          "name": "",
          "type": "uint256"
        }
      ],
      "stateMutability": "view",
      "type": "function"
    },
    {
      "inputs": [
        {
          "internalType": "address",
          "name": "owner",
          "type": "address"
        },
        {
          "internalType": "address",
          "name": "operator",
          "type": "address"
        }
      ],
      "name": "isApprovedForAll",
      "outputs": [
        {
          "internalType": "bool",
          "name": "",
          "type": "bool"
        }
      ],
      "stateMutability": "view",
      "type": "function"
    },
    {
      "inputs": [
        {
          "internalType": "uint256",
          "name": "_tokenId",
          "type": "uint256"
        }
      ],
      "name": "isValidToken",
      "outputs": [
        {
          "internalType": "bool",
          "name": "",
          "type": "bool"
        }
      ],
      "stateMutability": "view",
      "type": "function"
    },
    {
      "inputs": [],
      "name": "name",
      "outputs": [
        {
          "internalType": "string",
          "name": "",
          "type": "string"
        }
      ],
      "stateMutability": "view",
      "type": "function"
    },
    {
      "inputs": [],
      "name": "optionsProvider",
      "outputs": [
        {
          "internalType": "contract IHegicOptions",
          "name": "",
          "type": "address"
        }
      ],
      "stateMutability": "view",
      "type": "function"
    },
    {
      "inputs": [],
      "name": "owner",
      "outputs": [
        {
          "internalType": "address",
          "name": "",
          "type": "address"
        }
      ],
      "stateMutability": "view",
      "type": "function"
    },
    {
      "inputs": [
        {
          "internalType": "uint256",
          "name": "tokenId",
          "type": "uint256"
        }
      ],
      "name": "ownerOf",
      "outputs": [
        {
          "internalType": "address",
          "name": "",
          "type": "address"
        }
      ],
      "stateMutability": "view",
      "type": "function"
    },
    {
      "inputs": [],
      "name": "renounceOwnership",
      "outputs": [],
      "stateMutability": "nonpayable",
      "type": "function"
    },
    {
      "inputs": [
        {
          "internalType": "address",
          "name": "from",
          "type": "address"
        },
        {
          "internalType": "address",
          "name": "to",
          "type": "address"
        },
        {
          "internalType": "uint256",
          "name": "tokenId",
          "type": "uint256"
        }
      ],
      "name": "safeTransferFrom",
      "outputs": [],
      "stateMutability": "nonpayable",
      "type": "function"
    },
    {
      "inputs": [
        {
          "internalType": "address",
          "name": "from",
          "type": "address"
        },
        {
          "internalType": "address",
          "name": "to",
          "type": "address"
        },
        {
          "internalType": "uint256",
          "name": "tokenId",
          "type": "uint256"
        },
        {
          "internalType": "bytes",
          "name": "_data",
          "type": "bytes"
        }
      ],
      "name": "safeTransferFrom",
      "outputs": [],
      "stateMutability": "nonpayable",
      "type": "function"
    },
    {
      "inputs": [
        {
          "internalType": "address",
          "name": "operator",
          "type": "address"
        },
        {
          "internalType": "bool",
          "name": "approved",
          "type": "bool"
        }
      ],
      "name": "setApprovalForAll",
      "outputs": [],
      "stateMutability": "nonpayable",
      "type": "function"
    },
    {
      "inputs": [
        {
          "internalType": "bytes4",
          "name": "interfaceId",
          "type": "bytes4"
        }
      ],
      "name": "supportsInterface",
      "outputs": [
        {
          "internalType": "bool",
          "name": "",
          "type": "bool"
        }
      ],
      "stateMutability": "view",
      "type": "function"
    },
    {
      "inputs": [],
      "name": "symbol",
      "outputs": [
        {
          "internalType": "string",
          "name": "",
          "type": "string"
        }
      ],
      "stateMutability": "view",
      "type": "function"
    },
    {
      "inputs": [
        {
          "internalType": "uint256",
          "name": "index",
          "type": "uint256"
        }
      ],
      "name": "tokenByIndex",
      "outputs": [
        {
          "internalType": "uint256",
          "name": "",
          "type": "uint256"
        }
      ],
      "stateMutability": "view",
      "type": "function"
    },
    {
      "inputs": [
        {
          "internalType": "address",
          "name": "owner",
          "type": "address"
        },
        {
          "internalType": "uint256",
          "name": "index",
          "type": "uint256"
        }
      ],
      "name": "tokenOfOwnerByIndex",
      "outputs": [
        {
          "internalType": "uint256",
          "name": "",
          "type": "uint256"
        }
      ],
      "stateMutability": "view",
      "type": "function"
    },
    {
      "inputs": [
        {
          "internalType": "uint256",
          "name": "tokenId",
          "type": "uint256"
        }
      ],
      "name": "tokenURI",
      "outputs": [
        {
          "internalType": "string",
          "name": "",
          "type": "string"
        }
      ],
      "stateMutability": "view",
      "type": "function"
    },
    {
      "inputs": [
        {
          "internalType": "uint256",
          "name": "_optionId",
          "type": "uint256"
        },
        {
          "internalType": "address",
          "name": "_to",
          "type": "address"
        }
      ],
      "name": "tokenizeOption",
      "outputs": [
        {
          "internalType": "uint256",
          "name": "newTokenId",
          "type": "uint256"
        }
      ],
      "stateMutability": "nonpayable",
      "type": "function"
    },
    {
      "inputs": [],
      "name": "totalSupply",
      "outputs": [
        {
          "internalType": "uint256",
          "name": "",
          "type": "uint256"
        }
      ],
      "stateMutability": "view",
      "type": "function"
    },
    {
      "inputs": [
        {
          "internalType": "address",
          "name": "from",
          "type": "address"
        },
        {
          "internalType": "address",
          "name": "to",
          "type": "address"
        },
        {
          "internalType": "uint256",
          "name": "tokenId",
          "type": "uint256"
        }
      ],
      "name": "transferFrom",
      "outputs": [],
      "stateMutability": "nonpayable",
      "type": "function"
    },
    {
      "inputs": [
        {
          "internalType": "address",
          "name": "newOwner",
          "type": "address"
        }
      ],
      "name": "transferOwnership",
      "outputs": [],
      "stateMutability": "nonpayable",
      "type": "function"
    },
    {
      "inputs": [
        {
          "internalType": "uint256",
          "name": "",
          "type": "uint256"
        }
      ],
      "name": "underlyingOptionId",
      "outputs": [
        {
          "internalType": "uint256",
          "name": "",
          "type": "uint256"
        }
      ],
      "stateMutability": "view",
      "type": "function"
    },
    {
      "inputs": [],
      "name": "underlyingToken",
      "outputs": [
        {
          "internalType": "contract IERC20",
          "name": "",
          "type": "address"
        }
      ],
      "stateMutability": "view",
      "type": "function"
    }
  ],
  "bytecode": "0x60806040523480156200001157600080fd5b506040516200342d3803806200342d833981810160405260808110156200003757600080fd5b815160208301516040808501805191519395929483019291846401000000008211156200006357600080fd5b9083019060208201858111156200007957600080fd5b82516401000000008111828201881017156200009457600080fd5b82525081516020918201929091019080838360005b83811015620000c3578181015183820152602001620000a9565b50505050905090810190601f168015620000f15780820380516001836020036101000a031916815260200191505b50604052602001805160405193929190846401000000008211156200011557600080fd5b9083019060208201858111156200012b57600080fd5b82516401000000008111828201881017156200014657600080fd5b82525081516020918201929091019080838360005b83811015620001755781810151838201526020016200015b565b50505050905090810190601f168015620001a35780820380516001836020036101000a031916815260200191505b50604052508391508290508181620001c26301ffc9a760e01b620002bc565b8151620001d790600690602085019062000345565b508051620001ed90600790602084019062000345565b50620002006380ac58cd60e01b620002bc565b62000212635b5e139f60e01b620002bc565b6200022463780e9d6360e01b620002bc565b50600090506200023362000341565b600a80546001600160a01b0319166001600160a01b038316908117909155604051919250906000907f8be0079c531659141344cd1fd0a4f28419497f9722a3daafe3b4186f6b6457e0908290a35050600c80546001600160a01b039687166001600160a01b031991821617909155601080549590961694169390931790935550620003e1915050565b6001600160e01b031980821614156200031c576040805162461bcd60e51b815260206004820152601c60248201527f4552433136353a20696e76616c696420696e7465726661636520696400000000604482015290519081900360640190fd5b6001600160e01b0319166000908152602081905260409020805460ff19166001179055565b3390565b828054600181600116156101000203166002900490600052602060002090601f016020900481019282601f106200038857805160ff1916838001178555620003b8565b82800160010185558215620003b8579182015b82811115620003b85782518255916020019190600101906200039b565b50620003c6929150620003ca565b5090565b5b80821115620003c65760008155600101620003cb565b61303c80620003f16000396000f3fe6080604052600436106101ee5760003560e01c806384d8a3bb1161010d578063abb8b3f9116100a0578063cdb9d3181161006f578063cdb9d318146107fc578063e2481b3a14610826578063e985e9c5146108b6578063f2fde38b146108f1578063f52f252614610924576101ee565b8063abb8b3f9146106b1578063b88d4fde146106ea578063b9925f19146107bd578063c87b56dd146107d2576101ee565b8063921c9dde116100dc578063921c9dde146105f857806394e2c1de1461062257806395d89b4114610661578063a22cb46514610676576101ee565b806384d8a3bb1461055d578063860fc78b1461058f5780638bb6406c146105b95780638da5cb5b146105e3576101ee565b806342842e0e116101855780636c0360eb116101545780636c0360eb146104d657806370a08231146104eb578063715018a61461051e5780637b47ec1a14610533576101ee565b806342842e0e146103fe5780634eafd3ff146104415780634f6ccce7146104825780636352211e146104ac576101ee565b806318160ddd116101c157806318160ddd1461034657806323b872dd1461036d5780632495a599146103b05780632f745c59146103c5576101ee565b806301ffc9a7146101f357806306fdde031461023b578063081812fc146102c5578063095ea7b31461030b575b600080fd5b3480156101ff57600080fd5b506102276004803603602081101561021657600080fd5b50356001600160e01b03191661094e565b604080519115158252519081900360200190f35b34801561024757600080fd5b50610250610971565b6040805160208082528351818301528351919283929083019185019080838360005b8381101561028a578181015183820152602001610272565b50505050905090810190601f1680156102b75780820380516001836020036101000a031916815260200191505b509250505060405180910390f35b3480156102d157600080fd5b506102ef600480360360208110156102e857600080fd5b5035610a07565b604080516001600160a01b039092168252519081900360200190f35b34801561031757600080fd5b506103446004803603604081101561032e57600080fd5b506001600160a01b038135169060200135610a69565b005b34801561035257600080fd5b5061035b610b44565b60408051918252519081900360200190f35b34801561037957600080fd5b506103446004803603606081101561039057600080fd5b506001600160a01b03813581169160208101359091169060400135610b55565b3480156103bc57600080fd5b506102ef610bac565b3480156103d157600080fd5b5061035b600480360360408110156103e857600080fd5b506001600160a01b038135169060200135610bbb565b34801561040a57600080fd5b506103446004803603606081101561042157600080fd5b506001600160a01b03813581169160208101359091169060400135610be6565b61035b600480360360a081101561045757600080fd5b50803590602081013590604081013590606081013560ff1690608001356001600160a01b0316610c01565b34801561048e57600080fd5b5061035b600480360360208110156104a557600080fd5b5035610cd0565b3480156104b857600080fd5b506102ef600480360360208110156104cf57600080fd5b5035610ce6565b3480156104e257600080fd5b50610250610d0e565b3480156104f757600080fd5b5061035b6004803603602081101561050e57600080fd5b50356001600160a01b0316610d6f565b34801561052a57600080fd5b50610344610dd7565b34801561053f57600080fd5b506103446004803603602081101561055657600080fd5b5035610e8b565b34801561056957600080fd5b506103446004803603604081101561058057600080fd5b50803590602001351515610f83565b34801561059b57600080fd5b50610227600480360360208110156105b257600080fd5b5035611152565b3480156105c557600080fd5b5061035b600480360360208110156105dc57600080fd5b503561117a565b3480156105ef57600080fd5b506102ef61118c565b34801561060457600080fd5b5061035b6004803603602081101561061b57600080fd5b503561119b565b34801561062e57600080fd5b5061035b6004803603608081101561064557600080fd5b508035906020810135906040810135906060013560ff166111ad565b34801561066d57600080fd5b50610250611258565b34801561068257600080fd5b506103446004803603604081101561069957600080fd5b506001600160a01b03813516906020013515156112b9565b3480156106bd57600080fd5b5061035b600480360360408110156106d457600080fd5b50803590602001356001600160a01b03166113be565b3480156106f657600080fd5b506103446004803603608081101561070d57600080fd5b6001600160a01b0382358116926020810135909116916040820135919081019060808101606082013564010000000081111561074857600080fd5b82018360208201111561075a57600080fd5b8035906020019184600183028401116401000000008311171561077c57600080fd5b91908080601f016020809104026020016040519081016040528093929190818152602001838380828437600092019190915250929550611500945050505050565b3480156107c957600080fd5b506102ef611558565b3480156107de57600080fd5b50610250600480360360208110156107f557600080fd5b5035611567565b34801561080857600080fd5b5061035b6004803603602081101561081f57600080fd5b503561180e565b34801561083257600080fd5b506108506004803603602081101561084957600080fd5b5035611820565b6040518089600381111561086057fe5b8152602001886001600160a01b0316815260200187815260200186815260200185815260200184815260200183815260200182600281111561089e57fe5b81526020019850505050505050505060405180910390f35b3480156108c257600080fd5b50610227600480360360408110156108d957600080fd5b506001600160a01b0381358116916020013516611946565b3480156108fd57600080fd5b506103446004803603602081101561091457600080fd5b50356001600160a01b0316611974565b34801561093057600080fd5b5061035b6004803603602081101561094757600080fd5b5035611a7f565b6001600160e01b0319811660009081526020819052604090205460ff165b919050565b60068054604080516020601f60026000196101006001881615020190951694909404938401819004810282018101909252828152606093909290918301828280156109fd5780601f106109d2576101008083540402835291602001916109fd565b820191906000526020600020905b8154815290600101906020018083116109e057829003601f168201915b5050505050905090565b6000610a1282611b8a565b610a4d5760405162461bcd60e51b815260040180806020018281038252602c815260200180612ee6602c913960400191505060405180910390fd5b506000908152600460205260409020546001600160a01b031690565b6000610a7482610ce6565b9050806001600160a01b0316836001600160a01b03161415610ac75760405162461bcd60e51b8152600401808060200182810382526021815260200180612f8b6021913960400191505060405180910390fd5b806001600160a01b0316610ad9611b97565b6001600160a01b03161480610afa5750610afa81610af5611b97565b611946565b610b355760405162461bcd60e51b8152600401808060200182810382526038815260200180612e396038913960400191505060405180910390fd5b610b3f8383611b9b565b505050565b6000610b506002611c09565b905090565b610b66610b60611b97565b82611c14565b610ba15760405162461bcd60e51b8152600401808060200182810382526031815260200180612fac6031913960400191505060405180910390fd5b610b3f838383611cb0565b6010546001600160a01b031681565b6001600160a01b0382166000908152600160205260408120610bdd9083611dfc565b90505b92915050565b610b3f83838360405180602001604052806000815250611500565b600080600c60009054906101000a90046001600160a01b03166001600160a01b03166380478ad134898989896040518663ffffffff1660e01b815260040180858152602001848152602001838152602001826002811115610c5e57fe5b81526020019450505050506020604051808303818588803b158015610c8257600080fd5b505af1158015610c96573d6000803e3d6000fd5b50505050506040513d6020811015610cad57600080fd5b50519050610cba33611e08565b50610cc58184611e99565b979650505050505050565b600080610cde600284611fc9565b509392505050565b6000610be082604051806060016040528060298152602001612e9b6029913960029190611fe5565b60098054604080516020601f60026000196101006001881615020190951694909404938401819004810282018101909252828152606093909290918301828280156109fd5780601f106109d2576101008083540402835291602001916109fd565b60006001600160a01b038216610db65760405162461bcd60e51b815260040180806020018281038252602a815260200180612e71602a913960400191505060405180910390fd5b6001600160a01b0382166000908152600160205260409020610be090611c09565b610ddf611b97565b600a546001600160a01b03908116911614610e41576040805162461bcd60e51b815260206004820181905260248201527f4f776e61626c653a2063616c6c6572206973206e6f7420746865206f776e6572604482015290519081900360640190fd5b600a546040516000916001600160a01b0316907f8be0079c531659141344cd1fd0a4f28419497f9722a3daafe3b4186f6b6457e0908390a3600a80546001600160a01b0319169055565b80610e963382611c14565b610ed15760405162461bcd60e51b8152600401808060200182810382526021815260200180612f126021913960400191505060405180910390fd5b600080610edd84611820565b5096505050505050915060016003811115610ef457fe5b826003811115610f0057fe5b1480610f0b57504281115b15610f74576000848152600f602052604090205460ff1615610f74576040805162461bcd60e51b815260206004820152601860248201527f484f4e46542f63616e6e6f742d6275726e2d6f7074696f6e0000000000000000604482015290519081900360640190fd5b610f7d84611ffc565b50505050565b81610f8e3382611c14565b610fc95760405162461bcd60e51b8152600401808060200182810382526021815260200180612f126021913960400191505060405180910390fd5b610fd2836120c9565b61100d5760405162461bcd60e51b8152600401808060200182810382526022815260200180612e176022913960400191505060405180910390fd5b60008061101985611820565b509650505050505091506001600381111561103057fe5b82600381111561103c57fe5b148061104757504281115b156110d857600c546000868152600d60205260409020546001600160a01b039091169063b7760c8f9061107988610ce6565b6040518363ffffffff1660e01b815260040180838152602001826001600160a01b0316815260200192505050600060405180830381600087803b1580156110bf57600080fd5b505af11580156110d3573d6000803e3d6000fd5b505050505b6000858152600f60209081526040808320805460ff19169055600d8252808320548352600e90915281205583156111125761111285611ffc565b6040805185151581529051869133917f348784e52e2f0924133eea20288cd00c93de812ec7816830f0ac7a9ba34cc4fb9181900360200190a35050505050565b60008061115e83611820565b5050506001600160a01b03909316301495505050505050919050565b600e6020526000908152604090205481565b600a546001600160a01b031690565b600d6020526000908152604090205481565b600c5460405163c7c3b53f60e01b81526004810186815260248201869052604482018590526000926001600160a01b03169163c7c3b53f918891889188918891906064018260028111156111fd57fe5b815260200194505050505060a06040518083038186803b15801561122057600080fd5b505afa158015611234573d6000803e3d6000fd5b505050506040513d60a081101561124a57600080fd5b506020015195945050505050565b60078054604080516020601f60026000196101006001881615020190951694909404938401819004810282018101909252828152606093909290918301828280156109fd5780601f106109d2576101008083540402835291602001916109fd565b6112c1611b97565b6001600160a01b0316826001600160a01b03161415611327576040805162461bcd60e51b815260206004820152601960248201527f4552433732313a20617070726f766520746f2063616c6c657200000000000000604482015290519081900360640190fd5b8060056000611334611b97565b6001600160a01b03908116825260208083019390935260409182016000908120918716808252919093529120805460ff191692151592909217909155611378611b97565b6001600160a01b03167f17307eab39ab6107e8899845ad3d59bd9653f200f220920489ca2b5937696c318360405180821515815260200191505060405180910390a35050565b600c546040805163409e220560e01b815260048101859052905160009283926001600160a01b039091169163409e22059160248082019261010092909190829003018186803b15801561141057600080fd5b505afa158015611424573d6000803e3d6000fd5b505050506040513d61010081101561143b57600080fd5b506020015190506001600160a01b03811630141561149a576040805162461bcd60e51b81526020600482015260176024820152761213d391950bd85b1c9958591e4b5d1bdad95b9a5e9959604a1b604482015290519081900360640190fd5b6001600160a01b03811633146114ee576040805162461bcd60e51b81526020600482015260146024820152732427a7232a17b4b73b30b634b216b437b63232b960611b604482015290519081900360640190fd5b6114f88484611e99565b949350505050565b61151161150b611b97565b83611c14565b61154c5760405162461bcd60e51b8152600401808060200182810382526031815260200180612fac6031913960400191505060405180910390fd5b610f7d848484846121a5565b600c546001600160a01b031681565b606061157282611b8a565b6115ad5760405162461bcd60e51b815260040180806020018281038252602f815260200180612f5c602f913960400191505060405180910390fd5b60008281526008602090815260409182902080548351601f60026000196101006001861615020190931692909204918201849004840281018401909452808452606093928301828280156116425780601f1061161757610100808354040283529160200191611642565b820191906000526020600020905b81548152906001019060200180831161162557829003601f168201915b50506009549394505050506002600019610100600184161502019091160461166b57905061096c565b80511561173c5760098160405160200180838054600181600116156101000203166002900480156116d35780601f106116b15761010080835404028352918201916116d3565b820191906000526020600020905b8154815290600101906020018083116116bf575b5050825160208401908083835b602083106116ff5780518252601f1990920191602091820191016116e0565b6001836020036101000a0380198251168184511680821785525050505050509050019250505060405160208183030381529060405291505061096c565b6009611747846121f7565b60405160200180838054600181600116156101000203166002900480156117a55780601f106117835761010080835404028352918201916117a5565b820191906000526020600020905b815481529060010190602001808311611791575b5050825160208401908083835b602083106117d15780518252601f1990920191602091820191016117b2565b6001836020036101000a03801982511681845116808217855250505050505090500192505050604051602081830303815290604052915050919050565b6000908152600d602052604090205490565b600080600080600080600080600c60009054906101000a90046001600160a01b03166001600160a01b031663409e2205600d60008c8152602001908152602001600020546040518263ffffffff1660e01b8152600401808281526020019150506101006040518083038186803b15801561189957600080fd5b505afa1580156118ad573d6000803e3d6000fd5b505050506040513d6101008110156118c457600080fd5b810190808051906020019092919080519060200190929190805190602001909291908051906020019092919080519060200190929190805190602001909291908051906020019092919080519060200190929190505050809850819950829a50839b50849c50859d50869e50879f505050505050505050919395975091939597565b6001600160a01b03918216600090815260056020908152604080832093909416825291909152205460ff1690565b61197c611b97565b600a546001600160a01b039081169116146119de576040805162461bcd60e51b815260206004820181905260248201527f4f776e61626c653a2063616c6c6572206973206e6f7420746865206f776e6572604482015290519081900360640190fd5b6001600160a01b038116611a235760405162461bcd60e51b8152600401808060200182810382526026815260200180612da16026913960400191505060405180910390fd5b600a546040516001600160a01b038084169216907f8be0079c531659141344cd1fd0a4f28419497f9722a3daafe3b4186f6b6457e090600090a3600a80546001600160a01b0319166001600160a01b0392909216919091179055565b600081611a8c3382611c14565b611ac75760405162461bcd60e51b8152600401808060200182810382526021815260200180612f126021913960400191505060405180910390fd5b600c546000848152600d602052604080822054815163b07f0a4160e01b8152600481019190915290516001600160a01b039093169263b07f0a419260248084019391929182900301818387803b158015611b2057600080fd5b505af1158015611b34573d6000803e3d6000fd5b50505050611b49611b4484610ce6565b611e08565b604080518281529051919350849133917fac58150721d2aba094a1ef6101fc1fa5cc087a32ba8204364468d6fa70d6a359919081900360200190a350919050565b6000610be06002836122d2565b3390565b600081815260046020526040902080546001600160a01b0319166001600160a01b0384169081179091558190611bd082610ce6565b6001600160a01b03167f8c5be1e5ebec7d5bd14f71427d1e84f3dd0314c0f7b2291e5b200ac8c7c3b92560405160405180910390a45050565b6000610be0826122de565b6000611c1f82611b8a565b611c5a5760405162461bcd60e51b815260040180806020018281038252602c815260200180612deb602c913960400191505060405180910390fd5b6000611c6583610ce6565b9050806001600160a01b0316846001600160a01b03161480611ca05750836001600160a01b0316611c9584610a07565b6001600160a01b0316145b806114f857506114f88185611946565b826001600160a01b0316611cc382610ce6565b6001600160a01b031614611d085760405162461bcd60e51b8152600401808060200182810382526029815260200180612f336029913960400191505060405180910390fd5b6001600160a01b038216611d4d5760405162461bcd60e51b8152600401808060200182810382526024815260200180612dc76024913960400191505060405180910390fd5b611d588383836122e2565b611d63600082611b9b565b6001600160a01b0383166000908152600160205260409020611d859082612357565b506001600160a01b0382166000908152600160205260409020611da89082612363565b50611db56002828461236f565b5080826001600160a01b0316846001600160a01b03167fddf252ad1be2c89b69c2b068fc378daa952ba7f163c4a11628f55a4df523b3ef60405160405180910390a4505050565b6000610bdd8383612385565b601054604080516370a0823160e01b815230600482015290516000926001600160a01b0316916370a08231916024808301926020929190829003018186803b158015611e5357600080fd5b505afa158015611e67573d6000803e3d6000fd5b505050506040513d6020811015611e7d57600080fd5b505160105490915061096c906001600160a01b031683836123e9565b6000611ea5600b61243b565b611eaf600b6122de565b6000818152600d60209081526040808320879055868352600e90915290205490915015611f72576000838152600e6020526040812054611eee90611820565b505050505050915050306001600160a01b0316816001600160a01b03161415611f58576040805162461bcd60e51b81526020600482015260176024820152761213d391950bd85b1c9958591e4b5d1bdad95b9a5e9959604a1b604482015290519081900360640190fd5b6000848152600e6020526040902054611f7090611ffc565b505b6000838152600e60205260409020819055611f8d8282612444565b60405183906001600160a01b038416907f59ebbb6d5831589f511e0478565d869eff6d1b14ea42cb164054c3ee78ac751390600090a392915050565b6000808080611fd88686612572565b9097909650945050505050565b6000611ff28484846125ed565b90505b9392505050565b600061200782610ce6565b9050612015816000846122e2565b612020600083611b9b565b600082815260086020526040902054600260001961010060018416150201909116041561205e57600082815260086020526040812061205e91612cec565b6001600160a01b03811660009081526001602052604090206120809083612357565b5061208c6002836126b7565b5060405182906000906001600160a01b038416907fddf252ad1be2c89b69c2b068fc378daa952ba7f163c4a11628f55a4df523b3ef908390a45050565b6000818152600f602052604081205460ff1661219d57600c546000838152600d602052604080822054815163409e220560e01b81526004810191909152905191926001600160a01b03169163409e22059160248082019261010092909190829003018186803b15801561213b57600080fd5b505afa15801561214f573d6000803e3d6000fd5b505050506040513d61010081101561216657600080fd5b506020908101516000858152600f9092526040909120805460ff19166001600160a01b0390921630149182179055915061096c9050565b506001919050565b6121b0848484611cb0565b6121bc848484846126c3565b610f7d5760405162461bcd60e51b8152600401808060200182810382526032815260200180612d6f6032913960400191505060405180910390fd5b60608161221c57506040805180820190915260018152600360fc1b602082015261096c565b8160005b811561223457600101600a82049150612220565b60608167ffffffffffffffff8111801561224d57600080fd5b506040519080825280601f01601f191660200182016040528015612278576020820181803683370190505b50859350905060001982015b83156122c957600a840660300160f81b828280600190039350815181106122a757fe5b60200101906001600160f81b031916908160001a905350600a84049350612284565b50949350505050565b6000610bdd838361282b565b5490565b6122eb816120c9565b806122fd57506001600160a01b038316155b8061230f57506001600160a01b038216155b610b3f576040805162461bcd60e51b81526020600482015260146024820152732427a7232a17b4b73b30b634b216b437b63232b960611b604482015290519081900360640190fd5b6000610bdd8383612843565b6000610bdd8383612909565b6000611ff284846001600160a01b038516612953565b815460009082106123c75760405162461bcd60e51b8152600401808060200182810382526022815260200180612d4d6022913960400191505060405180910390fd5b8260000182815481106123d657fe5b9060005260206000200154905092915050565b604080516001600160a01b038416602482015260448082018490528251808303909101815260649091019091526020810180516001600160e01b031663a9059cbb60e01b179052610b3f9084906129ea565b80546001019055565b6001600160a01b03821661249f576040805162461bcd60e51b815260206004820181905260248201527f4552433732313a206d696e7420746f20746865207a65726f2061646472657373604482015290519081900360640190fd5b6124a881611b8a565b156124fa576040805162461bcd60e51b815260206004820152601c60248201527f4552433732313a20746f6b656e20616c7265616479206d696e74656400000000604482015290519081900360640190fd5b612506600083836122e2565b6001600160a01b03821660009081526001602052604090206125289082612363565b506125356002828461236f565b5060405181906001600160a01b038416906000907fddf252ad1be2c89b69c2b068fc378daa952ba7f163c4a11628f55a4df523b3ef908290a45050565b8154600090819083106125b65760405162461bcd60e51b8152600401808060200182810382526022815260200180612ec46022913960400191505060405180910390fd5b60008460000184815481106125c757fe5b906000526020600020906002020190508060000154816001015492509250509250929050565b600082815260018401602052604081205482816126885760405162461bcd60e51b81526004018080602001828103825283818151815260200191508051906020019080838360005b8381101561264d578181015183820152602001612635565b50505050905090810190601f16801561267a5780820380516001836020036101000a031916815260200191505b509250505060405180910390fd5b5084600001600182038154811061269b57fe5b9060005260206000209060020201600101549150509392505050565b6000610bdd8383612a9b565b60006126d7846001600160a01b0316612b6f565b6126e3575060016114f8565b60606127f1630a85bd0160e11b6126f8611b97565b88878760405160240180856001600160a01b03168152602001846001600160a01b0316815260200183815260200180602001828103825283818151815260200191508051906020019080838360005b8381101561275f578181015183820152602001612747565b50505050905090810190601f16801561278c5780820380516001836020036101000a031916815260200191505b5095505050505050604051602081830303815290604052906001600160e01b0319166020820180516001600160e01b038381831617835250505050604051806060016040528060328152602001612d6f603291396001600160a01b0388169190612b75565b9050600081806020019051602081101561280a57600080fd5b50516001600160e01b031916630a85bd0160e11b1492505050949350505050565b60009081526001919091016020526040902054151590565b600081815260018301602052604081205480156128ff578354600019808301919081019060009087908390811061287657fe5b906000526020600020015490508087600001848154811061289357fe5b6000918252602080832090910192909255828152600189810190925260409020908401905586548790806128c357fe5b60019003818190600052602060002001600090559055866001016000878152602001908152602001600020600090556001945050505050610be0565b6000915050610be0565b6000612915838361282b565b61294b57508154600181810184556000848152602080822090930184905584548482528286019093526040902091909155610be0565b506000610be0565b6000828152600184016020526040812054806129b8575050604080518082018252838152602080820184815286546001818101895560008981528481209551600290930290950191825591519082015586548684528188019092529290912055611ff5565b828560000160018303815481106129cb57fe5b9060005260206000209060020201600101819055506000915050611ff5565b6060612a3f826040518060400160405280602081526020017f5361666545524332303a206c6f772d6c6576656c2063616c6c206661696c6564815250856001600160a01b0316612b759092919063ffffffff16565b805190915015610b3f57808060200190516020811015612a5e57600080fd5b5051610b3f5760405162461bcd60e51b815260040180806020018281038252602a815260200180612fdd602a913960400191505060405180910390fd5b600081815260018301602052604081205480156128ff5783546000198083019190810190600090879083908110612ace57fe5b9060005260206000209060020201905080876000018481548110612aee57fe5b600091825260208083208454600290930201918255600193840154918401919091558354825289830190526040902090840190558654879080612b2d57fe5b6000828152602080822060026000199094019384020182815560019081018390559290935588815289820190925260408220919091559450610be09350505050565b3b151590565b6060611ff284846000856060612b8a85612b6f565b612bdb576040805162461bcd60e51b815260206004820152601d60248201527f416464726573733a2063616c6c20746f206e6f6e2d636f6e7472616374000000604482015290519081900360640190fd5b60006060866001600160a01b031685876040518082805190602001908083835b60208310612c1a5780518252601f199092019160209182019101612bfb565b6001836020036101000a03801982511681845116808217855250505050505090500191505060006040518083038185875af1925050503d8060008114612c7c576040519150601f19603f3d011682016040523d82523d6000602084013e612c81565b606091505b50915091508115612c955791506114f89050565b805115612ca55780518082602001fd5b60405162461bcd60e51b815260206004820181815286516024840152865187939192839260440191908501908083836000831561264d578181015183820152602001612635565b50805460018160011615610100020316600290046000825580601f10612d125750612d30565b601f016020900490600052602060002090810190612d309190612d33565b50565b5b80821115612d485760008155600101612d34565b509056fe456e756d657261626c655365743a20696e646578206f7574206f6620626f756e64734552433732313a207472616e7366657220746f206e6f6e20455243373231526563656976657220696d706c656d656e7465724f776e61626c653a206e6577206f776e657220697320746865207a65726f20616464726573734552433732313a207472616e7366657220746f20746865207a65726f20616464726573734552433732313a206f70657261746f7220717565727920666f72206e6f6e6578697374656e7420746f6b656e484f4e46542f6f7074696f6e2d6e6f742d6f776e65642d62792d636f6e74726163744552433732313a20617070726f76652063616c6c6572206973206e6f74206f776e6572206e6f7220617070726f76656420666f7220616c6c4552433732313a2062616c616e636520717565727920666f7220746865207a65726f20616464726573734552433732313a206f776e657220717565727920666f72206e6f6e6578697374656e7420746f6b656e456e756d657261626c654d61703a20696e646578206f7574206f6620626f756e64734552433732313a20617070726f76656420717565727920666f72206e6f6e6578697374656e7420746f6b656e484f4e46542f6e6f742d746f6b656e2d6f776e65722d6f722d617070726f7665644552433732313a207472616e73666572206f6620746f6b656e2074686174206973206e6f74206f776e4552433732314d657461646174613a2055524920717565727920666f72206e6f6e6578697374656e7420746f6b656e4552433732313a20617070726f76616c20746f2063757272656e74206f776e65724552433732313a207472616e736665722063616c6c6572206973206e6f74206f776e6572206e6f7220617070726f7665645361666545524332303a204552433230206f7065726174696f6e20646964206e6f742073756363656564a2646970667358221220d46ea8c753f8ef39f27ebb55c5ad3ec73223595273af805f91b1205948de57cb64736f6c634300060c0033",
  "linkReferences": {},
  "deployedLinkReferences": {}
}