{
  "abi": [
    {
      "inputs": [
        {
          "internalType": "contract IHegicNFT",
          "name": "_ethNft",
          "type": "address"
        },
        {
          "internalType": "contract IPriceProvider",
          "name": "_priceProvider",
          "type": "address"
        }
      ],
      "stateMutability": "nonpayable",
      "type": "constructor"
    },
    {
      "anonymous": false,
      "inputs": [
        {
          "indexed": false,
          "internalType": "address",
          "name": "_to",
          "type": "address"
        },
        {
          "indexed": false,
          "internalType": "address",
          "name": "token",
          "type": "address"
        },
        {
          "indexed": false,
          "internalType": "uint256",
          "name": "amount",
          "type": "uint256"
        }
      ],
      "name": "DustSent",
      "type": "event"
    },
    {
      "anonymous": false,
      "inputs": [],
      "name": "GovernorAccepted",
      "type": "event"
    },
    {
      "anonymous": false,
      "inputs": [
        {
          "indexed": false,
          "internalType": "address",
          "name": "keeper",
          "type": "address"
        }
      ],
      "name": "KeeperSet",
      "type": "event"
    },
    {
      "anonymous": false,
      "inputs": [
        {
          "indexed": false,
          "internalType": "address",
          "name": "pendingGovernor",
          "type": "address"
        }
      ],
      "name": "PendingGovernorSet",
      "type": "event"
    },
    {
      "anonymous": false,
      "inputs": [
        {
          "indexed": false,
          "internalType": "uint256",
          "name": "trackedTokenId",
          "type": "uint256"
        }
      ],
      "name": "TokenTracked",
      "type": "event"
    },
    {
      "anonymous": false,
      "inputs": [
        {
          "indexed": false,
          "internalType": "uint256",
          "name": "trackedTokenId",
          "type": "uint256"
        }
      ],
      "name": "TokenUntracked",
      "type": "event"
    },
    {
      "anonymous": false,
      "inputs": [
        {
          "indexed": false,
          "internalType": "uint256",
          "name": "trackedTokenId",
          "type": "uint256"
        },
        {
          "indexed": false,
          "internalType": "uint256",
          "name": "grossProfit",
          "type": "uint256"
        }
      ],
      "name": "TrackedTokenExercised",
      "type": "event"
    },
    {
      "anonymous": false,
      "inputs": [
        {
          "indexed": false,
          "internalType": "uint256",
          "name": "workFee",
          "type": "uint256"
        }
      ],
      "name": "WorkFeeSet",
      "type": "event"
    },
    {
      "inputs": [],
      "name": "ETH_ADDRESS",
      "outputs": [
        {
          "internalType": "address",
          "name": "",
          "type": "address"
        }
      ],
      "stateMutability": "view",
      "type": "function"
    },
    {
      "inputs": [],
      "name": "FEE_MAX",
      "outputs": [
        {
          "internalType": "uint256",
          "name": "",
          "type": "uint256"
        }
      ],
      "stateMutability": "view",
      "type": "function"
    },
    {
      "inputs": [],
      "name": "acceptGovernor",
      "outputs": [],
      "stateMutability": "nonpayable",
      "type": "function"
    },
    {
      "inputs": [],
      "name": "ethNft",
      "outputs": [
        {
          "internalType": "contract IHegicNFT",
          "name": "",
          "type": "address"
        }
      ],
      "stateMutability": "view",
      "type": "function"
    },
    {
      "inputs": [
        {
          "internalType": "uint256",
          "name": "trackedTokenId",
          "type": "uint256"
        }
      ],
      "name": "exercisable",
      "outputs": [
        {
          "internalType": "bool",
          "name": "",
          "type": "bool"
        }
      ],
      "stateMutability": "view",
      "type": "function"
    },
    {
      "inputs": [
        {
          "internalType": "uint256",
          "name": "trackedTokenId",
          "type": "uint256"
        }
      ],
      "name": "exercise",
      "outputs": [
        {
          "internalType": "address",
          "name": "",
          "type": "address"
        },
        {
          "internalType": "uint256",
          "name": "",
          "type": "uint256"
        }
      ],
      "stateMutability": "nonpayable",
      "type": "function"
    },
    {
      "inputs": [],
      "name": "governor",
      "outputs": [
        {
          "internalType": "address",
          "name": "",
          "type": "address"
        }
      ],
      "stateMutability": "view",
      "type": "function"
    },
    {
      "inputs": [],
      "name": "keeper",
      "outputs": [
        {
          "internalType": "address",
          "name": "",
          "type": "address"
        }
      ],
      "stateMutability": "view",
      "type": "function"
    },
    {
      "inputs": [
        {
          "internalType": "address",
          "name": "",
          "type": "address"
        },
        {
          "internalType": "address",
          "name": "",
          "type": "address"
        },
        {
          "internalType": "uint256",
          "name": "",
          "type": "uint256"
        },
        {
          "internalType": "bytes",
          "name": "",
          "type": "bytes"
        }
      ],
      "name": "onERC721Received",
      "outputs": [
        {
          "internalType": "bytes4",
          "name": "",
          "type": "bytes4"
        }
      ],
      "stateMutability": "nonpayable",
      "type": "function"
    },
    {
      "inputs": [],
      "name": "pendingGovernor",
      "outputs": [
        {
          "internalType": "address",
          "name": "",
          "type": "address"
        }
      ],
      "stateMutability": "view",
      "type": "function"
    },
    {
      "inputs": [],
      "name": "priceProvider",
      "outputs": [
        {
          "internalType": "contract IPriceProvider",
          "name": "",
          "type": "address"
        }
      ],
      "stateMutability": "view",
      "type": "function"
    },
    {
      "inputs": [
        {
          "internalType": "address",
          "name": "_to",
          "type": "address"
        },
        {
          "internalType": "address",
          "name": "_token",
          "type": "address"
        },
        {
          "internalType": "uint256",
          "name": "_amount",
          "type": "uint256"
        }
      ],
      "name": "sendDust",
      "outputs": [],
      "stateMutability": "nonpayable",
      "type": "function"
    },
    {
      "inputs": [
        {
          "internalType": "address",
          "name": "_keeper",
          "type": "address"
        }
      ],
      "name": "setKeeper",
      "outputs": [],
      "stateMutability": "nonpayable",
      "type": "function"
    },
    {
      "inputs": [
        {
          "internalType": "address",
          "name": "_pendingGovernor",
          "type": "address"
        }
      ],
      "name": "setPendingGovernor",
      "outputs": [],
      "stateMutability": "nonpayable",
      "type": "function"
    },
    {
      "inputs": [
        {
          "internalType": "uint256",
          "name": "_workFee",
          "type": "uint256"
        }
      ],
      "name": "setWorkFee",
      "outputs": [],
      "stateMutability": "nonpayable",
      "type": "function"
    },
    {
      "inputs": [
        {
          "internalType": "uint256",
          "name": "tokenId",
          "type": "uint256"
        },
        {
          "internalType": "uint256",
          "name": "priceTarget",
          "type": "uint256"
        }
      ],
      "name": "track",
      "outputs": [
        {
          "internalType": "uint256",
          "name": "trackedTokenId",
          "type": "uint256"
        }
      ],
      "stateMutability": "nonpayable",
      "type": "function"
    },
    {
      "inputs": [
        {
          "internalType": "uint256",
          "name": "",
          "type": "uint256"
        }
      ],
      "name": "trackedTokens",
      "outputs": [
        {
          "internalType": "address",
          "name": "owner",
          "type": "address"
        },
        {
          "internalType": "uint256",
          "name": "tokenId",
          "type": "uint256"
        },
        {
          "internalType": "uint256",
          "name": "priceTarget",
          "type": "uint256"
        }
      ],
      "stateMutability": "view",
      "type": "function"
    },
    {
      "inputs": [
        {
          "internalType": "uint256",
          "name": "trackedTokenId",
          "type": "uint256"
        }
      ],
      "name": "untrack",
      "outputs": [
        {
          "internalType": "bool",
          "name": "",
          "type": "bool"
        }
      ],
      "stateMutability": "nonpayable",
      "type": "function"
    },
    {
      "inputs": [],
      "name": "workFee",
      "outputs": [
        {
          "internalType": "uint256",
          "name": "",
          "type": "uint256"
        }
      ],
      "stateMutability": "view",
      "type": "function"
    },
    {
      "stateMutability": "payable",
      "type": "receive"
    }
  ],
  "bytecode": "608060405261271060045560646005553480156200001c57600080fd5b5060405162001918380380620019188339810160408190526200003f91620000aa565b3380620000695760405162461bcd60e51b81526004016200006090620000e8565b60405180910390fd5b600080546001600160a01b03199081166001600160a01b03938416179091556006805482169483169490941790935560078054909316911617905562000150565b60008060408385031215620000bd578182fd5b8251620000ca8162000137565b6020840151909250620000dd8162000137565b809150509250929050565b6020808252602f908201527f676f7665726e61626c653a3a676f7665726e6f722d73686f756c642d6e6f742d60408201526e62652d7a65726f2d6164647265737360881b606082015260800190565b6001600160a01b03811681146200014d57600080fd5b50565b6117b880620001606000396000f3fe6080604052600436106101185760003560e01c80639915feef116100a0578063c2624e1e11610064578063c2624e1e146102fe578063e3056a3414610313578063e58bb63914610328578063eb907b221461033d578063f235757f1461035d5761011f565b80639915feef14610271578063a734f06e14610291578063aced1661146102a6578063b07f0a41146102bb578063b888879e146102e95761011f565b80632db8c129116100e75780632db8c129146101d65780633a5017b4146101f8578063748747e61461020d5780638021a3951461022d5780638305368a146102425761011f565b80630ab174a3146101245780630c340a241461015a578063150b7a021461017c5780632bdd34e3146101a95761011f565b3661011f57005b600080fd5b34801561013057600080fd5b5061014461013f366004611350565b61037d565b6040516101519190611464565b60405180910390f35b34801561016657600080fd5b5061016f6104c5565b60405161015191906113f2565b34801561018857600080fd5b5061019c6101973660046111ed565b6104d4565b604051610151919061146f565b3480156101b557600080fd5b506101c96101c4366004611380565b6104e4565b604051610151919061172f565b3480156101e257600080fd5b506101f66101f13660046111ad565b610698565b005b34801561020457600080fd5b506101c96106d2565b34801561021957600080fd5b506101f6610228366004611191565b6106d8565b34801561023957600080fd5b5061016f610758565b34801561024e57600080fd5b5061026261025d366004611350565b610767565b60405161015193929190611443565b34801561027d57600080fd5b5061014461028c366004611350565b610792565b34801561029d57600080fd5b5061016f6109a4565b3480156102b257600080fd5b5061016f6109bc565b3480156102c757600080fd5b506102db6102d6366004611350565b6109cb565b60405161015192919061142a565b3480156102f557600080fd5b5061016f610caa565b34801561030a57600080fd5b506101c9610cb9565b34801561031f57600080fd5b5061016f610cbf565b34801561033457600080fd5b506101f6610cce565b34801561034957600080fd5b506101f6610358366004611350565b610d02565b34801561036957600080fd5b506101f6610378366004611191565b610d7c565b60006103876110da565b506000828152600a6020908152604091829020825160608101845281546001600160a01b03168082526001830154938201939093526002909101549281019290925233146103f05760405162461bcd60e51b81526004016103e79061170f565b60405180910390fd5b6006546020820151604051632142170760e11b81526001600160a01b03909216916342842e0e916104279130913391600401611406565b600060405180830381600087803b15801561044157600080fd5b505af1158015610455573d6000803e3d6000fd5b5050506000848152600a602052604080822080546001600160a01b03191681556001810183905560020191909155517f68c53a7d31abbc500522afe9689fd451df49957269eb7a9abfa11b60b60627c691506104b290859061172f565b60405180910390a160019150505b919050565b6000546001600160a01b031681565b630a85bd0160e11b949350505050565b60065460405163860fc78b60e01b81526000916001600160a01b03169063860fc78b9061051590869060040161172f565b60206040518083038186803b15801561052d57600080fd5b505afa158015610541573d6000803e3d6000fd5b505050506040513d601f19601f8201168201806040525081019061056591906112a5565b6105815760405162461bcd60e51b81526004016103e790611567565b600654604051632142170760e11b81526001600160a01b03909116906342842e0e906105b590339030908890600401611406565b600060405180830381600087803b1580156105cf57600080fd5b505af11580156105e3573d6000803e3d6000fd5b505050506105f16009610db2565b6105fb6009610dbb565b90506106056110da565b506040805160608101825233815260208082018681528284018681526000868152600a90935291849020835181546001600160a01b0319166001600160a01b0390911617815590516001820155905160029091015590517f24ae79748ece8ae3861c36fb0de7ef3e1c9774ff9c69f5054618b762e95cc5f49061068990849061172f565b60405180910390a15092915050565b6000546001600160a01b031633146106c25760405162461bcd60e51b81526004016103e7906115d1565b6106cd838383610dbf565b505050565b60055481565b6000546001600160a01b031633146107025760405162461bcd60e51b81526004016103e7906115d1565b600880546001600160a01b0319166001600160a01b0383161790556040517fdc3dba1d64dd67c0dc8b12621edd0c6ca4303a9073c3a8fcac38115e73d67b6b9061074d9083906113f2565b60405180910390a150565b6006546001600160a01b031681565b600a602052600090815260409020805460018201546002909201546001600160a01b03909116919083565b600061079c6110da565b506000828152600a6020908152604091829020825160608101845281546001600160a01b0316815260018201549281019290925260020154918101919091526107e3611104565b60065460208301516040516371240d9d60e11b81526001600160a01b039092169163e2481b3a916108169160040161172f565b6101006040518083038186803b15801561082f57600080fd5b505afa158015610843573d6000803e3d6000fd5b505050506040513d601f19601f8201168201806040525081019061086791906112c5565b9050428160c001511080610888575060018151600381111561088557fe5b14155b15610898576000925050506104c0565b81516001600160a01b03163314156108b5576001925050506104c0565b60075460408051633fabe5a360e21b815290516000926001600160a01b03169163feaf968c9160048083019260a0929190829003018186803b1580156108fa57600080fd5b505afa15801561090e573d6000803e3d6000fd5b505050506040513d601f19601f8201168201806040525081019061093291906113a1565b50919350839250600291506109449050565b8360e00151600281111561095457fe5b141561096d5783604001518110159450505050506104c0565b60018360e00151600281111561097f57fe5b14156109985783604001518111159450505050506104c0565b50600095945050505050565b73eeeeeeeeeeeeeeeeeeeeeeeeeeeeeeeeeeeeeeee81565b6008546001600160a01b031681565b604051639915feef60e01b815260009081903090639915feef906109f390869060040161172f565b60206040518083038186803b158015610a0b57600080fd5b505afa158015610a1f573d6000803e3d6000fd5b505050506040513d601f19601f82011682018060405250810190610a4391906112a5565b610a5f5760405162461bcd60e51b81526004016103e7906116d8565b610a676110da565b506000838152600a6020908152604091829020825160608101845281546001600160a01b0390811682526001830154938201849052600290920154818501526006549351637a97929360e11b815290939091169163f52f252691610ace919060040161172f565b602060405180830381600087803b158015610ae857600080fd5b505af1158015610afc573d6000803e3d6000fd5b505050506040513d601f19601f82011682018060405250810190610b209190611368565b5060004790506000610b49600454610b4360055485610f3090919063ffffffff16565b90610f73565b905060008111610b6b5760405162461bcd60e51b81526004016103e790611608565b600080546040516001600160a01b039091169183156108fc02918491818181858888f19350505050158015610ba4573d6000803e3d6000fd5b5060085447906001600160a01b0316331415610bfa576008546040516001600160a01b039091169082156108fc029083906000818181858888f19350505050158015610bf4573d6000803e3d6000fd5b50610c35565b83516040516001600160a01b039091169082156108fc029083906000818181858888f19350505050158015610c33573d6000803e3d6000fd5b505b6000878152600a6020908152604080832080546001600160a01b0319168155600181018490556002019290925585015190517f357e4621aab1f5c18e53573f7e5c6fe3a6b2c90a4650813c730e5c761d3f2bf191610c94918690611738565b60405180910390a1925194509192505050915091565b6007546001600160a01b031681565b60045481565b6001546001600160a01b031681565b6001546001600160a01b03163314610cf85760405162461bcd60e51b81526004016103e790611526565b610d00610fb5565b565b6000546001600160a01b03163314610d2c5760405162461bcd60e51b81526004016103e7906115d1565b600081118015610d3e57506127108111155b610d4757600080fd5b60058190556040517fed621ca660e6e87126ddf80cfe0083eaa5be46f2999c915cf8787e420a2c8d1f9061074d90839061172f565b6000546001600160a01b03163314610da65760405162461bcd60e51b81526004016103e7906115d1565b610daf81611005565b50565b80546001019055565b5490565b6001600160a01b038316610de55760405162461bcd60e51b81526004016103e790611688565b610df0600283611076565b15610e0d5760405162461bcd60e51b81526004016103e7906114d7565b6001600160a01b03821673eeeeeeeeeeeeeeeeeeeeeeeeeeeeeeeeeeeeeeee1415610e6e576040516001600160a01b0384169082156108fc029083906000818181858888f19350505050158015610e68573d6000803e3d6000fd5b50610ef0565b60405163a9059cbb60e01b81526001600160a01b0383169063a9059cbb90610e9c908690859060040161142a565b602060405180830381600087803b158015610eb657600080fd5b505af1158015610eca573d6000803e3d6000fd5b505050506040513d601f19601f82011682018060405250810190610eee91906112a5565b505b7f1e34c1aee8e83c2dcc14c21bb4bfeea7f46c0c998cb797ac7cc4d7a18f5c656b838383604051610f2393929190611406565b60405180910390a1505050565b600082610f3f57506000610f6d565b82820282848281610f4c57fe5b0414610f6a5760405162461bcd60e51b81526004016103e790611590565b90505b92915050565b6000610f6a83836040518060400160405280601a81526020017f536166654d6174683a206469766973696f6e206279207a65726f00000000000081525061108b565b60018054600080546001600160a01b03199081166001600160a01b0384161782559091169091556040517f7880f0fcc848e1f26e461654b100a69f8d0641e29aa29f6596c6afadbb36b5ea9190a1565b6001600160a01b03811661102b5760405162461bcd60e51b81526004016103e79061162b565b600180546001600160a01b0319166001600160a01b0383161790556040517f56bddfa0cee9697cebddf9acd7f23dc6583663b05e007b877056d05017994def9061074d9083906113f2565b6000610f6a836001600160a01b0384166110c2565b600081836110ac5760405162461bcd60e51b81526004016103e79190611484565b5060008385816110b857fe5b0495945050505050565b60009081526001919091016020526040902054151590565b604051806060016040528060006001600160a01b0316815260200160008152602001600081525090565b604080516101008101909152806000815260200160006001600160a01b0316815260200160008152602001600081526020016000815260200160008152602001600081526020016000600281111561115857fe5b905290565b8051610f6d8161176d565b805160038110610f6d57600080fd5b805169ffffffffffffffffffff81168114610f6d57600080fd5b6000602082840312156111a2578081fd5b8135610f6a8161176d565b6000806000606084860312156111c1578182fd5b83356111cc8161176d565b925060208401356111dc8161176d565b929592945050506040919091013590565b60008060008060808587031215611202578081fd5b843561120d8161176d565b935060208581013561121e8161176d565b935060408601359250606086013567ffffffffffffffff80821115611241578384fd5b818801915088601f830112611254578384fd5b813581811115611262578485fd5b611274601f8201601f19168501611746565b91508082528984828501011115611289578485fd5b8084840185840137810190920192909252939692955090935050565b6000602082840312156112b6578081fd5b81518015158114610f6a578182fd5b60006101008083850312156112d8578182fd5b6112e181611746565b90508251600481106112f1578283fd5b8152611300846020850161115d565b602082015260408301516040820152606083015160608201526080830151608082015260a083015160a082015260c083015160c08201526113448460e08501611168565b60e08201529392505050565b600060208284031215611361578081fd5b5035919050565b600060208284031215611379578081fd5b5051919050565b60008060408385031215611392578182fd5b50508035926020909101359150565b600080600080600060a086880312156113b8578081fd5b6113c28787611177565b94506020860151935060408601519250606086015191506113e68760808801611177565b90509295509295909350565b6001600160a01b0391909116815260200190565b6001600160a01b039384168152919092166020820152604081019190915260600190565b6001600160a01b03929092168252602082015260400190565b6001600160a01b039390931683526020830191909152604082015260600190565b901515815260200190565b6001600160e01b031991909116815260200190565b6000602080835283518082850152825b818110156114b057858101830151858201604001528201611494565b818111156114c15783604083870101525b50601f01601f1916929092016040019392505050565b6020808252602f908201527f636f6c6c65637461626c652d647573743a3a746f6b656e2d69732d706172742d60408201526e1bd98b5d1a194b5c1c9bdd1bd8dbdb608a1b606082015260800190565b60208082526021908201527f676f7665726e61626c653a3a6f6e6c792d70656e64696e672d676f7665726e6f6040820152603960f91b606082015260800190565b6020808252600f908201526e1d1bdad95b9259081a5b9d985b1a59608a1b604082015260600190565b60208082526021908201527f536166654d6174683a206d756c7469706c69636174696f6e206f766572666c6f6040820152607760f81b606082015260800190565b60208082526019908201527f676f7665726e61626c653a3a6f6e6c792d676f7665726e6f7200000000000000604082015260600190565b602080825260099082015268070726f6669743d3d360bc1b604082015260600190565b60208082526037908201527f676f7665726e61626c653a3a70656e64696e672d676f7665726e6f722d73686f60408201527f756c642d6e6f742d62652d7a65726f2d61646472657373000000000000000000606082015260800190565b60208082526030908201527f636f6c6c65637461626c652d647573743a3a63616e742d73656e642d6475737460408201526f2d746f2d7a65726f2d6164647265737360801b606082015260800190565b6020808252601e908201527f747261636b6564546f6b656e4964206e6f74206578657263697361626c650000604082015260600190565b60208082526006908201526510b7bbb732b960d11b604082015260600190565b90815260200190565b918252602082015260400190565b60405181810167ffffffffffffffff8111828210171561176557600080fd5b604052919050565b6001600160a01b0381168114610daf57600080fdfea2646970667358221220d3b7a59a57dbefc11f347017facff7908719fcae02425e4899107c800e70183a64736f6c634300060c0033",
  "bytecodeSha1": "9272d5c184630160619469199294e1511a80fdc1",
  "compiler": {
    "evm_version": "istanbul",
    "optimizer": {
      "enabled": true,
      "runs": 200
    },
    "version": "0.6.12"
  },
  "contractName": "HegicBot",
  "language": "Solidity",
  "natspec": {
    "kind": "dev",
    "methods": {
      "onERC721Received(address,address,uint256,bytes)": {
        "details": "See {IERC721Receiver-onERC721Received}. Always returns `IERC721Receiver.onERC721Received.selector`."
      }
    },
    "version": 1
  },
  "opcodes": "PUSH1 0x80 PUSH1 0x40 MSTORE PUSH1 0x4 CALLDATASIZE LT PUSH2 0x118 JUMPI PUSH1 0x0 CALLDATALOAD PUSH1 0xE0 SHR DUP1 PUSH4 0x9915FEEF GT PUSH2 0xA0 JUMPI DUP1 PUSH4 0xC2624E1E GT PUSH2 0x64 JUMPI DUP1 PUSH4 0xC2624E1E EQ PUSH2 0x2FE JUMPI DUP1 PUSH4 0xE3056A34 EQ PUSH2 0x313 JUMPI DUP1 PUSH4 0xE58BB639 EQ PUSH2 0x328 JUMPI DUP1 PUSH4 0xEB907B22 EQ PUSH2 0x33D JUMPI DUP1 PUSH4 0xF235757F EQ PUSH2 0x35D JUMPI PUSH2 0x11F JUMP JUMPDEST DUP1 PUSH4 0x9915FEEF EQ PUSH2 0x271 JUMPI DUP1 PUSH4 0xA734F06E EQ PUSH2 0x291 JUMPI DUP1 PUSH4 0xACED1661 EQ PUSH2 0x2A6 JUMPI DUP1 PUSH4 0xB07F0A41 EQ PUSH2 0x2BB JUMPI DUP1 PUSH4 0xB888879E EQ PUSH2 0x2E9 JUMPI PUSH2 0x11F JUMP JUMPDEST DUP1 PUSH4 0x2DB8C129 GT PUSH2 0xE7 JUMPI DUP1 PUSH4 0x2DB8C129 EQ PUSH2 0x1D6 JUMPI DUP1 PUSH4 0x3A5017B4 EQ PUSH2 0x1F8 JUMPI DUP1 PUSH4 0x748747E6 EQ PUSH2 0x20D JUMPI DUP1 PUSH4 0x8021A395 EQ PUSH2 0x22D JUMPI DUP1 PUSH4 0x8305368A EQ PUSH2 0x242 JUMPI PUSH2 0x11F JUMP JUMPDEST DUP1 PUSH4 0xAB174A3 EQ PUSH2 0x124 JUMPI DUP1 PUSH4 0xC340A24 EQ PUSH2 0x15A JUMPI DUP1 PUSH4 0x150B7A02 EQ PUSH2 0x17C JUMPI DUP1 PUSH4 0x2BDD34E3 EQ PUSH2 0x1A9 JUMPI PUSH2 0x11F JUMP JUMPDEST CALLDATASIZE PUSH2 0x11F JUMPI STOP JUMPDEST PUSH1 0x0 DUP1 REVERT JUMPDEST CALLVALUE DUP1 ISZERO PUSH2 0x130 JUMPI PUSH1 0x0 DUP1 REVERT JUMPDEST POP PUSH2 0x144 PUSH2 0x13F CALLDATASIZE PUSH1 0x4 PUSH2 0x1350 JUMP JUMPDEST PUSH2 0x37D JUMP JUMPDEST PUSH1 0x40 MLOAD PUSH2 0x151 SWAP2 SWAP1 PUSH2 0x1464 JUMP JUMPDEST PUSH1 0x40 MLOAD DUP1 SWAP2 SUB SWAP1 RETURN JUMPDEST CALLVALUE DUP1 ISZERO PUSH2 0x166 JUMPI PUSH1 0x0 DUP1 REVERT JUMPDEST POP PUSH2 0x16F PUSH2 0x4C5 JUMP JUMPDEST PUSH1 0x40 MLOAD PUSH2 0x151 SWAP2 SWAP1 PUSH2 0x13F2 JUMP JUMPDEST CALLVALUE DUP1 ISZERO PUSH2 0x188 JUMPI PUSH1 0x0 DUP1 REVERT JUMPDEST POP PUSH2 0x19C PUSH2 0x197 CALLDATASIZE PUSH1 0x4 PUSH2 0x11ED JUMP JUMPDEST PUSH2 0x4D4 JUMP JUMPDEST PUSH1 0x40 MLOAD PUSH2 0x151 SWAP2 SWAP1 PUSH2 0x146F JUMP JUMPDEST CALLVALUE DUP1 ISZERO PUSH2 0x1B5 JUMPI PUSH1 0x0 DUP1 REVERT JUMPDEST POP PUSH2 0x1C9 PUSH2 0x1C4 CALLDATASIZE PUSH1 0x4 PUSH2 0x1380 JUMP JUMPDEST PUSH2 0x4E4 JUMP JUMPDEST PUSH1 0x40 MLOAD PUSH2 0x151 SWAP2 SWAP1 PUSH2 0x172F JUMP JUMPDEST CALLVALUE DUP1 ISZERO PUSH2 0x1E2 JUMPI PUSH1 0x0 DUP1 REVERT JUMPDEST POP PUSH2 0x1F6 PUSH2 0x1F1 CALLDATASIZE PUSH1 0x4 PUSH2 0x11AD JUMP JUMPDEST PUSH2 0x698 JUMP JUMPDEST STOP JUMPDEST CALLVALUE DUP1 ISZERO PUSH2 0x204 JUMPI PUSH1 0x0 DUP1 REVERT JUMPDEST POP PUSH2 0x1C9 PUSH2 0x6D2 JUMP JUMPDEST CALLVALUE DUP1 ISZERO PUSH2 0x219 JUMPI PUSH1 0x0 DUP1 REVERT JUMPDEST POP PUSH2 0x1F6 PUSH2 0x228 CALLDATASIZE PUSH1 0x4 PUSH2 0x1191 JUMP JUMPDEST PUSH2 0x6D8 JUMP JUMPDEST CALLVALUE DUP1 ISZERO PUSH2 0x239 JUMPI PUSH1 0x0 DUP1 REVERT JUMPDEST POP PUSH2 0x16F PUSH2 0x758 JUMP JUMPDEST CALLVALUE DUP1 ISZERO PUSH2 0x24E JUMPI PUSH1 0x0 DUP1 REVERT JUMPDEST POP PUSH2 0x262 PUSH2 0x25D CALLDATASIZE PUSH1 0x4 PUSH2 0x1350 JUMP JUMPDEST PUSH2 0x767 JUMP JUMPDEST PUSH1 0x40 MLOAD PUSH2 0x151 SWAP4 SWAP3 SWAP2 SWAP1 PUSH2 0x1443 JUMP JUMPDEST CALLVALUE DUP1 ISZERO PUSH2 0x27D JUMPI PUSH1 0x0 DUP1 REVERT JUMPDEST POP PUSH2 0x144 PUSH2 0x28C CALLDATASIZE PUSH1 0x4 PUSH2 0x1350 JUMP JUMPDEST PUSH2 0x792 JUMP JUMPDEST CALLVALUE DUP1 ISZERO PUSH2 0x29D JUMPI PUSH1 0x0 DUP1 REVERT JUMPDEST POP PUSH2 0x16F PUSH2 0x9A4 JUMP JUMPDEST CALLVALUE DUP1 ISZERO PUSH2 0x2B2 JUMPI PUSH1 0x0 DUP1 REVERT JUMPDEST POP PUSH2 0x16F PUSH2 0x9BC JUMP JUMPDEST CALLVALUE DUP1 ISZERO PUSH2 0x2C7 JUMPI PUSH1 0x0 DUP1 REVERT JUMPDEST POP PUSH2 0x2DB PUSH2 0x2D6 CALLDATASIZE PUSH1 0x4 PUSH2 0x1350 JUMP JUMPDEST PUSH2 0x9CB JUMP JUMPDEST PUSH1 0x40 MLOAD PUSH2 0x151 SWAP3 SWAP2 SWAP1 PUSH2 0x142A JUMP JUMPDEST CALLVALUE DUP1 ISZERO PUSH2 0x2F5 JUMPI PUSH1 0x0 DUP1 REVERT JUMPDEST POP PUSH2 0x16F PUSH2 0xCAA JUMP JUMPDEST CALLVALUE DUP1 ISZERO PUSH2 0x30A JUMPI PUSH1 0x0 DUP1 REVERT JUMPDEST POP PUSH2 0x1C9 PUSH2 0xCB9 JUMP JUMPDEST CALLVALUE DUP1 ISZERO PUSH2 0x31F JUMPI PUSH1 0x0 DUP1 REVERT JUMPDEST POP PUSH2 0x16F PUSH2 0xCBF JUMP JUMPDEST CALLVALUE DUP1 ISZERO PUSH2 0x334 JUMPI PUSH1 0x0 DUP1 REVERT JUMPDEST POP PUSH2 0x1F6 PUSH2 0xCCE JUMP JUMPDEST CALLVALUE DUP1 ISZERO PUSH2 0x349 JUMPI PUSH1 0x0 DUP1 REVERT JUMPDEST POP PUSH2 0x1F6 PUSH2 0x358 CALLDATASIZE PUSH1 0x4 PUSH2 0x1350 JUMP JUMPDEST PUSH2 0xD02 JUMP JUMPDEST CALLVALUE DUP1 ISZERO PUSH2 0x369 JUMPI PUSH1 0x0 DUP1 REVERT JUMPDEST POP PUSH2 0x1F6 PUSH2 0x378 CALLDATASIZE PUSH1 0x4 PUSH2 0x1191 JUMP JUMPDEST PUSH2 0xD7C JUMP JUMPDEST PUSH1 0x0 PUSH2 0x387 PUSH2 0x10DA JUMP JUMPDEST POP PUSH1 0x0 DUP3 DUP2 MSTORE PUSH1 0xA PUSH1 0x20 SWAP1 DUP2 MSTORE PUSH1 0x40 SWAP2 DUP3 SWAP1 KECCAK256 DUP3 MLOAD PUSH1 0x60 DUP2 ADD DUP5 MSTORE DUP2 SLOAD PUSH1 0x1 PUSH1 0x1 PUSH1 0xA0 SHL SUB AND DUP1 DUP3 MSTORE PUSH1 0x1 DUP4 ADD SLOAD SWAP4 DUP3 ADD SWAP4 SWAP1 SWAP4 MSTORE PUSH1 0x2 SWAP1 SWAP2 ADD SLOAD SWAP3 DUP2 ADD SWAP3 SWAP1 SWAP3 MSTORE CALLER EQ PUSH2 0x3F0 JUMPI PUSH1 0x40 MLOAD PUSH3 0x461BCD PUSH1 0xE5 SHL DUP2 MSTORE PUSH1 0x4 ADD PUSH2 0x3E7 SWAP1 PUSH2 0x170F JUMP JUMPDEST PUSH1 0x40 MLOAD DUP1 SWAP2 SUB SWAP1 REVERT JUMPDEST PUSH1 0x6 SLOAD PUSH1 0x20 DUP3 ADD MLOAD PUSH1 0x40 MLOAD PUSH4 0x21421707 PUSH1 0xE1 SHL DUP2 MSTORE PUSH1 0x1 PUSH1 0x1 PUSH1 0xA0 SHL SUB SWAP1 SWAP3 AND SWAP2 PUSH4 0x42842E0E SWAP2 PUSH2 0x427 SWAP2 ADDRESS SWAP2 CALLER SWAP2 PUSH1 0x4 ADD PUSH2 0x1406 JUMP JUMPDEST PUSH1 0x0 PUSH1 0x40 MLOAD DUP1 DUP4 SUB DUP2 PUSH1 0x0 DUP8 DUP1 EXTCODESIZE ISZERO DUP1 ISZERO PUSH2 0x441 JUMPI PUSH1 0x0 DUP1 REVERT JUMPDEST POP GAS CALL ISZERO DUP1 ISZERO PUSH2 0x455 JUMPI RETURNDATASIZE PUSH1 0x0 DUP1 RETURNDATACOPY RETURNDATASIZE PUSH1 0x0 REVERT JUMPDEST POP POP POP PUSH1 0x0 DUP5 DUP2 MSTORE PUSH1 0xA PUSH1 0x20 MSTORE PUSH1 0x40 DUP1 DUP3 KECCAK256 DUP1 SLOAD PUSH1 0x1 PUSH1 0x1 PUSH1 0xA0 SHL SUB NOT AND DUP2 SSTORE PUSH1 0x1 DUP2 ADD DUP4 SWAP1 SSTORE PUSH1 0x2 ADD SWAP2 SWAP1 SWAP2 SSTORE MLOAD PUSH32 0x68C53A7D31ABBC500522AFE9689FD451DF49957269EB7A9ABFA11B60B60627C6 SWAP2 POP PUSH2 0x4B2 SWAP1 DUP6 SWAP1 PUSH2 0x172F JUMP JUMPDEST PUSH1 0x40 MLOAD DUP1 SWAP2 SUB SWAP1 LOG1 PUSH1 0x1 SWAP2 POP POP JUMPDEST SWAP2 SWAP1 POP JUMP JUMPDEST PUSH1 0x0 SLOAD PUSH1 0x1 PUSH1 0x1 PUSH1 0xA0 SHL SUB AND DUP2 JUMP JUMPDEST PUSH4 0xA85BD01 PUSH1 0xE1 SHL SWAP5 SWAP4 POP POP POP POP JUMP JUMPDEST PUSH1 0x6 SLOAD PUSH1 0x40 MLOAD PUSH4 0x860FC78B PUSH1 0xE0 SHL DUP2 MSTORE PUSH1 0x0 SWAP2 PUSH1 0x1 PUSH1 0x1 PUSH1 0xA0 SHL SUB AND SWAP1 PUSH4 0x860FC78B SWAP1 PUSH2 0x515 SWAP1 DUP7 SWAP1 PUSH1 0x4 ADD PUSH2 0x172F JUMP JUMPDEST PUSH1 0x20 PUSH1 0x40 MLOAD DUP1 DUP4 SUB DUP2 DUP7 DUP1 EXTCODESIZE ISZERO DUP1 ISZERO PUSH2 0x52D JUMPI PUSH1 0x0 DUP1 REVERT JUMPDEST POP GAS STATICCALL ISZERO DUP1 ISZERO PUSH2 0x541 JUMPI RETURNDATASIZE PUSH1 0x0 DUP1 RETURNDATACOPY RETURNDATASIZE PUSH1 0x0 REVERT JUMPDEST POP POP POP POP PUSH1 0x40 MLOAD RETURNDATASIZE PUSH1 0x1F NOT PUSH1 0x1F DUP3 ADD AND DUP3 ADD DUP1 PUSH1 0x40 MSTORE POP DUP2 ADD SWAP1 PUSH2 0x565 SWAP2 SWAP1 PUSH2 0x12A5 JUMP JUMPDEST PUSH2 0x581 JUMPI PUSH1 0x40 MLOAD PUSH3 0x461BCD PUSH1 0xE5 SHL DUP2 MSTORE PUSH1 0x4 ADD PUSH2 0x3E7 SWAP1 PUSH2 0x1567 JUMP JUMPDEST PUSH1 0x6 SLOAD PUSH1 0x40 MLOAD PUSH4 0x21421707 PUSH1 0xE1 SHL DUP2 MSTORE PUSH1 0x1 PUSH1 0x1 PUSH1 0xA0 SHL SUB SWAP1 SWAP2 AND SWAP1 PUSH4 0x42842E0E SWAP1 PUSH2 0x5B5 SWAP1 CALLER SWAP1 ADDRESS SWAP1 DUP9 SWAP1 PUSH1 0x4 ADD PUSH2 0x1406 JUMP JUMPDEST PUSH1 0x0 PUSH1 0x40 MLOAD DUP1 DUP4 SUB DUP2 PUSH1 0x0 DUP8 DUP1 EXTCODESIZE ISZERO DUP1 ISZERO PUSH2 0x5CF JUMPI PUSH1 0x0 DUP1 REVERT JUMPDEST POP GAS CALL ISZERO DUP1 ISZERO PUSH2 0x5E3 JUMPI RETURNDATASIZE PUSH1 0x0 DUP1 RETURNDATACOPY RETURNDATASIZE PUSH1 0x0 REVERT JUMPDEST POP POP POP POP PUSH2 0x5F1 PUSH1 0x9 PUSH2 0xDB2 JUMP JUMPDEST PUSH2 0x5FB PUSH1 0x9 PUSH2 0xDBB JUMP JUMPDEST SWAP1 POP PUSH2 0x605 PUSH2 0x10DA JUMP JUMPDEST POP PUSH1 0x40 DUP1 MLOAD PUSH1 0x60 DUP2 ADD DUP3 MSTORE CALLER DUP2 MSTORE PUSH1 0x20 DUP1 DUP3 ADD DUP7 DUP2 MSTORE DUP3 DUP5 ADD DUP7 DUP2 MSTORE PUSH1 0x0 DUP7 DUP2 MSTORE PUSH1 0xA SWAP1 SWAP4 MSTORE SWAP2 DUP5 SWAP1 KECCAK256 DUP4 MLOAD DUP2 SLOAD PUSH1 0x1 PUSH1 0x1 PUSH1 0xA0 SHL SUB NOT AND PUSH1 0x1 PUSH1 0x1 PUSH1 0xA0 SHL SUB SWAP1 SWAP2 AND OR DUP2 SSTORE SWAP1 MLOAD PUSH1 0x1 DUP3 ADD SSTORE SWAP1 MLOAD PUSH1 0x2 SWAP1 SWAP2 ADD SSTORE SWAP1 MLOAD PUSH32 0x24AE79748ECE8AE3861C36FB0DE7EF3E1C9774FF9C69F5054618B762E95CC5F4 SWAP1 PUSH2 0x689 SWAP1 DUP5 SWAP1 PUSH2 0x172F JUMP JUMPDEST PUSH1 0x40 MLOAD DUP1 SWAP2 SUB SWAP1 LOG1 POP SWAP3 SWAP2 POP POP JUMP JUMPDEST PUSH1 0x0 SLOAD PUSH1 0x1 PUSH1 0x1 PUSH1 0xA0 SHL SUB AND CALLER EQ PUSH2 0x6C2 JUMPI PUSH1 0x40 MLOAD PUSH3 0x461BCD PUSH1 0xE5 SHL DUP2 MSTORE PUSH1 0x4 ADD PUSH2 0x3E7 SWAP1 PUSH2 0x15D1 JUMP JUMPDEST PUSH2 0x6CD DUP4 DUP4 DUP4 PUSH2 0xDBF JUMP JUMPDEST POP POP POP JUMP JUMPDEST PUSH1 0x5 SLOAD DUP2 JUMP JUMPDEST PUSH1 0x0 SLOAD PUSH1 0x1 PUSH1 0x1 PUSH1 0xA0 SHL SUB AND CALLER EQ PUSH2 0x702 JUMPI PUSH1 0x40 MLOAD PUSH3 0x461BCD PUSH1 0xE5 SHL DUP2 MSTORE PUSH1 0x4 ADD PUSH2 0x3E7 SWAP1 PUSH2 0x15D1 JUMP JUMPDEST PUSH1 0x8 DUP1 SLOAD PUSH1 0x1 PUSH1 0x1 PUSH1 0xA0 SHL SUB NOT AND PUSH1 0x1 PUSH1 0x1 PUSH1 0xA0 SHL SUB DUP4 AND OR SWAP1 SSTORE PUSH1 0x40 MLOAD PUSH32 0xDC3DBA1D64DD67C0DC8B12621EDD0C6CA4303A9073C3A8FCAC38115E73D67B6B SWAP1 PUSH2 0x74D SWAP1 DUP4 SWAP1 PUSH2 0x13F2 JUMP JUMPDEST PUSH1 0x40 MLOAD DUP1 SWAP2 SUB SWAP1 LOG1 POP JUMP JUMPDEST PUSH1 0x6 SLOAD PUSH1 0x1 PUSH1 0x1 PUSH1 0xA0 SHL SUB AND DUP2 JUMP JUMPDEST PUSH1 0xA PUSH1 0x20 MSTORE PUSH1 0x0 SWAP1 DUP2 MSTORE PUSH1 0x40 SWAP1 KECCAK256 DUP1 SLOAD PUSH1 0x1 DUP3 ADD SLOAD PUSH1 0x2 SWAP1 SWAP3 ADD SLOAD PUSH1 0x1 PUSH1 0x1 PUSH1 0xA0 SHL SUB SWAP1 SWAP2 AND SWAP2 SWAP1 DUP4 JUMP JUMPDEST PUSH1 0x0 PUSH2 0x79C PUSH2 0x10DA JUMP JUMPDEST POP PUSH1 0x0 DUP3 DUP2 MSTORE PUSH1 0xA PUSH1 0x20 SWAP1 DUP2 MSTORE PUSH1 0x40 SWAP2 DUP3 SWAP1 KECCAK256 DUP3 MLOAD PUSH1 0x60 DUP2 ADD DUP5 MSTORE DUP2 SLOAD PUSH1 0x1 PUSH1 0x1 PUSH1 0xA0 SHL SUB AND DUP2 MSTORE PUSH1 0x1 DUP3 ADD SLOAD SWAP3 DUP2 ADD SWAP3 SWAP1 SWAP3 MSTORE PUSH1 0x2 ADD SLOAD SWAP2 DUP2 ADD SWAP2 SWAP1 SWAP2 MSTORE PUSH2 0x7E3 PUSH2 0x1104 JUMP JUMPDEST PUSH1 0x6 SLOAD PUSH1 0x20 DUP4 ADD MLOAD PUSH1 0x40 MLOAD PUSH4 0x71240D9D PUSH1 0xE1 SHL DUP2 MSTORE PUSH1 0x1 PUSH1 0x1 PUSH1 0xA0 SHL SUB SWAP1 SWAP3 AND SWAP2 PUSH4 0xE2481B3A SWAP2 PUSH2 0x816 SWAP2 PUSH1 0x4 ADD PUSH2 0x172F JUMP JUMPDEST PUSH2 0x100 PUSH1 0x40 MLOAD DUP1 DUP4 SUB DUP2 DUP7 DUP1 EXTCODESIZE ISZERO DUP1 ISZERO PUSH2 0x82F JUMPI PUSH1 0x0 DUP1 REVERT JUMPDEST POP GAS STATICCALL ISZERO DUP1 ISZERO PUSH2 0x843 JUMPI RETURNDATASIZE PUSH1 0x0 DUP1 RETURNDATACOPY RETURNDATASIZE PUSH1 0x0 REVERT JUMPDEST POP POP POP POP PUSH1 0x40 MLOAD RETURNDATASIZE PUSH1 0x1F NOT PUSH1 0x1F DUP3 ADD AND DUP3 ADD DUP1 PUSH1 0x40 MSTORE POP DUP2 ADD SWAP1 PUSH2 0x867 SWAP2 SWAP1 PUSH2 0x12C5 JUMP JUMPDEST SWAP1 POP TIMESTAMP DUP2 PUSH1 0xC0 ADD MLOAD LT DUP1 PUSH2 0x888 JUMPI POP PUSH1 0x1 DUP2 MLOAD PUSH1 0x3 DUP2 GT ISZERO PUSH2 0x885 JUMPI INVALID JUMPDEST EQ ISZERO JUMPDEST ISZERO PUSH2 0x898 JUMPI PUSH1 0x0 SWAP3 POP POP POP PUSH2 0x4C0 JUMP JUMPDEST DUP2 MLOAD PUSH1 0x1 PUSH1 0x1 PUSH1 0xA0 SHL SUB AND CALLER EQ ISZERO PUSH2 0x8B5 JUMPI PUSH1 0x1 SWAP3 POP POP POP PUSH2 0x4C0 JUMP JUMPDEST PUSH1 0x7 SLOAD PUSH1 0x40 DUP1 MLOAD PUSH4 0x3FABE5A3 PUSH1 0xE2 SHL DUP2 MSTORE SWAP1 MLOAD PUSH1 0x0 SWAP3 PUSH1 0x1 PUSH1 0x1 PUSH1 0xA0 SHL SUB AND SWAP2 PUSH4 0xFEAF968C SWAP2 PUSH1 0x4 DUP1 DUP4 ADD SWAP3 PUSH1 0xA0 SWAP3 SWAP2 SWAP1 DUP3 SWAP1 SUB ADD DUP2 DUP7 DUP1 EXTCODESIZE ISZERO DUP1 ISZERO PUSH2 0x8FA JUMPI PUSH1 0x0 DUP1 REVERT JUMPDEST POP GAS STATICCALL ISZERO DUP1 ISZERO PUSH2 0x90E JUMPI RETURNDATASIZE PUSH1 0x0 DUP1 RETURNDATACOPY RETURNDATASIZE PUSH1 0x0 REVERT JUMPDEST POP POP POP POP PUSH1 0x40 MLOAD RETURNDATASIZE PUSH1 0x1F NOT PUSH1 0x1F DUP3 ADD AND DUP3 ADD DUP1 PUSH1 0x40 MSTORE POP DUP2 ADD SWAP1 PUSH2 0x932 SWAP2 SWAP1 PUSH2 0x13A1 JUMP JUMPDEST POP SWAP2 SWAP4 POP DUP4 SWAP3 POP PUSH1 0x2 SWAP2 POP PUSH2 0x944 SWAP1 POP JUMP JUMPDEST DUP4 PUSH1 0xE0 ADD MLOAD PUSH1 0x2 DUP2 GT ISZERO PUSH2 0x954 JUMPI INVALID JUMPDEST EQ ISZERO PUSH2 0x96D JUMPI DUP4 PUSH1 0x40 ADD MLOAD DUP2 LT ISZERO SWAP5 POP POP POP POP POP PUSH2 0x4C0 JUMP JUMPDEST PUSH1 0x1 DUP4 PUSH1 0xE0 ADD MLOAD PUSH1 0x2 DUP2 GT ISZERO PUSH2 0x97F JUMPI INVALID JUMPDEST EQ ISZERO PUSH2 0x998 JUMPI DUP4 PUSH1 0x40 ADD MLOAD DUP2 GT ISZERO SWAP5 POP POP POP POP POP PUSH2 0x4C0 JUMP JUMPDEST POP PUSH1 0x0 SWAP6 SWAP5 POP POP POP POP POP JUMP JUMPDEST PUSH20 0xEEEEEEEEEEEEEEEEEEEEEEEEEEEEEEEEEEEEEEEE DUP2 JUMP JUMPDEST PUSH1 0x8 SLOAD PUSH1 0x1 PUSH1 0x1 PUSH1 0xA0 SHL SUB AND DUP2 JUMP JUMPDEST PUSH1 0x40 MLOAD PUSH4 0x9915FEEF PUSH1 0xE0 SHL DUP2 MSTORE PUSH1 0x0 SWAP1 DUP2 SWAP1 ADDRESS SWAP1 PUSH4 0x9915FEEF SWAP1 PUSH2 0x9F3 SWAP1 DUP7 SWAP1 PUSH1 0x4 ADD PUSH2 0x172F JUMP JUMPDEST PUSH1 0x20 PUSH1 0x40 MLOAD DUP1 DUP4 SUB DUP2 DUP7 DUP1 EXTCODESIZE ISZERO DUP1 ISZERO PUSH2 0xA0B JUMPI PUSH1 0x0 DUP1 REVERT JUMPDEST POP GAS STATICCALL ISZERO DUP1 ISZERO PUSH2 0xA1F JUMPI RETURNDATASIZE PUSH1 0x0 DUP1 RETURNDATACOPY RETURNDATASIZE PUSH1 0x0 REVERT JUMPDEST POP POP POP POP PUSH1 0x40 MLOAD RETURNDATASIZE PUSH1 0x1F NOT PUSH1 0x1F DUP3 ADD AND DUP3 ADD DUP1 PUSH1 0x40 MSTORE POP DUP2 ADD SWAP1 PUSH2 0xA43 SWAP2 SWAP1 PUSH2 0x12A5 JUMP JUMPDEST PUSH2 0xA5F JUMPI PUSH1 0x40 MLOAD PUSH3 0x461BCD PUSH1 0xE5 SHL DUP2 MSTORE PUSH1 0x4 ADD PUSH2 0x3E7 SWAP1 PUSH2 0x16D8 JUMP JUMPDEST PUSH2 0xA67 PUSH2 0x10DA JUMP JUMPDEST POP PUSH1 0x0 DUP4 DUP2 MSTORE PUSH1 0xA PUSH1 0x20 SWAP1 DUP2 MSTORE PUSH1 0x40 SWAP2 DUP3 SWAP1 KECCAK256 DUP3 MLOAD PUSH1 0x60 DUP2 ADD DUP5 MSTORE DUP2 SLOAD PUSH1 0x1 PUSH1 0x1 PUSH1 0xA0 SHL SUB SWAP1 DUP2 AND DUP3 MSTORE PUSH1 0x1 DUP4 ADD SLOAD SWAP4 DUP3 ADD DUP5 SWAP1 MSTORE PUSH1 0x2 SWAP1 SWAP3 ADD SLOAD DUP2 DUP6 ADD MSTORE PUSH1 0x6 SLOAD SWAP4 MLOAD PUSH4 0x7A979293 PUSH1 0xE1 SHL DUP2 MSTORE SWAP1 SWAP4 SWAP1 SWAP2 AND SWAP2 PUSH4 0xF52F2526 SWAP2 PUSH2 0xACE SWAP2 SWAP1 PUSH1 0x4 ADD PUSH2 0x172F JUMP JUMPDEST PUSH1 0x20 PUSH1 0x40 MLOAD DUP1 DUP4 SUB DUP2 PUSH1 0x0 DUP8 DUP1 EXTCODESIZE ISZERO DUP1 ISZERO PUSH2 0xAE8 JUMPI PUSH1 0x0 DUP1 REVERT JUMPDEST POP GAS CALL ISZERO DUP1 ISZERO PUSH2 0xAFC JUMPI RETURNDATASIZE PUSH1 0x0 DUP1 RETURNDATACOPY RETURNDATASIZE PUSH1 0x0 REVERT JUMPDEST POP POP POP POP PUSH1 0x40 MLOAD RETURNDATASIZE PUSH1 0x1F NOT PUSH1 0x1F DUP3 ADD AND DUP3 ADD DUP1 PUSH1 0x40 MSTORE POP DUP2 ADD SWAP1 PUSH2 0xB20 SWAP2 SWAP1 PUSH2 0x1368 JUMP JUMPDEST POP PUSH1 0x0 SELFBALANCE SWAP1 POP PUSH1 0x0 PUSH2 0xB49 PUSH1 0x4 SLOAD PUSH2 0xB43 PUSH1 0x5 SLOAD DUP6 PUSH2 0xF30 SWAP1 SWAP2 SWAP1 PUSH4 0xFFFFFFFF AND JUMP JUMPDEST SWAP1 PUSH2 0xF73 JUMP JUMPDEST SWAP1 POP PUSH1 0x0 DUP2 GT PUSH2 0xB6B JUMPI PUSH1 0x40 MLOAD PUSH3 0x461BCD PUSH1 0xE5 SHL DUP2 MSTORE PUSH1 0x4 ADD PUSH2 0x3E7 SWAP1 PUSH2 0x1608 JUMP JUMPDEST PUSH1 0x0 DUP1 SLOAD PUSH1 0x40 MLOAD PUSH1 0x1 PUSH1 0x1 PUSH1 0xA0 SHL SUB SWAP1 SWAP2 AND SWAP2 DUP4 ISZERO PUSH2 0x8FC MUL SWAP2 DUP5 SWAP2 DUP2 DUP2 DUP2 DUP6 DUP9 DUP9 CALL SWAP4 POP POP POP POP ISZERO DUP1 ISZERO PUSH2 0xBA4 JUMPI RETURNDATASIZE PUSH1 0x0 DUP1 RETURNDATACOPY RETURNDATASIZE PUSH1 0x0 REVERT JUMPDEST POP PUSH1 0x8 SLOAD SELFBALANCE SWAP1 PUSH1 0x1 PUSH1 0x1 PUSH1 0xA0 SHL SUB AND CALLER EQ ISZERO PUSH2 0xBFA JUMPI PUSH1 0x8 SLOAD PUSH1 0x40 MLOAD PUSH1 0x1 PUSH1 0x1 PUSH1 0xA0 SHL SUB SWAP1 SWAP2 AND SWAP1 DUP3 ISZERO PUSH2 0x8FC MUL SWAP1 DUP4 SWAP1 PUSH1 0x0 DUP2 DUP2 DUP2 DUP6 DUP9 DUP9 CALL SWAP4 POP POP POP POP ISZERO DUP1 ISZERO PUSH2 0xBF4 JUMPI RETURNDATASIZE PUSH1 0x0 DUP1 RETURNDATACOPY RETURNDATASIZE PUSH1 0x0 REVERT JUMPDEST POP PUSH2 0xC35 JUMP JUMPDEST DUP4 MLOAD PUSH1 0x40 MLOAD PUSH1 0x1 PUSH1 0x1 PUSH1 0xA0 SHL SUB SWAP1 SWAP2 AND SWAP1 DUP3 ISZERO PUSH2 0x8FC MUL SWAP1 DUP4 SWAP1 PUSH1 0x0 DUP2 DUP2 DUP2 DUP6 DUP9 DUP9 CALL SWAP4 POP POP POP POP ISZERO DUP1 ISZERO PUSH2 0xC33 JUMPI RETURNDATASIZE PUSH1 0x0 DUP1 RETURNDATACOPY RETURNDATASIZE PUSH1 0x0 REVERT JUMPDEST POP JUMPDEST PUSH1 0x0 DUP8 DUP2 MSTORE PUSH1 0xA PUSH1 0x20 SWAP1 DUP2 MSTORE PUSH1 0x40 DUP1 DUP4 KECCAK256 DUP1 SLOAD PUSH1 0x1 PUSH1 0x1 PUSH1 0xA0 SHL SUB NOT AND DUP2 SSTORE PUSH1 0x1 DUP2 ADD DUP5 SWAP1 SSTORE PUSH1 0x2 ADD SWAP3 SWAP1 SWAP3 SSTORE DUP6 ADD MLOAD SWAP1 MLOAD PUSH32 0x357E4621AAB1F5C18E53573F7E5C6FE3A6B2C90A4650813C730E5C761D3F2BF1 SWAP2 PUSH2 0xC94 SWAP2 DUP7 SWAP1 PUSH2 0x1738 JUMP JUMPDEST PUSH1 0x40 MLOAD DUP1 SWAP2 SUB SWAP1 LOG1 SWAP3 MLOAD SWAP5 POP SWAP2 SWAP3 POP POP POP SWAP2 POP SWAP2 JUMP JUMPDEST PUSH1 0x7 SLOAD PUSH1 0x1 PUSH1 0x1 PUSH1 0xA0 SHL SUB AND DUP2 JUMP JUMPDEST PUSH1 0x4 SLOAD DUP2 JUMP JUMPDEST PUSH1 0x1 SLOAD PUSH1 0x1 PUSH1 0x1 PUSH1 0xA0 SHL SUB AND DUP2 JUMP JUMPDEST PUSH1 0x1 SLOAD PUSH1 0x1 PUSH1 0x1 PUSH1 0xA0 SHL SUB AND CALLER EQ PUSH2 0xCF8 JUMPI PUSH1 0x40 MLOAD PUSH3 0x461BCD PUSH1 0xE5 SHL DUP2 MSTORE PUSH1 0x4 ADD PUSH2 0x3E7 SWAP1 PUSH2 0x1526 JUMP JUMPDEST PUSH2 0xD00 PUSH2 0xFB5 JUMP JUMPDEST JUMP JUMPDEST PUSH1 0x0 SLOAD PUSH1 0x1 PUSH1 0x1 PUSH1 0xA0 SHL SUB AND CALLER EQ PUSH2 0xD2C JUMPI PUSH1 0x40 MLOAD PUSH3 0x461BCD PUSH1 0xE5 SHL DUP2 MSTORE PUSH1 0x4 ADD PUSH2 0x3E7 SWAP1 PUSH2 0x15D1 JUMP JUMPDEST PUSH1 0x0 DUP2 GT DUP1 ISZERO PUSH2 0xD3E JUMPI POP PUSH2 0x2710 DUP2 GT ISZERO JUMPDEST PUSH2 0xD47 JUMPI PUSH1 0x0 DUP1 REVERT JUMPDEST PUSH1 0x5 DUP2 SWAP1 SSTORE PUSH1 0x40 MLOAD PUSH32 0xED621CA660E6E87126DDF80CFE0083EAA5BE46F2999C915CF8787E420A2C8D1F SWAP1 PUSH2 0x74D SWAP1 DUP4 SWAP1 PUSH2 0x172F JUMP JUMPDEST PUSH1 0x0 SLOAD PUSH1 0x1 PUSH1 0x1 PUSH1 0xA0 SHL SUB AND CALLER EQ PUSH2 0xDA6 JUMPI PUSH1 0x40 MLOAD PUSH3 0x461BCD PUSH1 0xE5 SHL DUP2 MSTORE PUSH1 0x4 ADD PUSH2 0x3E7 SWAP1 PUSH2 0x15D1 JUMP JUMPDEST PUSH2 0xDAF DUP2 PUSH2 0x1005 JUMP JUMPDEST POP JUMP JUMPDEST DUP1 SLOAD PUSH1 0x1 ADD SWAP1 SSTORE JUMP JUMPDEST SLOAD SWAP1 JUMP JUMPDEST PUSH1 0x1 PUSH1 0x1 PUSH1 0xA0 SHL SUB DUP4 AND PUSH2 0xDE5 JUMPI PUSH1 0x40 MLOAD PUSH3 0x461BCD PUSH1 0xE5 SHL DUP2 MSTORE PUSH1 0x4 ADD PUSH2 0x3E7 SWAP1 PUSH2 0x1688 JUMP JUMPDEST PUSH2 0xDF0 PUSH1 0x2 DUP4 PUSH2 0x1076 JUMP JUMPDEST ISZERO PUSH2 0xE0D JUMPI PUSH1 0x40 MLOAD PUSH3 0x461BCD PUSH1 0xE5 SHL DUP2 MSTORE PUSH1 0x4 ADD PUSH2 0x3E7 SWAP1 PUSH2 0x14D7 JUMP JUMPDEST PUSH1 0x1 PUSH1 0x1 PUSH1 0xA0 SHL SUB DUP3 AND PUSH20 0xEEEEEEEEEEEEEEEEEEEEEEEEEEEEEEEEEEEEEEEE EQ ISZERO PUSH2 0xE6E JUMPI PUSH1 0x40 MLOAD PUSH1 0x1 PUSH1 0x1 PUSH1 0xA0 SHL SUB DUP5 AND SWAP1 DUP3 ISZERO PUSH2 0x8FC MUL SWAP1 DUP4 SWAP1 PUSH1 0x0 DUP2 DUP2 DUP2 DUP6 DUP9 DUP9 CALL SWAP4 POP POP POP POP ISZERO DUP1 ISZERO PUSH2 0xE68 JUMPI RETURNDATASIZE PUSH1 0x0 DUP1 RETURNDATACOPY RETURNDATASIZE PUSH1 0x0 REVERT JUMPDEST POP PUSH2 0xEF0 JUMP JUMPDEST PUSH1 0x40 MLOAD PUSH4 0xA9059CBB PUSH1 0xE0 SHL DUP2 MSTORE PUSH1 0x1 PUSH1 0x1 PUSH1 0xA0 SHL SUB DUP4 AND SWAP1 PUSH4 0xA9059CBB SWAP1 PUSH2 0xE9C SWAP1 DUP7 SWAP1 DUP6 SWAP1 PUSH1 0x4 ADD PUSH2 0x142A JUMP JUMPDEST PUSH1 0x20 PUSH1 0x40 MLOAD DUP1 DUP4 SUB DUP2 PUSH1 0x0 DUP8 DUP1 EXTCODESIZE ISZERO DUP1 ISZERO PUSH2 0xEB6 JUMPI PUSH1 0x0 DUP1 REVERT JUMPDEST POP GAS CALL ISZERO DUP1 ISZERO PUSH2 0xECA JUMPI RETURNDATASIZE PUSH1 0x0 DUP1 RETURNDATACOPY RETURNDATASIZE PUSH1 0x0 REVERT JUMPDEST POP POP POP POP PUSH1 0x40 MLOAD RETURNDATASIZE PUSH1 0x1F NOT PUSH1 0x1F DUP3 ADD AND DUP3 ADD DUP1 PUSH1 0x40 MSTORE POP DUP2 ADD SWAP1 PUSH2 0xEEE SWAP2 SWAP1 PUSH2 0x12A5 JUMP JUMPDEST POP JUMPDEST PUSH32 0x1E34C1AEE8E83C2DCC14C21BB4BFEEA7F46C0C998CB797AC7CC4D7A18F5C656B DUP4 DUP4 DUP4 PUSH1 0x40 MLOAD PUSH2 0xF23 SWAP4 SWAP3 SWAP2 SWAP1 PUSH2 0x1406 JUMP JUMPDEST PUSH1 0x40 MLOAD DUP1 SWAP2 SUB SWAP1 LOG1 POP POP POP JUMP JUMPDEST PUSH1 0x0 DUP3 PUSH2 0xF3F JUMPI POP PUSH1 0x0 PUSH2 0xF6D JUMP JUMPDEST DUP3 DUP3 MUL DUP3 DUP5 DUP3 DUP2 PUSH2 0xF4C JUMPI INVALID JUMPDEST DIV EQ PUSH2 0xF6A JUMPI PUSH1 0x40 MLOAD PUSH3 0x461BCD PUSH1 0xE5 SHL DUP2 MSTORE PUSH1 0x4 ADD PUSH2 0x3E7 SWAP1 PUSH2 0x1590 JUMP JUMPDEST SWAP1 POP JUMPDEST SWAP3 SWAP2 POP POP JUMP JUMPDEST PUSH1 0x0 PUSH2 0xF6A DUP4 DUP4 PUSH1 0x40 MLOAD DUP1 PUSH1 0x40 ADD PUSH1 0x40 MSTORE DUP1 PUSH1 0x1A DUP2 MSTORE PUSH1 0x20 ADD PUSH32 0x536166654D6174683A206469766973696F6E206279207A65726F000000000000 DUP2 MSTORE POP PUSH2 0x108B JUMP JUMPDEST PUSH1 0x1 DUP1 SLOAD PUSH1 0x0 DUP1 SLOAD PUSH1 0x1 PUSH1 0x1 PUSH1 0xA0 SHL SUB NOT SWAP1 DUP2 AND PUSH1 0x1 PUSH1 0x1 PUSH1 0xA0 SHL SUB DUP5 AND OR DUP3 SSTORE SWAP1 SWAP2 AND SWAP1 SWAP2 SSTORE PUSH1 0x40 MLOAD PUSH32 0x7880F0FCC848E1F26E461654B100A69F8D0641E29AA29F6596C6AFADBB36B5EA SWAP2 SWAP1 LOG1 JUMP JUMPDEST PUSH1 0x1 PUSH1 0x1 PUSH1 0xA0 SHL SUB DUP2 AND PUSH2 0x102B JUMPI PUSH1 0x40 MLOAD PUSH3 0x461BCD PUSH1 0xE5 SHL DUP2 MSTORE PUSH1 0x4 ADD PUSH2 0x3E7 SWAP1 PUSH2 0x162B JUMP JUMPDEST PUSH1 0x1 DUP1 SLOAD PUSH1 0x1 PUSH1 0x1 PUSH1 0xA0 SHL SUB NOT AND PUSH1 0x1 PUSH1 0x1 PUSH1 0xA0 SHL SUB DUP4 AND OR SWAP1 SSTORE PUSH1 0x40 MLOAD PUSH32 0x56BDDFA0CEE9697CEBDDF9ACD7F23DC6583663B05E007B877056D05017994DEF SWAP1 PUSH2 0x74D SWAP1 DUP4 SWAP1 PUSH2 0x13F2 JUMP JUMPDEST PUSH1 0x0 PUSH2 0xF6A DUP4 PUSH1 0x1 PUSH1 0x1 PUSH1 0xA0 SHL SUB DUP5 AND PUSH2 0x10C2 JUMP JUMPDEST PUSH1 0x0 DUP2 DUP4 PUSH2 0x10AC JUMPI PUSH1 0x40 MLOAD PUSH3 0x461BCD PUSH1 0xE5 SHL DUP2 MSTORE PUSH1 0x4 ADD PUSH2 0x3E7 SWAP2 SWAP1 PUSH2 0x1484 JUMP JUMPDEST POP PUSH1 0x0 DUP4 DUP6 DUP2 PUSH2 0x10B8 JUMPI INVALID JUMPDEST DIV SWAP6 SWAP5 POP POP POP POP POP JUMP JUMPDEST PUSH1 0x0 SWAP1 DUP2 MSTORE PUSH1 0x1 SWAP2 SWAP1 SWAP2 ADD PUSH1 0x20 MSTORE PUSH1 0x40 SWAP1 KECCAK256 SLOAD ISZERO ISZERO SWAP1 JUMP JUMPDEST PUSH1 0x40 MLOAD DUP1 PUSH1 0x60 ADD PUSH1 0x40 MSTORE DUP1 PUSH1 0x0 PUSH1 0x1 PUSH1 0x1 PUSH1 0xA0 SHL SUB AND DUP2 MSTORE PUSH1 0x20 ADD PUSH1 0x0 DUP2 MSTORE PUSH1 0x20 ADD PUSH1 0x0 DUP2 MSTORE POP SWAP1 JUMP JUMPDEST PUSH1 0x40 DUP1 MLOAD PUSH2 0x100 DUP2 ADD SWAP1 SWAP2 MSTORE DUP1 PUSH1 0x0 DUP2 MSTORE PUSH1 0x20 ADD PUSH1 0x0 PUSH1 0x1 PUSH1 0x1 PUSH1 0xA0 SHL SUB AND DUP2 MSTORE PUSH1 0x20 ADD PUSH1 0x0 DUP2 MSTORE PUSH1 0x20 ADD PUSH1 0x0 DUP2 MSTORE PUSH1 0x20 ADD PUSH1 0x0 DUP2 MSTORE PUSH1 0x20 ADD PUSH1 0x0 DUP2 MSTORE PUSH1 0x20 ADD PUSH1 0x0 DUP2 MSTORE PUSH1 0x20 ADD PUSH1 0x0 PUSH1 0x2 DUP2 GT ISZERO PUSH2 0x1158 JUMPI INVALID JUMPDEST SWAP1 MSTORE SWAP1 JUMP JUMPDEST DUP1 MLOAD PUSH2 0xF6D DUP2 PUSH2 0x176D JUMP JUMPDEST DUP1 MLOAD PUSH1 0x3 DUP2 LT PUSH2 0xF6D JUMPI PUSH1 0x0 DUP1 REVERT JUMPDEST DUP1 MLOAD PUSH10 0xFFFFFFFFFFFFFFFFFFFF DUP2 AND DUP2 EQ PUSH2 0xF6D JUMPI PUSH1 0x0 DUP1 REVERT JUMPDEST PUSH1 0x0 PUSH1 0x20 DUP3 DUP5 SUB SLT ISZERO PUSH2 0x11A2 JUMPI DUP1 DUP2 REVERT JUMPDEST DUP2 CALLDATALOAD PUSH2 0xF6A DUP2 PUSH2 0x176D JUMP JUMPDEST PUSH1 0x0 DUP1 PUSH1 0x0 PUSH1 0x60 DUP5 DUP7 SUB SLT ISZERO PUSH2 0x11C1 JUMPI DUP2 DUP3 REVERT JUMPDEST DUP4 CALLDATALOAD PUSH2 0x11CC DUP2 PUSH2 0x176D JUMP JUMPDEST SWAP3 POP PUSH1 0x20 DUP5 ADD CALLDATALOAD PUSH2 0x11DC DUP2 PUSH2 0x176D JUMP JUMPDEST SWAP3 SWAP6 SWAP3 SWAP5 POP POP POP PUSH1 0x40 SWAP2 SWAP1 SWAP2 ADD CALLDATALOAD SWAP1 JUMP JUMPDEST PUSH1 0x0 DUP1 PUSH1 0x0 DUP1 PUSH1 0x80 DUP6 DUP8 SUB SLT ISZERO PUSH2 0x1202 JUMPI DUP1 DUP2 REVERT JUMPDEST DUP5 CALLDATALOAD PUSH2 0x120D DUP2 PUSH2 0x176D JUMP JUMPDEST SWAP4 POP PUSH1 0x20 DUP6 DUP2 ADD CALLDATALOAD PUSH2 0x121E DUP2 PUSH2 0x176D JUMP JUMPDEST SWAP4 POP PUSH1 0x40 DUP7 ADD CALLDATALOAD SWAP3 POP PUSH1 0x60 DUP7 ADD CALLDATALOAD PUSH8 0xFFFFFFFFFFFFFFFF DUP1 DUP3 GT ISZERO PUSH2 0x1241 JUMPI DUP4 DUP5 REVERT JUMPDEST DUP2 DUP9 ADD SWAP2 POP DUP9 PUSH1 0x1F DUP4 ADD SLT PUSH2 0x1254 JUMPI DUP4 DUP5 REVERT JUMPDEST DUP2 CALLDATALOAD DUP2 DUP2 GT ISZERO PUSH2 0x1262 JUMPI DUP5 DUP6 REVERT JUMPDEST PUSH2 0x1274 PUSH1 0x1F DUP3 ADD PUSH1 0x1F NOT AND DUP6 ADD PUSH2 0x1746 JUMP JUMPDEST SWAP2 POP DUP1 DUP3 MSTORE DUP10 DUP5 DUP3 DUP6 ADD ADD GT ISZERO PUSH2 0x1289 JUMPI DUP5 DUP6 REVERT JUMPDEST DUP1 DUP5 DUP5 ADD DUP6 DUP5 ADD CALLDATACOPY DUP2 ADD SWAP1 SWAP3 ADD SWAP3 SWAP1 SWAP3 MSTORE SWAP4 SWAP7 SWAP3 SWAP6 POP SWAP1 SWAP4 POP POP JUMP JUMPDEST PUSH1 0x0 PUSH1 0x20 DUP3 DUP5 SUB SLT ISZERO PUSH2 0x12B6 JUMPI DUP1 DUP2 REVERT JUMPDEST DUP2 MLOAD DUP1 ISZERO ISZERO DUP2 EQ PUSH2 0xF6A JUMPI DUP2 DUP3 REVERT JUMPDEST PUSH1 0x0 PUSH2 0x100 DUP1 DUP4 DUP6 SUB SLT ISZERO PUSH2 0x12D8 JUMPI DUP2 DUP3 REVERT JUMPDEST PUSH2 0x12E1 DUP2 PUSH2 0x1746 JUMP JUMPDEST SWAP1 POP DUP3 MLOAD PUSH1 0x4 DUP2 LT PUSH2 0x12F1 JUMPI DUP3 DUP4 REVERT JUMPDEST DUP2 MSTORE PUSH2 0x1300 DUP5 PUSH1 0x20 DUP6 ADD PUSH2 0x115D JUMP JUMPDEST PUSH1 0x20 DUP3 ADD MSTORE PUSH1 0x40 DUP4 ADD MLOAD PUSH1 0x40 DUP3 ADD MSTORE PUSH1 0x60 DUP4 ADD MLOAD PUSH1 0x60 DUP3 ADD MSTORE PUSH1 0x80 DUP4 ADD MLOAD PUSH1 0x80 DUP3 ADD MSTORE PUSH1 0xA0 DUP4 ADD MLOAD PUSH1 0xA0 DUP3 ADD MSTORE PUSH1 0xC0 DUP4 ADD MLOAD PUSH1 0xC0 DUP3 ADD MSTORE PUSH2 0x1344 DUP5 PUSH1 0xE0 DUP6 ADD PUSH2 0x1168 JUMP JUMPDEST PUSH1 0xE0 DUP3 ADD MSTORE SWAP4 SWAP3 POP POP POP JUMP JUMPDEST PUSH1 0x0 PUSH1 0x20 DUP3 DUP5 SUB SLT ISZERO PUSH2 0x1361 JUMPI DUP1 DUP2 REVERT JUMPDEST POP CALLDATALOAD SWAP2 SWAP1 POP JUMP JUMPDEST PUSH1 0x0 PUSH1 0x20 DUP3 DUP5 SUB SLT ISZERO PUSH2 0x1379 JUMPI DUP1 DUP2 REVERT JUMPDEST POP MLOAD SWAP2 SWAP1 POP JUMP JUMPDEST PUSH1 0x0 DUP1 PUSH1 0x40 DUP4 DUP6 SUB SLT ISZERO PUSH2 0x1392 JUMPI DUP2 DUP3 REVERT JUMPDEST POP POP DUP1 CALLDATALOAD SWAP3 PUSH1 0x20 SWAP1 SWAP2 ADD CALLDATALOAD SWAP2 POP JUMP JUMPDEST PUSH1 0x0 DUP1 PUSH1 0x0 DUP1 PUSH1 0x0 PUSH1 0xA0 DUP7 DUP9 SUB SLT ISZERO PUSH2 0x13B8 JUMPI DUP1 DUP2 REVERT JUMPDEST PUSH2 0x13C2 DUP8 DUP8 PUSH2 0x1177 JUMP JUMPDEST SWAP5 POP PUSH1 0x20 DUP7 ADD MLOAD SWAP4 POP PUSH1 0x40 DUP7 ADD MLOAD SWAP3 POP PUSH1 0x60 DUP7 ADD MLOAD SWAP2 POP PUSH2 0x13E6 DUP8 PUSH1 0x80 DUP9 ADD PUSH2 0x1177 JUMP JUMPDEST SWAP1 POP SWAP3 SWAP6 POP SWAP3 SWAP6 SWAP1 SWAP4 POP JUMP JUMPDEST PUSH1 0x1 PUSH1 0x1 PUSH1 0xA0 SHL SUB SWAP2 SWAP1 SWAP2 AND DUP2 MSTORE PUSH1 0x20 ADD SWAP1 JUMP JUMPDEST PUSH1 0x1 PUSH1 0x1 PUSH1 0xA0 SHL SUB SWAP4 DUP5 AND DUP2 MSTORE SWAP2 SWAP1 SWAP3 AND PUSH1 0x20 DUP3 ADD MSTORE PUSH1 0x40 DUP2 ADD SWAP2 SWAP1 SWAP2 MSTORE PUSH1 0x60 ADD SWAP1 JUMP JUMPDEST PUSH1 0x1 PUSH1 0x1 PUSH1 0xA0 SHL SUB SWAP3 SWAP1 SWAP3 AND DUP3 MSTORE PUSH1 0x20 DUP3 ADD MSTORE PUSH1 0x40 ADD SWAP1 JUMP JUMPDEST PUSH1 0x1 PUSH1 0x1 PUSH1 0xA0 SHL SUB SWAP4 SWAP1 SWAP4 AND DUP4 MSTORE PUSH1 0x20 DUP4 ADD SWAP2 SWAP1 SWAP2 MSTORE PUSH1 0x40 DUP3 ADD MSTORE PUSH1 0x60 ADD SWAP1 JUMP JUMPDEST SWAP1 ISZERO ISZERO DUP2 MSTORE PUSH1 0x20 ADD SWAP1 JUMP JUMPDEST PUSH1 0x1 PUSH1 0x1 PUSH1 0xE0 SHL SUB NOT SWAP2 SWAP1 SWAP2 AND DUP2 MSTORE PUSH1 0x20 ADD SWAP1 JUMP JUMPDEST PUSH1 0x0 PUSH1 0x20 DUP1 DUP4 MSTORE DUP4 MLOAD DUP1 DUP3 DUP6 ADD MSTORE DUP3 JUMPDEST DUP2 DUP2 LT ISZERO PUSH2 0x14B0 JUMPI DUP6 DUP2 ADD DUP4 ADD MLOAD DUP6 DUP3 ADD PUSH1 0x40 ADD MSTORE DUP3 ADD PUSH2 0x1494 JUMP JUMPDEST DUP2 DUP2 GT ISZERO PUSH2 0x14C1 JUMPI DUP4 PUSH1 0x40 DUP4 DUP8 ADD ADD MSTORE JUMPDEST POP PUSH1 0x1F ADD PUSH1 0x1F NOT AND SWAP3 SWAP1 SWAP3 ADD PUSH1 0x40 ADD SWAP4 SWAP3 POP POP POP JUMP JUMPDEST PUSH1 0x20 DUP1 DUP3 MSTORE PUSH1 0x2F SWAP1 DUP3 ADD MSTORE PUSH32 0x636F6C6C65637461626C652D647573743A3A746F6B656E2D69732D706172742D PUSH1 0x40 DUP3 ADD MSTORE PUSH15 0x1BD98B5D1A194B5C1C9BDD1BD8DBDB PUSH1 0x8A SHL PUSH1 0x60 DUP3 ADD MSTORE PUSH1 0x80 ADD SWAP1 JUMP JUMPDEST PUSH1 0x20 DUP1 DUP3 MSTORE PUSH1 0x21 SWAP1 DUP3 ADD MSTORE PUSH32 0x676F7665726E61626C653A3A6F6E6C792D70656E64696E672D676F7665726E6F PUSH1 0x40 DUP3 ADD MSTORE PUSH1 0x39 PUSH1 0xF9 SHL PUSH1 0x60 DUP3 ADD MSTORE PUSH1 0x80 ADD SWAP1 JUMP JUMPDEST PUSH1 0x20 DUP1 DUP3 MSTORE PUSH1 0xF SWAP1 DUP3 ADD MSTORE PUSH15 0x1D1BDAD95B9259081A5B9D985B1A59 PUSH1 0x8A SHL PUSH1 0x40 DUP3 ADD MSTORE PUSH1 0x60 ADD SWAP1 JUMP JUMPDEST PUSH1 0x20 DUP1 DUP3 MSTORE PUSH1 0x21 SWAP1 DUP3 ADD MSTORE PUSH32 0x536166654D6174683A206D756C7469706C69636174696F6E206F766572666C6F PUSH1 0x40 DUP3 ADD MSTORE PUSH1 0x77 PUSH1 0xF8 SHL PUSH1 0x60 DUP3 ADD MSTORE PUSH1 0x80 ADD SWAP1 JUMP JUMPDEST PUSH1 0x20 DUP1 DUP3 MSTORE PUSH1 0x19 SWAP1 DUP3 ADD MSTORE PUSH32 0x676F7665726E61626C653A3A6F6E6C792D676F7665726E6F7200000000000000 PUSH1 0x40 DUP3 ADD MSTORE PUSH1 0x60 ADD SWAP1 JUMP JUMPDEST PUSH1 0x20 DUP1 DUP3 MSTORE PUSH1 0x9 SWAP1 DUP3 ADD MSTORE PUSH9 0x70726F6669743D3D3 PUSH1 0xBC SHL PUSH1 0x40 DUP3 ADD MSTORE PUSH1 0x60 ADD SWAP1 JUMP JUMPDEST PUSH1 0x20 DUP1 DUP3 MSTORE PUSH1 0x37 SWAP1 DUP3 ADD MSTORE PUSH32 0x676F7665726E61626C653A3A70656E64696E672D676F7665726E6F722D73686F PUSH1 0x40 DUP3 ADD MSTORE PUSH32 0x756C642D6E6F742D62652D7A65726F2D61646472657373000000000000000000 PUSH1 0x60 DUP3 ADD MSTORE PUSH1 0x80 ADD SWAP1 JUMP JUMPDEST PUSH1 0x20 DUP1 DUP3 MSTORE PUSH1 0x30 SWAP1 DUP3 ADD MSTORE PUSH32 0x636F6C6C65637461626C652D647573743A3A63616E742D73656E642D64757374 PUSH1 0x40 DUP3 ADD MSTORE PUSH16 0x2D746F2D7A65726F2D61646472657373 PUSH1 0x80 SHL PUSH1 0x60 DUP3 ADD MSTORE PUSH1 0x80 ADD SWAP1 JUMP JUMPDEST PUSH1 0x20 DUP1 DUP3 MSTORE PUSH1 0x1E SWAP1 DUP3 ADD MSTORE PUSH32 0x747261636B6564546F6B656E4964206E6F74206578657263697361626C650000 PUSH1 0x40 DUP3 ADD MSTORE PUSH1 0x60 ADD SWAP1 JUMP JUMPDEST PUSH1 0x20 DUP1 DUP3 MSTORE PUSH1 0x6 SWAP1 DUP3 ADD MSTORE PUSH6 0x10B7BBB732B9 PUSH1 0xD1 SHL PUSH1 0x40 DUP3 ADD MSTORE PUSH1 0x60 ADD SWAP1 JUMP JUMPDEST SWAP1 DUP2 MSTORE PUSH1 0x20 ADD SWAP1 JUMP JUMPDEST SWAP2 DUP3 MSTORE PUSH1 0x20 DUP3 ADD MSTORE PUSH1 0x40 ADD SWAP1 JUMP JUMPDEST PUSH1 0x40 MLOAD DUP2 DUP2 ADD PUSH8 0xFFFFFFFFFFFFFFFF DUP2 GT DUP3 DUP3 LT OR ISZERO PUSH2 0x1765 JUMPI PUSH1 0x0 DUP1 REVERT JUMPDEST PUSH1 0x40 MSTORE SWAP2 SWAP1 POP JUMP JUMPDEST PUSH1 0x1 PUSH1 0x1 PUSH1 0xA0 SHL SUB DUP2 AND DUP2 EQ PUSH2 0xDAF JUMPI PUSH1 0x0 DUP1 REVERT INVALID LOG2 PUSH5 0x6970667358 0x22 SLT KECCAK256 0xD3 0xB7 0xA5 SWAP11 JUMPI 0xDB 0xEF 0xC1 0x1F CALLVALUE PUSH17 0x17FACFF7908719FCAE02425E4899107C80 0xE PUSH17 0x183A64736F6C634300060C003300000000 ",
  "sha1": "e2ecfb65b4f043f163aba6e1cfa5262bf50e15bd",
  "source": "// SPDX-License-Identifier: GPL-3.0\npragma solidity 0.6.12;\npragma experimental ABIEncoderV2;\n\nimport \"@openzeppelinV3/contracts/math/SafeMath.sol\";\nimport \"@openzeppelinV3/contracts/utils/Address.sol\";\nimport \"@openzeppelinV3/contracts/token/ERC721/ERC721Holder.sol\";\nimport \"@openzeppelinV3/contracts/utils/Counters.sol\";\n\nimport \"../interfaces/IHegicNFT.sol\";\nimport \"../interfaces/IHegicBot.sol\";\nimport \"../interfaces/IPriceProvider.sol\";\nimport \"./Governable.sol\";\nimport \"./CollectableDust.sol\";\n\ncontract HegicBot is IHegicBot, Governable, CollectableDust, ERC721Holder {\n    using Address for address;\n    using SafeMath for uint256;\n    using Counters for Counters.Counter;\n\n    uint256 public FEE_MAX = 10000;\n    uint256 public workFee = 100;\n\n    IHegicNFT public ethNft;\n    IPriceProvider public priceProvider;\n    address public keeper;\n\n    Counters.Counter private _trackedTokenIds;\n    mapping(uint256 => TrackedToken) public trackedTokens;\n\n    constructor(IHegicNFT _ethNft, IPriceProvider _priceProvider) public Governable(msg.sender) CollectableDust() {\n        ethNft = _ethNft;\n        priceProvider = _priceProvider;\n    }\n\n    function track(uint256 tokenId, uint256 priceTarget) external override returns (uint256 trackedTokenId) {\n        require(ethNft.isValidToken(tokenId), \"tokenId invalid\");\n\n        ethNft.safeTransferFrom(msg.sender, address(this), tokenId);\n\n        _trackedTokenIds.increment();\n        trackedTokenId = _trackedTokenIds.current();\n        TrackedToken memory trackedToken = TrackedToken(msg.sender, tokenId, priceTarget);\n        trackedTokens[trackedTokenId] = trackedToken;\n\n        emit TokenTracked(trackedTokenId);\n    }\n\n    function untrack(uint256 trackedTokenId) external override returns (bool) {\n        TrackedToken memory trackedToken = trackedTokens[trackedTokenId];\n        require(trackedToken.owner == msg.sender, \"!owner\");\n\n        ethNft.safeTransferFrom(address(this), msg.sender, trackedToken.tokenId);\n        delete trackedTokens[trackedTokenId];\n        emit TokenUntracked(trackedTokenId);\n\n        return true;\n    }\n\n    function exercisable(uint256 trackedTokenId) external view override returns (bool) {\n        TrackedToken memory trackedToken = trackedTokens[trackedTokenId];\n        Option memory option = ethNft.getUnderlyingOptionParams(trackedToken.tokenId);\n\n        if (option.expiration < block.timestamp || option.state != State.Active) {\n            return false;\n        }\n\n        if (trackedToken.owner == msg.sender) {\n            return true;\n        }\n\n        (, int256 latestPrice, , , ) = priceProvider.latestRoundData();\n        uint256 currentPrice = uint256(latestPrice);\n\n        if (option.optionType == OptionType.Call) {\n            return currentPrice >= trackedToken.priceTarget;\n        } else if (option.optionType == OptionType.Put) {\n            return currentPrice <= trackedToken.priceTarget;\n        }\n\n        return false;\n    }\n\n    function exercise(uint256 trackedTokenId) external override returns (address, uint256) {\n        require(this.exercisable(trackedTokenId), \"trackedTokenId not exercisable\");\n\n        TrackedToken memory trackedToken = trackedTokens[trackedTokenId];\n\n        ethNft.exerciseOption(trackedToken.tokenId);\n\n        uint256 grossProfit = address(this).balance;\n        uint256 ownerFee = grossProfit.mul(workFee).div(FEE_MAX);\n        require(ownerFee > 0, \"profit==0\");\n\n        payable(governor).transfer(ownerFee);\n\n        uint256 netProfit = address(this).balance;\n        if (msg.sender == keeper) {\n            payable(keeper).transfer(netProfit);\n        } else {\n            payable(trackedToken.owner).transfer(netProfit);\n        }\n\n        delete trackedTokens[trackedTokenId];\n\n        emit TrackedTokenExercised(trackedToken.tokenId, grossProfit);\n\n        return (trackedToken.owner, netProfit);\n    }\n\n    function setWorkFee(uint256 _workFee) external override onlyGovernor {\n        require(_workFee > 0 && _workFee <= 10000);\n        workFee = _workFee;\n        emit WorkFeeSet(_workFee);\n    }\n\n    function setKeeper(address _keeper) external override onlyGovernor {\n        keeper = _keeper;\n        emit KeeperSet(_keeper);\n    }\n\n    // Governable\n    function setPendingGovernor(address _pendingGovernor) external override onlyGovernor {\n        _setPendingGovernor(_pendingGovernor);\n    }\n\n    function acceptGovernor() external override onlyPendingGovernor {\n        _acceptGovernor();\n    }\n\n    // Collectable Dust\n    function sendDust(\n        address _to,\n        address _token,\n        uint256 _amount\n    ) external override onlyGovernor {\n        _sendDust(_to, _token, _amount);\n    }\n\n    receive() external payable {}\n}\n",
  "sourcePath": "contracts/HegicBot.sol",
  "type": "contract"
}