{
  "_format": "hh-sol-artifact-1",
  "contractName": "HegicETHOptionsNFT",
  "sourceName": "contracts/HegicETHOptions_NFT.sol",
  "abi": [
    {
      "inputs": [
        {
          "internalType": "contract IHegicOptions",
          "name": "_optionsProvider",
          "type": "address"
        }
      ],
      "stateMutability": "nonpayable",
      "type": "constructor"
    },
    {
      "anonymous": false,
      "inputs": [
        {
          "indexed": true,
          "internalType": "address",
          "name": "owner",
          "type": "address"
        },
        {
          "indexed": true,
          "internalType": "address",
          "name": "approved",
          "type": "address"
        },
        {
          "indexed": true,
          "internalType": "uint256",
          "name": "tokenId",
          "type": "uint256"
        }
      ],
      "name": "Approval",
      "type": "event"
    },
    {
      "anonymous": false,
      "inputs": [
        {
          "indexed": true,
          "internalType": "address",
          "name": "owner",
          "type": "address"
        },
        {
          "indexed": true,
          "internalType": "address",
          "name": "operator",
          "type": "address"
        },
        {
          "indexed": false,
          "internalType": "bool",
          "name": "approved",
          "type": "bool"
        }
      ],
      "name": "ApprovalForAll",
      "type": "event"
    },
    {
      "anonymous": false,
      "inputs": [
        {
          "indexed": true,
          "internalType": "address",
          "name": "account",
          "type": "address"
        },
        {
          "indexed": true,
          "internalType": "uint256",
          "name": "tokenId",
          "type": "uint256"
        },
        {
          "indexed": false,
          "internalType": "bool",
          "name": "burned",
          "type": "bool"
        }
      ],
      "name": "Detokenized",
      "type": "event"
    },
    {
      "anonymous": false,
      "inputs": [
        {
          "indexed": true,
          "internalType": "address",
          "name": "account",
          "type": "address"
        },
        {
          "indexed": true,
          "internalType": "uint256",
          "name": "tokenId",
          "type": "uint256"
        },
        {
          "indexed": false,
          "internalType": "uint256",
          "name": "profit",
          "type": "uint256"
        }
      ],
      "name": "Exercised",
      "type": "event"
    },
    {
      "anonymous": false,
      "inputs": [
        {
          "indexed": true,
          "internalType": "address",
          "name": "previousOwner",
          "type": "address"
        },
        {
          "indexed": true,
          "internalType": "address",
          "name": "newOwner",
          "type": "address"
        }
      ],
      "name": "OwnershipTransferred",
      "type": "event"
    },
    {
      "anonymous": false,
      "inputs": [
        {
          "indexed": true,
          "internalType": "address",
          "name": "account",
          "type": "address"
        },
        {
          "indexed": true,
          "internalType": "uint256",
          "name": "optionId",
          "type": "uint256"
        }
      ],
      "name": "Tokenized",
      "type": "event"
    },
    {
      "anonymous": false,
      "inputs": [
        {
          "indexed": true,
          "internalType": "address",
          "name": "from",
          "type": "address"
        },
        {
          "indexed": true,
          "internalType": "address",
          "name": "to",
          "type": "address"
        },
        {
          "indexed": true,
          "internalType": "uint256",
          "name": "tokenId",
          "type": "uint256"
        }
      ],
      "name": "Transfer",
      "type": "event"
    },
    {
      "inputs": [
        {
          "internalType": "address",
          "name": "to",
          "type": "address"
        },
        {
          "internalType": "uint256",
          "name": "tokenId",
          "type": "uint256"
        }
      ],
      "name": "approve",
      "outputs": [],
      "stateMutability": "nonpayable",
      "type": "function"
    },
    {
      "inputs": [
        {
          "internalType": "address",
          "name": "owner",
          "type": "address"
        }
      ],
      "name": "balanceOf",
      "outputs": [
        {
          "internalType": "uint256",
          "name": "",
          "type": "uint256"
        }
      ],
      "stateMutability": "view",
      "type": "function"
    },
    {
      "inputs": [],
      "name": "baseURI",
      "outputs": [
        {
          "internalType": "string",
          "name": "",
          "type": "string"
        }
      ],
      "stateMutability": "view",
      "type": "function"
    },
    {
      "inputs": [
        {
          "internalType": "uint256",
          "name": "_tokenId",
          "type": "uint256"
        }
      ],
      "name": "burnToken",
      "outputs": [],
      "stateMutability": "nonpayable",
      "type": "function"
    },
    {
      "inputs": [
        {
          "internalType": "uint256",
          "name": "_period",
          "type": "uint256"
        },
        {
          "internalType": "uint256",
          "name": "_amount",
          "type": "uint256"
        },
        {
          "internalType": "uint256",
          "name": "_strike",
          "type": "uint256"
        },
        {
          "internalType": "enum IHegicOptions.OptionType",
          "name": "_optionType",
          "type": "uint8"
        },
        {
          "internalType": "address",
          "name": "_to",
          "type": "address"
        }
      ],
      "name": "createOption",
      "outputs": [
        {
          "internalType": "uint256",
          "name": "newTokenId",
          "type": "uint256"
        }
      ],
      "stateMutability": "payable",
      "type": "function"
    },
    {
      "inputs": [
        {
          "internalType": "uint256",
          "name": "_tokenId",
          "type": "uint256"
        },
        {
          "internalType": "bool",
          "name": "_burnToken",
          "type": "bool"
        }
      ],
      "name": "detokenizeOption",
      "outputs": [],
      "stateMutability": "nonpayable",
      "type": "function"
    },
    {
      "inputs": [
        {
          "internalType": "uint256",
          "name": "_tokenId",
          "type": "uint256"
        }
      ],
      "name": "exerciseOption",
      "outputs": [
        {
          "internalType": "uint256",
          "name": "profit",
          "type": "uint256"
        }
      ],
      "stateMutability": "nonpayable",
      "type": "function"
    },
    {
      "inputs": [
        {
          "internalType": "uint256",
          "name": "tokenId",
          "type": "uint256"
        }
      ],
      "name": "getApproved",
      "outputs": [
        {
          "internalType": "address",
          "name": "",
          "type": "address"
        }
      ],
      "stateMutability": "view",
      "type": "function"
    },
    {
      "inputs": [
        {
          "internalType": "uint256",
          "name": "_period",
          "type": "uint256"
        },
        {
          "internalType": "uint256",
          "name": "_amount",
          "type": "uint256"
        },
        {
          "internalType": "uint256",
          "name": "_strike",
          "type": "uint256"
        },
        {
          "internalType": "enum IHegicOptions.OptionType",
          "name": "_optionType",
          "type": "uint8"
        }
      ],
      "name": "getOptionCostETH",
      "outputs": [
        {
          "internalType": "uint256",
          "name": "ethCost",
          "type": "uint256"
        }
      ],
      "stateMutability": "view",
      "type": "function"
    },
    {
      "inputs": [
        {
          "internalType": "uint256",
          "name": "_tokenId",
          "type": "uint256"
        }
      ],
      "name": "getUnderlyingOptionId",
      "outputs": [
        {
          "internalType": "uint256",
          "name": "",
          "type": "uint256"
        }
      ],
      "stateMutability": "view",
      "type": "function"
    },
    {
      "inputs": [
        {
          "internalType": "uint256",
          "name": "_tokenId",
          "type": "uint256"
        }
      ],
      "name": "getUnderlyingOptionParams",
      "outputs": [
        {
          "internalType": "enum IHegicOptions.State",
          "name": "state",
          "type": "uint8"
        },
        {
          "internalType": "address payable",
          "name": "holder",
          "type": "address"
        },
        {
          "internalType": "uint256",
          "name": "strike",
          "type": "uint256"
        },
        {
          "internalType": "uint256",
          "name": "amount",
          "type": "uint256"
        },
        {
          "internalType": "uint256",
          "name": "lockedAmount",
          "type": "uint256"
        },
        {
          "internalType": "uint256",
          "name": "premium",
          "type": "uint256"
        },
        {
          "internalType": "uint256",
          "name": "expiration",
          "type": "uint256"
        },
        {
          "internalType": "enum IHegicOptions.OptionType",
          "name": "optionType",
          "type": "uint8"
        }
      ],
      "stateMutability": "view",
      "type": "function"
    },
    {
      "inputs": [
        {
          "internalType": "uint256",
          "name": "",
          "type": "uint256"
        }
      ],
      "name": "holdingToken",
      "outputs": [
        {
          "internalType": "uint256",
          "name": "",
          "type": "uint256"
        }
      ],
      "stateMutability": "view",
      "type": "function"
    },
    {
      "inputs": [
        {
          "internalType": "address",
          "name": "owner",
          "type": "address"
        },
        {
          "internalType": "address",
          "name": "operator",
          "type": "address"
        }
      ],
      "name": "isApprovedForAll",
      "outputs": [
        {
          "internalType": "bool",
          "name": "",
          "type": "bool"
        }
      ],
      "stateMutability": "view",
      "type": "function"
    },
    {
      "inputs": [
        {
          "internalType": "uint256",
          "name": "_tokenId",
          "type": "uint256"
        }
      ],
      "name": "isValidToken",
      "outputs": [
        {
          "internalType": "bool",
          "name": "",
          "type": "bool"
        }
      ],
      "stateMutability": "view",
      "type": "function"
    },
    {
      "inputs": [],
      "name": "name",
      "outputs": [
        {
          "internalType": "string",
          "name": "",
          "type": "string"
        }
      ],
      "stateMutability": "view",
      "type": "function"
    },
    {
      "inputs": [],
      "name": "optionsProvider",
      "outputs": [
        {
          "internalType": "contract IHegicOptions",
          "name": "",
          "type": "address"
        }
      ],
      "stateMutability": "view",
      "type": "function"
    },
    {
      "inputs": [],
      "name": "owner",
      "outputs": [
        {
          "internalType": "address",
          "name": "",
          "type": "address"
        }
      ],
      "stateMutability": "view",
      "type": "function"
    },
    {
      "inputs": [
        {
          "internalType": "uint256",
          "name": "tokenId",
          "type": "uint256"
        }
      ],
      "name": "ownerOf",
      "outputs": [
        {
          "internalType": "address",
          "name": "",
          "type": "address"
        }
      ],
      "stateMutability": "view",
      "type": "function"
    },
    {
      "inputs": [],
      "name": "renounceOwnership",
      "outputs": [],
      "stateMutability": "nonpayable",
      "type": "function"
    },
    {
      "inputs": [
        {
          "internalType": "address",
          "name": "from",
          "type": "address"
        },
        {
          "internalType": "address",
          "name": "to",
          "type": "address"
        },
        {
          "internalType": "uint256",
          "name": "tokenId",
          "type": "uint256"
        }
      ],
      "name": "safeTransferFrom",
      "outputs": [],
      "stateMutability": "nonpayable",
      "type": "function"
    },
    {
      "inputs": [
        {
          "internalType": "address",
          "name": "from",
          "type": "address"
        },
        {
          "internalType": "address",
          "name": "to",
          "type": "address"
        },
        {
          "internalType": "uint256",
          "name": "tokenId",
          "type": "uint256"
        },
        {
          "internalType": "bytes",
          "name": "_data",
          "type": "bytes"
        }
      ],
      "name": "safeTransferFrom",
      "outputs": [],
      "stateMutability": "nonpayable",
      "type": "function"
    },
    {
      "inputs": [
        {
          "internalType": "address",
          "name": "operator",
          "type": "address"
        },
        {
          "internalType": "bool",
          "name": "approved",
          "type": "bool"
        }
      ],
      "name": "setApprovalForAll",
      "outputs": [],
      "stateMutability": "nonpayable",
      "type": "function"
    },
    {
      "inputs": [
        {
          "internalType": "bytes4",
          "name": "interfaceId",
          "type": "bytes4"
        }
      ],
      "name": "supportsInterface",
      "outputs": [
        {
          "internalType": "bool",
          "name": "",
          "type": "bool"
        }
      ],
      "stateMutability": "view",
      "type": "function"
    },
    {
      "inputs": [],
      "name": "symbol",
      "outputs": [
        {
          "internalType": "string",
          "name": "",
          "type": "string"
        }
      ],
      "stateMutability": "view",
      "type": "function"
    },
    {
      "inputs": [
        {
          "internalType": "uint256",
          "name": "index",
          "type": "uint256"
        }
      ],
      "name": "tokenByIndex",
      "outputs": [
        {
          "internalType": "uint256",
          "name": "",
          "type": "uint256"
        }
      ],
      "stateMutability": "view",
      "type": "function"
    },
    {
      "inputs": [
        {
          "internalType": "address",
          "name": "owner",
          "type": "address"
        },
        {
          "internalType": "uint256",
          "name": "index",
          "type": "uint256"
        }
      ],
      "name": "tokenOfOwnerByIndex",
      "outputs": [
        {
          "internalType": "uint256",
          "name": "",
          "type": "uint256"
        }
      ],
      "stateMutability": "view",
      "type": "function"
    },
    {
      "inputs": [
        {
          "internalType": "uint256",
          "name": "tokenId",
          "type": "uint256"
        }
      ],
      "name": "tokenURI",
      "outputs": [
        {
          "internalType": "string",
          "name": "",
          "type": "string"
        }
      ],
      "stateMutability": "view",
      "type": "function"
    },
    {
      "inputs": [
        {
          "internalType": "uint256",
          "name": "_optionId",
          "type": "uint256"
        },
        {
          "internalType": "address",
          "name": "_to",
          "type": "address"
        }
      ],
      "name": "tokenizeOption",
      "outputs": [
        {
          "internalType": "uint256",
          "name": "newTokenId",
          "type": "uint256"
        }
      ],
      "stateMutability": "nonpayable",
      "type": "function"
    },
    {
      "inputs": [],
      "name": "totalSupply",
      "outputs": [
        {
          "internalType": "uint256",
          "name": "",
          "type": "uint256"
        }
      ],
      "stateMutability": "view",
      "type": "function"
    },
    {
      "inputs": [
        {
          "internalType": "address",
          "name": "from",
          "type": "address"
        },
        {
          "internalType": "address",
          "name": "to",
          "type": "address"
        },
        {
          "internalType": "uint256",
          "name": "tokenId",
          "type": "uint256"
        }
      ],
      "name": "transferFrom",
      "outputs": [],
      "stateMutability": "nonpayable",
      "type": "function"
    },
    {
      "inputs": [
        {
          "internalType": "address",
          "name": "newOwner",
          "type": "address"
        }
      ],
      "name": "transferOwnership",
      "outputs": [],
      "stateMutability": "nonpayable",
      "type": "function"
    },
    {
      "inputs": [
        {
          "internalType": "uint256",
          "name": "",
          "type": "uint256"
        }
      ],
      "name": "underlyingOptionId",
      "outputs": [
        {
          "internalType": "uint256",
          "name": "",
          "type": "uint256"
        }
      ],
      "stateMutability": "view",
      "type": "function"
    },
    {
      "stateMutability": "payable",
      "type": "receive"
    }
  ],
  "bytecode": "0x60806040523480156200001157600080fd5b506040516200314238038062003142833981810160405260208110156200003757600080fd5b5051604080518082018252600f81526e090caced2c69ee0e8d2dedce68aa89608b1b602082810191909152825180840190935260058352640909e8aa8960db1b90830152908181620000906301ffc9a760e01b62000178565b8151620000a590600690602085019062000201565b508051620000bb90600790602084019062000201565b50620000ce6380ac58cd60e01b62000178565b620000e0635b5e139f60e01b62000178565b620000f263780e9d6360e01b62000178565b506000905062000101620001fd565b600a80546001600160a01b0319166001600160a01b038316908117909155604051919250906000907f8be0079c531659141344cd1fd0a4f28419497f9722a3daafe3b4186f6b6457e0908290a35050600c80546001600160a01b0319166001600160a01b039390931692909217909155506200029d565b6001600160e01b03198082161415620001d8576040805162461bcd60e51b815260206004820152601c60248201527f4552433136353a20696e76616c696420696e7465726661636520696400000000604482015290519081900360640190fd5b6001600160e01b0319166000908152602081905260409020805460ff19166001179055565b3390565b828054600181600116156101000203166002900490600052602060002090601f016020900481019282601f106200024457805160ff191683800117855562000274565b8280016001018555821562000274579182015b828111156200027457825182559160200191906001019062000257565b506200028292915062000286565b5090565b5b8082111562000282576000815560010162000287565b612e9580620002ad6000396000f3fe6080604052600436106101e75760003560e01c8063860fc78b11610102578063b88d4fde11610095578063e2481b3a11610064578063e2481b3a14610811578063e985e9c5146108a1578063f2fde38b146108dc578063f52f25261461090f576101ee565b8063b88d4fde146106d5578063b9925f19146107a8578063c87b56dd146107bd578063cdb9d318146107e7576101ee565b806394e2c1de116100d157806394e2c1de1461060d57806395d89b411461064c578063a22cb46514610661578063abb8b3f91461069c576101ee565b8063860fc78b1461057a5780638bb6406c146105a45780638da5cb5b146105ce578063921c9dde146105e3576101ee565b80634eafd3ff1161017a57806370a082311161014957806370a08231146104d6578063715018a6146105095780637b47ec1a1461051e57806384d8a3bb14610548576101ee565b80634eafd3ff1461042c5780634f6ccce71461046d5780636352211e146104975780636c0360eb146104c1576101ee565b806318160ddd116101b657806318160ddd1461034657806323b872dd1461036d5780632f745c59146103b057806342842e0e146103e9576101ee565b806301ffc9a7146101f357806306fdde031461023b578063081812fc146102c5578063095ea7b31461030b576101ee565b366101ee57005b600080fd5b3480156101ff57600080fd5b506102276004803603602081101561021657600080fd5b50356001600160e01b031916610939565b604080519115158252519081900360200190f35b34801561024757600080fd5b5061025061095c565b6040805160208082528351818301528351919283929083019185019080838360005b8381101561028a578181015183820152602001610272565b50505050905090810190601f1680156102b75780820380516001836020036101000a031916815260200191505b509250505060405180910390f35b3480156102d157600080fd5b506102ef600480360360208110156102e857600080fd5b50356109f2565b604080516001600160a01b039092168252519081900360200190f35b34801561031757600080fd5b506103446004803603604081101561032e57600080fd5b506001600160a01b038135169060200135610a54565b005b34801561035257600080fd5b5061035b610b2f565b60408051918252519081900360200190f35b34801561037957600080fd5b506103446004803603606081101561039057600080fd5b506001600160a01b03813581169160208101359091169060400135610b40565b3480156103bc57600080fd5b5061035b600480360360408110156103d357600080fd5b506001600160a01b038135169060200135610b97565b3480156103f557600080fd5b506103446004803603606081101561040c57600080fd5b506001600160a01b03813581169160208101359091169060400135610bc2565b61035b600480360360a081101561044257600080fd5b50803590602081013590604081013590606081013560ff1690608001356001600160a01b0316610bdd565b34801561047957600080fd5b5061035b6004803603602081101561049057600080fd5b5035610cac565b3480156104a357600080fd5b506102ef600480360360208110156104ba57600080fd5b5035610cc2565b3480156104cd57600080fd5b50610250610cea565b3480156104e257600080fd5b5061035b600480360360208110156104f957600080fd5b50356001600160a01b0316610d4b565b34801561051557600080fd5b50610344610db3565b34801561052a57600080fd5b506103446004803603602081101561054157600080fd5b5035610e67565b34801561055457600080fd5b506103446004803603604081101561056b57600080fd5b50803590602001351515610f5f565b34801561058657600080fd5b506102276004803603602081101561059d57600080fd5b503561112e565b3480156105b057600080fd5b5061035b600480360360208110156105c757600080fd5b5035611156565b3480156105da57600080fd5b506102ef611168565b3480156105ef57600080fd5b5061035b6004803603602081101561060657600080fd5b5035611177565b34801561061957600080fd5b5061035b6004803603608081101561063057600080fd5b508035906020810135906040810135906060013560ff16611189565b34801561065857600080fd5b50610250611231565b34801561066d57600080fd5b506103446004803603604081101561068457600080fd5b506001600160a01b0381351690602001351515611292565b3480156106a857600080fd5b5061035b600480360360408110156106bf57600080fd5b50803590602001356001600160a01b0316611397565b3480156106e157600080fd5b50610344600480360360808110156106f857600080fd5b6001600160a01b0382358116926020810135909116916040820135919081019060808101606082013564010000000081111561073357600080fd5b82018360208201111561074557600080fd5b8035906020019184600183028401116401000000008311171561076757600080fd5b91908080601f0160208091040260200160405190810160405280939291908181526020018383808284376000920191909152509295506114d9945050505050565b3480156107b457600080fd5b506102ef611531565b3480156107c957600080fd5b50610250600480360360208110156107e057600080fd5b5035611540565b3480156107f357600080fd5b5061035b6004803603602081101561080a57600080fd5b50356117e7565b34801561081d57600080fd5b5061083b6004803603602081101561083457600080fd5b50356117f9565b6040518089600381111561084b57fe5b8152602001886001600160a01b0316815260200187815260200186815260200185815260200184815260200183815260200182600281111561088957fe5b81526020019850505050505050505060405180910390f35b3480156108ad57600080fd5b50610227600480360360408110156108c457600080fd5b506001600160a01b038135811691602001351661191f565b3480156108e857600080fd5b50610344600480360360208110156108ff57600080fd5b50356001600160a01b031661194d565b34801561091b57600080fd5b5061035b6004803603602081101561093257600080fd5b5035611a58565b6001600160e01b0319811660009081526020819052604090205460ff165b919050565b60068054604080516020601f60026000196101006001881615020190951694909404938401819004810282018101909252828152606093909290918301828280156109e85780601f106109bd576101008083540402835291602001916109e8565b820191906000526020600020905b8154815290600101906020018083116109cb57829003601f168201915b5050505050905090565b60006109fd82611b63565b610a385760405162461bcd60e51b815260040180806020018281038252602c815260200180612d69602c913960400191505060405180910390fd5b506000908152600460205260409020546001600160a01b031690565b6000610a5f82610cc2565b9050806001600160a01b0316836001600160a01b03161415610ab25760405162461bcd60e51b8152600401808060200182810382526021815260200180612e0e6021913960400191505060405180910390fd5b806001600160a01b0316610ac4611b70565b6001600160a01b03161480610ae55750610ae581610ae0611b70565b61191f565b610b205760405162461bcd60e51b8152600401808060200182810382526038815260200180612cbc6038913960400191505060405180910390fd5b610b2a8383611b74565b505050565b6000610b3b6002611be2565b905090565b610b51610b4b611b70565b82611bed565b610b8c5760405162461bcd60e51b8152600401808060200182810382526031815260200180612e2f6031913960400191505060405180910390fd5b610b2a838383611c89565b6001600160a01b0382166000908152600160205260408120610bb99083611dd5565b90505b92915050565b610b2a838383604051806020016040528060008152506114d9565b600080600c60009054906101000a90046001600160a01b03166001600160a01b03166380478ad134898989896040518663ffffffff1660e01b815260040180858152602001848152602001838152602001826002811115610c3a57fe5b81526020019450505050506020604051808303818588803b158015610c5e57600080fd5b505af1158015610c72573d6000803e3d6000fd5b50505050506040513d6020811015610c8957600080fd5b50519050610c9633611de1565b50610ca18184611e1f565b979650505050505050565b600080610cba600284611f4f565b509392505050565b6000610bbc82604051806060016040528060298152602001612d1e6029913960029190611f6b565b60098054604080516020601f60026000196101006001881615020190951694909404938401819004810282018101909252828152606093909290918301828280156109e85780601f106109bd576101008083540402835291602001916109e8565b60006001600160a01b038216610d925760405162461bcd60e51b815260040180806020018281038252602a815260200180612cf4602a913960400191505060405180910390fd5b6001600160a01b0382166000908152600160205260409020610bbc90611be2565b610dbb611b70565b600a546001600160a01b03908116911614610e1d576040805162461bcd60e51b815260206004820181905260248201527f4f776e61626c653a2063616c6c6572206973206e6f7420746865206f776e6572604482015290519081900360640190fd5b600a546040516000916001600160a01b0316907f8be0079c531659141344cd1fd0a4f28419497f9722a3daafe3b4186f6b6457e0908390a3600a80546001600160a01b0319169055565b80610e723382611bed565b610ead5760405162461bcd60e51b8152600401808060200182810382526021815260200180612d956021913960400191505060405180910390fd5b600080610eb9846117f9565b5096505050505050915060016003811115610ed057fe5b826003811115610edc57fe5b1480610ee757504281115b15610f50576000848152600f602052604090205460ff1615610f50576040805162461bcd60e51b815260206004820152601860248201527f484f4e46542f63616e6e6f742d6275726e2d6f7074696f6e0000000000000000604482015290519081900360640190fd5b610f5984611f82565b50505050565b81610f6a3382611bed565b610fa55760405162461bcd60e51b8152600401808060200182810382526021815260200180612d956021913960400191505060405180910390fd5b610fae8361204f565b610fe95760405162461bcd60e51b8152600401808060200182810382526022815260200180612c9a6022913960400191505060405180910390fd5b600080610ff5856117f9565b509650505050505091506001600381111561100c57fe5b82600381111561101857fe5b148061102357504281115b156110b457600c546000868152600d60205260409020546001600160a01b039091169063b7760c8f9061105588610cc2565b6040518363ffffffff1660e01b815260040180838152602001826001600160a01b0316815260200192505050600060405180830381600087803b15801561109b57600080fd5b505af11580156110af573d6000803e3d6000fd5b505050505b6000858152600f60209081526040808320805460ff19169055600d8252808320548352600e90915281205583156110ee576110ee85611f82565b6040805185151581529051869133917f348784e52e2f0924133eea20288cd00c93de812ec7816830f0ac7a9ba34cc4fb9181900360200190a35050505050565b60008061113a836117f9565b5050506001600160a01b03909316301495505050505050919050565b600e6020526000908152604090205481565b600a546001600160a01b031690565b600d6020526000908152604090205481565b600c5460405163c7c3b53f60e01b81526004810186815260248201869052604482018590526000926001600160a01b03169163c7c3b53f918891889188918891906064018260028111156111d957fe5b815260200194505050505060806040518083038186803b1580156111fc57600080fd5b505afa158015611210573d6000803e3d6000fd5b505050506040513d608081101561122657600080fd5b505195945050505050565b60078054604080516020601f60026000196101006001881615020190951694909404938401819004810282018101909252828152606093909290918301828280156109e85780601f106109bd576101008083540402835291602001916109e8565b61129a611b70565b6001600160a01b0316826001600160a01b03161415611300576040805162461bcd60e51b815260206004820152601960248201527f4552433732313a20617070726f766520746f2063616c6c657200000000000000604482015290519081900360640190fd5b806005600061130d611b70565b6001600160a01b03908116825260208083019390935260409182016000908120918716808252919093529120805460ff191692151592909217909155611351611b70565b6001600160a01b03167f17307eab39ab6107e8899845ad3d59bd9653f200f220920489ca2b5937696c318360405180821515815260200191505060405180910390a35050565b600c546040805163409e220560e01b815260048101859052905160009283926001600160a01b039091169163409e22059160248082019261010092909190829003018186803b1580156113e957600080fd5b505afa1580156113fd573d6000803e3d6000fd5b505050506040513d61010081101561141457600080fd5b506020015190506001600160a01b038116301415611473576040805162461bcd60e51b81526020600482015260176024820152761213d391950bd85b1c9958591e4b5d1bdad95b9a5e9959604a1b604482015290519081900360640190fd5b6001600160a01b03811633146114c7576040805162461bcd60e51b81526020600482015260146024820152732427a7232a17b4b73b30b634b216b437b63232b960611b604482015290519081900360640190fd5b6114d18484611e1f565b949350505050565b6114ea6114e4611b70565b83611bed565b6115255760405162461bcd60e51b8152600401808060200182810382526031815260200180612e2f6031913960400191505060405180910390fd5b610f598484848461212b565b600c546001600160a01b031681565b606061154b82611b63565b6115865760405162461bcd60e51b815260040180806020018281038252602f815260200180612ddf602f913960400191505060405180910390fd5b60008281526008602090815260409182902080548351601f600260001961010060018616150201909316929092049182018490048402810184019094528084526060939283018282801561161b5780601f106115f05761010080835404028352916020019161161b565b820191906000526020600020905b8154815290600101906020018083116115fe57829003601f168201915b505060095493945050505060026000196101006001841615020190911604611644579050610957565b8051156117155760098160405160200180838054600181600116156101000203166002900480156116ac5780601f1061168a5761010080835404028352918201916116ac565b820191906000526020600020905b815481529060010190602001808311611698575b5050825160208401908083835b602083106116d85780518252601f1990920191602091820191016116b9565b6001836020036101000a03801982511681845116808217855250505050505090500192505050604051602081830303815290604052915050610957565b60096117208461217d565b604051602001808380546001816001161561010002031660029004801561177e5780601f1061175c57610100808354040283529182019161177e565b820191906000526020600020905b81548152906001019060200180831161176a575b5050825160208401908083835b602083106117aa5780518252601f19909201916020918201910161178b565b6001836020036101000a03801982511681845116808217855250505050505090500192505050604051602081830303815290604052915050919050565b6000908152600d602052604090205490565b600080600080600080600080600c60009054906101000a90046001600160a01b03166001600160a01b031663409e2205600d60008c8152602001908152602001600020546040518263ffffffff1660e01b8152600401808281526020019150506101006040518083038186803b15801561187257600080fd5b505afa158015611886573d6000803e3d6000fd5b505050506040513d61010081101561189d57600080fd5b810190808051906020019092919080519060200190929190805190602001909291908051906020019092919080519060200190929190805190602001909291908051906020019092919080519060200190929190505050809850819950829a50839b50849c50859d50869e50879f505050505050505050919395975091939597565b6001600160a01b03918216600090815260056020908152604080832093909416825291909152205460ff1690565b611955611b70565b600a546001600160a01b039081169116146119b7576040805162461bcd60e51b815260206004820181905260248201527f4f776e61626c653a2063616c6c6572206973206e6f7420746865206f776e6572604482015290519081900360640190fd5b6001600160a01b0381166119fc5760405162461bcd60e51b8152600401808060200182810382526026815260200180612c246026913960400191505060405180910390fd5b600a546040516001600160a01b038084169216907f8be0079c531659141344cd1fd0a4f28419497f9722a3daafe3b4186f6b6457e090600090a3600a80546001600160a01b0319166001600160a01b0392909216919091179055565b600081611a653382611bed565b611aa05760405162461bcd60e51b8152600401808060200182810382526021815260200180612d956021913960400191505060405180910390fd5b600c546000848152600d602052604080822054815163b07f0a4160e01b8152600481019190915290516001600160a01b039093169263b07f0a419260248084019391929182900301818387803b158015611af957600080fd5b505af1158015611b0d573d6000803e3d6000fd5b50505050611b22611b1d84610cc2565b611de1565b604080518281529051919350849133917fac58150721d2aba094a1ef6101fc1fa5cc087a32ba8204364468d6fa70d6a359919081900360200190a350919050565b6000610bbc600283612258565b3390565b600081815260046020526040902080546001600160a01b0319166001600160a01b0384169081179091558190611ba982610cc2565b6001600160a01b03167f8c5be1e5ebec7d5bd14f71427d1e84f3dd0314c0f7b2291e5b200ac8c7c3b92560405160405180910390a45050565b6000610bbc82612264565b6000611bf882611b63565b611c335760405162461bcd60e51b815260040180806020018281038252602c815260200180612c6e602c913960400191505060405180910390fd5b6000611c3e83610cc2565b9050806001600160a01b0316846001600160a01b03161480611c795750836001600160a01b0316611c6e846109f2565b6001600160a01b0316145b806114d157506114d1818561191f565b826001600160a01b0316611c9c82610cc2565b6001600160a01b031614611ce15760405162461bcd60e51b8152600401808060200182810382526029815260200180612db66029913960400191505060405180910390fd5b6001600160a01b038216611d265760405162461bcd60e51b8152600401808060200182810382526024815260200180612c4a6024913960400191505060405180910390fd5b611d31838383612268565b611d3c600082611b74565b6001600160a01b0383166000908152600160205260409020611d5e90826122dd565b506001600160a01b0382166000908152600160205260409020611d8190826122e9565b50611d8e600282846122f5565b5080826001600160a01b0316846001600160a01b03167fddf252ad1be2c89b69c2b068fc378daa952ba7f163c4a11628f55a4df523b3ef60405160405180910390a4505050565b6000610bb9838361230b565b60405147906001600160a01b0383169082156108fc029083906000818181858888f19350505050158015611e19573d6000803e3d6000fd5b50919050565b6000611e2b600b61236f565b611e35600b612264565b6000818152600d60209081526040808320879055868352600e90915290205490915015611ef8576000838152600e6020526040812054611e74906117f9565b505050505050915050306001600160a01b0316816001600160a01b03161415611ede576040805162461bcd60e51b81526020600482015260176024820152761213d391950bd85b1c9958591e4b5d1bdad95b9a5e9959604a1b604482015290519081900360640190fd5b6000848152600e6020526040902054611ef690611f82565b505b6000838152600e60205260409020819055611f138282612378565b60405183906001600160a01b038416907f59ebbb6d5831589f511e0478565d869eff6d1b14ea42cb164054c3ee78ac751390600090a392915050565b6000808080611f5e86866124a6565b9097909650945050505050565b6000611f78848484612521565b90505b9392505050565b6000611f8d82610cc2565b9050611f9b81600084612268565b611fa6600083611b74565b6000828152600860205260409020546002600019610100600184161502019091160415611fe4576000828152600860205260408120611fe491612b6f565b6001600160a01b038116600090815260016020526040902061200690836122dd565b506120126002836125eb565b5060405182906000906001600160a01b038416907fddf252ad1be2c89b69c2b068fc378daa952ba7f163c4a11628f55a4df523b3ef908390a45050565b6000818152600f602052604081205460ff1661212357600c546000838152600d602052604080822054815163409e220560e01b81526004810191909152905191926001600160a01b03169163409e22059160248082019261010092909190829003018186803b1580156120c157600080fd5b505afa1580156120d5573d6000803e3d6000fd5b505050506040513d6101008110156120ec57600080fd5b506020908101516000858152600f9092526040909120805460ff19166001600160a01b039092163014918217905591506109579050565b506001919050565b612136848484611c89565b612142848484846125f7565b610f595760405162461bcd60e51b8152600401808060200182810382526032815260200180612bf26032913960400191505060405180910390fd5b6060816121a257506040805180820190915260018152600360fc1b6020820152610957565b8160005b81156121ba57600101600a820491506121a6565b60608167ffffffffffffffff811180156121d357600080fd5b506040519080825280601f01601f1916602001820160405280156121fe576020820181803683370190505b50859350905060001982015b831561224f57600a840660300160f81b8282806001900393508151811061222d57fe5b60200101906001600160f81b031916908160001a905350600a8404935061220a565b50949350505050565b6000610bb9838361275f565b5490565b6122718161204f565b8061228357506001600160a01b038316155b8061229557506001600160a01b038216155b610b2a576040805162461bcd60e51b81526020600482015260146024820152732427a7232a17b4b73b30b634b216b437b63232b960611b604482015290519081900360640190fd5b6000610bb98383612777565b6000610bb9838361283d565b6000611f7884846001600160a01b038516612887565b8154600090821061234d5760405162461bcd60e51b8152600401808060200182810382526022815260200180612bd06022913960400191505060405180910390fd5b82600001828154811061235c57fe5b9060005260206000200154905092915050565b80546001019055565b6001600160a01b0382166123d3576040805162461bcd60e51b815260206004820181905260248201527f4552433732313a206d696e7420746f20746865207a65726f2061646472657373604482015290519081900360640190fd5b6123dc81611b63565b1561242e576040805162461bcd60e51b815260206004820152601c60248201527f4552433732313a20746f6b656e20616c7265616479206d696e74656400000000604482015290519081900360640190fd5b61243a60008383612268565b6001600160a01b038216600090815260016020526040902061245c90826122e9565b50612469600282846122f5565b5060405181906001600160a01b038416906000907fddf252ad1be2c89b69c2b068fc378daa952ba7f163c4a11628f55a4df523b3ef908290a45050565b8154600090819083106124ea5760405162461bcd60e51b8152600401808060200182810382526022815260200180612d476022913960400191505060405180910390fd5b60008460000184815481106124fb57fe5b906000526020600020906002020190508060000154816001015492509250509250929050565b600082815260018401602052604081205482816125bc5760405162461bcd60e51b81526004018080602001828103825283818151815260200191508051906020019080838360005b83811015612581578181015183820152602001612569565b50505050905090810190601f1680156125ae5780820380516001836020036101000a031916815260200191505b509250505060405180910390fd5b508460000160018203815481106125cf57fe5b9060005260206000209060020201600101549150509392505050565b6000610bb9838361291e565b600061260b846001600160a01b03166129f2565b612617575060016114d1565b6060612725630a85bd0160e11b61262c611b70565b88878760405160240180856001600160a01b03168152602001846001600160a01b0316815260200183815260200180602001828103825283818151815260200191508051906020019080838360005b8381101561269357818101518382015260200161267b565b50505050905090810190601f1680156126c05780820380516001836020036101000a031916815260200191505b5095505050505050604051602081830303815290604052906001600160e01b0319166020820180516001600160e01b038381831617835250505050604051806060016040528060328152602001612bf2603291396001600160a01b03881691906129f8565b9050600081806020019051602081101561273e57600080fd5b50516001600160e01b031916630a85bd0160e11b1492505050949350505050565b60009081526001919091016020526040902054151590565b6000818152600183016020526040812054801561283357835460001980830191908101906000908790839081106127aa57fe5b90600052602060002001549050808760000184815481106127c757fe5b6000918252602080832090910192909255828152600189810190925260409020908401905586548790806127f757fe5b60019003818190600052602060002001600090559055866001016000878152602001908152602001600020600090556001945050505050610bbc565b6000915050610bbc565b6000612849838361275f565b61287f57508154600181810184556000848152602080822090930184905584548482528286019093526040902091909155610bbc565b506000610bbc565b6000828152600184016020526040812054806128ec575050604080518082018252838152602080820184815286546001818101895560008981528481209551600290930290950191825591519082015586548684528188019092529290912055611f7b565b828560000160018303815481106128ff57fe5b9060005260206000209060020201600101819055506000915050611f7b565b60008181526001830160205260408120548015612833578354600019808301919081019060009087908390811061295157fe5b906000526020600020906002020190508087600001848154811061297157fe5b6000918252602080832084546002909302019182556001938401549184019190915583548252898301905260409020908401905586548790806129b057fe5b6000828152602080822060026000199094019384020182815560019081018390559290935588815289820190925260408220919091559450610bbc9350505050565b3b151590565b6060611f7884846000856060612a0d856129f2565b612a5e576040805162461bcd60e51b815260206004820152601d60248201527f416464726573733a2063616c6c20746f206e6f6e2d636f6e7472616374000000604482015290519081900360640190fd5b60006060866001600160a01b031685876040518082805190602001908083835b60208310612a9d5780518252601f199092019160209182019101612a7e565b6001836020036101000a03801982511681845116808217855250505050505090500191505060006040518083038185875af1925050503d8060008114612aff576040519150601f19603f3d011682016040523d82523d6000602084013e612b04565b606091505b50915091508115612b185791506114d19050565b805115612b285780518082602001fd5b60405162461bcd60e51b8152602060048201818152865160248401528651879391928392604401919085019080838360008315612581578181015183820152602001612569565b50805460018160011615610100020316600290046000825580601f10612b955750612bb3565b601f016020900490600052602060002090810190612bb39190612bb6565b50565b5b80821115612bcb5760008155600101612bb7565b509056fe456e756d657261626c655365743a20696e646578206f7574206f6620626f756e64734552433732313a207472616e7366657220746f206e6f6e20455243373231526563656976657220696d706c656d656e7465724f776e61626c653a206e6577206f776e657220697320746865207a65726f20616464726573734552433732313a207472616e7366657220746f20746865207a65726f20616464726573734552433732313a206f70657261746f7220717565727920666f72206e6f6e6578697374656e7420746f6b656e484f4e46542f6f7074696f6e2d6e6f742d6f776e65642d62792d636f6e74726163744552433732313a20617070726f76652063616c6c6572206973206e6f74206f776e6572206e6f7220617070726f76656420666f7220616c6c4552433732313a2062616c616e636520717565727920666f7220746865207a65726f20616464726573734552433732313a206f776e657220717565727920666f72206e6f6e6578697374656e7420746f6b656e456e756d657261626c654d61703a20696e646578206f7574206f6620626f756e64734552433732313a20617070726f76656420717565727920666f72206e6f6e6578697374656e7420746f6b656e484f4e46542f6e6f742d746f6b656e2d6f776e65722d6f722d617070726f7665644552433732313a207472616e73666572206f6620746f6b656e2074686174206973206e6f74206f776e4552433732314d657461646174613a2055524920717565727920666f72206e6f6e6578697374656e7420746f6b656e4552433732313a20617070726f76616c20746f2063757272656e74206f776e65724552433732313a207472616e736665722063616c6c6572206973206e6f74206f776e6572206e6f7220617070726f766564a2646970667358221220ac3372885077dfe4e8eb04d4e230768e04473a6de234929ebb7b187328fe9f7364736f6c634300060c0033",
  "linkReferences": {},
  "deployedLinkReferences": {}
}